{"contracts/RugPullDetector.sol":{"RugPullDetector":{"abi":[{"inputs":[{"internalType":"uint256","name":"_rugPullThreshold","type":"uint256"}],"stateMutability":"nonpayable","type":"constructor"},{"inputs":[{"internalType":"address","name":"owner","type":"address"}],"name":"OwnableInvalidOwner","type":"error"},{"inputs":[{"internalType":"address","name":"account","type":"address"}],"name":"OwnableUnauthorizedAccount","type":"error"},{"anonymous":false,"inputs":[{"indexed":true,"internalType":"address","name":"previousOwner","type":"address"},{"indexed":true,"internalType":"address","name":"newOwner","type":"address"}],"name":"OwnershipTransferred","type":"event"},{"anonymous":false,"inputs":[{"indexed":false,"internalType":"string","name":"name","type":"string"},{"indexed":false,"internalType":"uint256","name":"weight","type":"uint256"}],"name":"RiskFactorAdded","type":"event"},{"anonymous":false,"inputs":[{"indexed":false,"internalType":"string","name":"name","type":"string"}],"name":"RiskFactorRemoved","type":"event"},{"anonymous":false,"inputs":[{"indexed":false,"internalType":"string","name":"name","type":"string"},{"indexed":false,"internalType":"uint256","name":"newWeight","type":"uint256"}],"name":"RiskFactorWeightUpdated","type":"event"},{"anonymous":false,"inputs":[{"indexed":true,"internalType":"address","name":"tokenAddress","type":"address"},{"indexed":false,"internalType":"bool","name":"isPotentialRugPull","type":"bool"},{"indexed":false,"internalType":"string[]","name":"reasons","type":"string[]"}],"name":"TokenAnalyzed","type":"event"},{"inputs":[{"internalType":"string","name":"name","type":"string"},{"internalType":"uint256","name":"weight","type":"uint256"}],"name":"addRiskFactor","outputs":[],"stateMutability":"nonpayable","type":"function"},{"inputs":[{"internalType":"uint256","name":"","type":"uint256"}],"name":"analyzedTokens","outputs":[{"internalType":"address","name":"","type":"address"}],"stateMutability":"view","type":"function"},{"inputs":[],"name":"getAnalyzedTokens","outputs":[{"internalType":"address[]","name":"","type":"address[]"}],"stateMutability":"view","type":"function"},{"inputs":[],"name":"getRiskFactorNames","outputs":[{"internalType":"string[]","name":"","type":"string[]"}],"stateMutability":"view","type":"function"},{"inputs":[{"internalType":"address","name":"tokenAddress","type":"address"}],"name":"getTokenAnalysis","outputs":[{"internalType":"bool","name":"analyzed","type":"bool"},{"internalType":"bool","name":"isPotentialRugPull","type":"bool"},{"internalType":"string[]","name":"riskFactors","type":"string[]"},{"internalType":"uint256","name":"riskScore","type":"uint256"},{"internalType":"uint256","name":"timestamp","type":"uint256"}],"stateMutability":"view","type":"function"},{"inputs":[],"name":"owner","outputs":[{"internalType":"address","name":"","type":"address"}],"stateMutability":"view","type":"function"},{"inputs":[{"internalType":"address","name":"tokenAddress","type":"address"},{"internalType":"string[]","name":"detectedRiskFactors","type":"string[]"}],"name":"recordTokenAnalysis","outputs":[],"stateMutability":"nonpayable","type":"function"},{"inputs":[{"internalType":"string","name":"name","type":"string"}],"name":"removeRiskFactor","outputs":[],"stateMutability":"nonpayable","type":"function"},{"inputs":[],"name":"renounceOwnership","outputs":[],"stateMutability":"nonpayable","type":"function"},{"inputs":[{"internalType":"uint256","name":"","type":"uint256"}],"name":"riskFactorNames","outputs":[{"internalType":"string","name":"","type":"string"}],"stateMutability":"view","type":"function"},{"inputs":[{"internalType":"string","name":"","type":"string"}],"name":"riskFactors","outputs":[{"internalType":"bool","name":"exists","type":"bool"},{"internalType":"uint256","name":"weight","type":"uint256"}],"stateMutability":"view","type":"function"},{"inputs":[],"name":"rugPullThreshold","outputs":[{"internalType":"uint256","name":"","type":"uint256"}],"stateMutability":"view","type":"function"},{"inputs":[{"internalType":"address","name":"","type":"address"}],"name":"tokenAnalyses","outputs":[{"internalType":"bool","name":"analyzed","type":"bool"},{"internalType":"bool","name":"isPotentialRugPull","type":"bool"},{"internalType":"uint256","name":"riskScore","type":"uint256"},{"internalType":"uint256","name":"timestamp","type":"uint256"}],"stateMutability":"view","type":"function"},{"inputs":[{"internalType":"address","name":"newOwner","type":"address"}],"name":"transferOwnership","outputs":[],"stateMutability":"nonpayable","type":"function"},{"inputs":[{"internalType":"string","name":"name","type":"string"},{"internalType":"uint256","name":"newWeight","type":"uint256"}],"name":"updateRiskFactorWeight","outputs":[],"stateMutability":"nonpayable","type":"function"},{"inputs":[{"internalType":"uint256","name":"newThreshold","type":"uint256"}],"name":"updateRugPullThreshold","outputs":[],"stateMutability":"nonpayable","type":"function"}],"evm":{"bytecode":{"linkReferences":{},"object":"60806040523480156200001157600080fd5b5060405162002e5338038062002e538339818101604052810190620000379190620004fc565b33600073ffffffffffffffffffffffffffffffffffffffff168173ffffffffffffffffffffffffffffffffffffffff1603620000ad5760006040517f1e4fbdf7000000000000000000000000000000000000000000000000000000008152600401620000a4919062000573565b60405180910390fd5b620000be81620002a960201b60201c565b50806004819055506200010e6040518060400160405280601181526020017f4e6f206c6971756964697479206c6f636b00000000000000000000000000000081525060506200036d60201b60201c565b620001566040518060400160405280601f81526020017f4f776e65722063616e206d696e7420756e6c696d6974656420746f6b656e7300815250605a6200036d60201b60201c565b6200019e6040518060400160405280601581526020017f48696464656e206d696e742066756e6374696f6e730000000000000000000000815250605f6200036d60201b60201c565b620001e66040518060400160405280601381526020017f426c61636b6c6973742066756e6374696f6e7300000000000000000000000000815250603c6200036d60201b60201c565b6200022e6040518060400160405280601681526020017f5472616e736665722066656573206f766572203130250000000000000000000081525060466200036d60201b60201c565b620002766040518060400160405280601781526020017f4f776e65722063616e2070617573652074726164696e67000000000000000000815250604b6200036d60201b60201c565b620002a260405180606001604052806025815260200162002e2e6025913960326200036d60201b60201c565b5062000a88565b60008060009054906101000a900473ffffffffffffffffffffffffffffffffffffffff169050816000806101000a81548173ffffffffffffffffffffffffffffffffffffffff021916908373ffffffffffffffffffffffffffffffffffffffff1602179055508173ffffffffffffffffffffffffffffffffffffffff168173ffffffffffffffffffffffffffffffffffffffff167f8be0079c531659141344cd1fd0a4f28419497f9722a3daafe3b4186f6b6457e060405160405180910390a35050565b6002826040516200037f919062000609565b908152602001604051809103902060000160009054906101000a900460ff1615620003e1576040517f08c379a0000000000000000000000000000000000000000000000000000000008152600401620003d89062000683565b60405180910390fd5b6040518060400160405280600115158152602001828152506002836040516200040b919062000609565b908152602001604051809103902060008201518160000160006101000a81548160ff021916908315150217905550602082015181600101559050506003829080600181540180825580915050600190039060005260206000200160009091909190915090816200047c91906200090a565b507fd68db30cf75eb83241d742163152d5c0a08d1f75a3e4397fd220f5cd44a01fb18282604051620004b092919062000a54565b60405180910390a15050565b600080fd5b6000819050919050565b620004d681620004c1565b8114620004e257600080fd5b50565b600081519050620004f681620004cb565b92915050565b600060208284031215620005155762000514620004bc565b5b60006200052584828501620004e5565b91505092915050565b600073ffffffffffffffffffffffffffffffffffffffff82169050919050565b60006200055b826200052e565b9050919050565b6200056d816200054e565b82525050565b60006020820190506200058a600083018462000562565b92915050565b600081519050919050565b600081905092915050565b60005b83811015620005c6578082015181840152602081019050620005a9565b60008484015250505050565b6000620005df8262000590565b620005eb81856200059b565b9350620005fd818560208601620005a6565b80840191505092915050565b6000620006178284620005d2565b915081905092915050565b600082825260208201905092915050565b7f5269736b20666163746f7220616c726561647920657869737473000000000000600082015250565b60006200066b601a8362000622565b9150620006788262000633565b602082019050919050565b600060208201905081810360008301526200069e816200065c565b9050919050565b7f4e487b7100000000000000000000000000000000000000000000000000000000600052604160045260246000fd5b7f4e487b7100000000000000000000000000000000000000000000000000000000600052602260045260246000fd5b600060028204905060018216806200071c57607f821691505b602082108103620007325762000731620006d4565b5b50919050565b60008190508160005260206000209050919050565b60006020601f8301049050919050565b600082821b905092915050565b6000600883026200079c7fffffffffffffffffffffffffffffffffffffffffffffffffffffffffffffffff826200075d565b620007a886836200075d565b95508019841693508086168417925050509392505050565b6000819050919050565b6000620007eb620007e5620007df84620004c1565b620007c0565b620004c1565b9050919050565b6000819050919050565b6200080783620007ca565b6200081f6200081682620007f2565b8484546200076a565b825550505050565b600090565b6200083662000827565b62000843818484620007fc565b505050565b5b818110156200086b576200085f6000826200082c565b60018101905062000849565b5050565b601f821115620008ba57620008848162000738565b6200088f846200074d565b810160208510156200089f578190505b620008b7620008ae856200074d565b83018262000848565b50505b505050565b600082821c905092915050565b6000620008df60001984600802620008bf565b1980831691505092915050565b6000620008fa8383620008cc565b9150826002028217905092915050565b620009158262000590565b67ffffffffffffffff811115620009315762000930620006a5565b5b6200093d825462000703565b6200094a8282856200086f565b600060209050601f8311600181146200098257600084156200096d578287015190505b620009798582620008ec565b865550620009e9565b601f198416620009928662000738565b60005b82811015620009bc5784890151825560018201915060208501945060208101905062000995565b86831015620009dc5784890151620009d8601f891682620008cc565b8355505b6001600288020188555050505b505050505050565b6000601f19601f8301169050919050565b600062000a0f8262000590565b62000a1b818562000622565b935062000a2d818560208601620005a6565b62000a3881620009f1565b840191505092915050565b62000a4e81620004c1565b82525050565b6000604082019050818103600083015262000a70818562000a02565b905062000a81602083018462000a43565b9392505050565b6123968062000a986000396000f3fe608060405234801561001057600080fd5b50600436106101005760003560e01c80638b69490311610097578063b4535f7c11610066578063b4535f7c1461028c578063cbdb19c8146102bc578063f2fde38b146102d8578063fc691ce5146102f457610100565b80638b694903146102065780638da5cb5b146102225780638fdb8efa14610240578063aa51b86f1461027057610100565b806357ea5cf2116100d357806357ea5cf2146101a657806364ea5db4146101c4578063715018a6146101e0578063716e0efe146101ea57610100565b806322ed3f8f146101055780633ee929ce14610139578063410d4ed81461016a57806342d2ff7114610188575b600080fd5b61011f600480360381019061011a91906112ec565b610327565b60405161013095949392919061149f565b60405180910390f35b610153600480360381019061014e919061162e565b6104cd565b604051610161929190611677565b60405180910390f35b610172610514565b60405161017f91906116a0565b60405180910390f35b61019061051a565b60405161019d91906116bb565b60405180910390f35b6101ae6105f3565b6040516101bb919061179b565b60405180910390f35b6101de60048036038101906101d991906117e9565b610681565b005b6101e86107aa565b005b61020460048036038101906101ff91906117e9565b6107be565b005b610220600480360381019061021b919061192b565b610824565b005b61022a610ae2565b6040516102379190611996565b60405180910390f35b61025a600480360381019061025591906119b1565b610b0b565b6040516102679190611996565b60405180910390f35b61028a600480360381019061028591906119b1565b610b4a565b005b6102a660048036038101906102a191906119b1565b610bad565b6040516102b39190611a28565b60405180910390f35b6102d660048036038101906102d1919061162e565b610c59565b005b6102f260048036038101906102ed91906112ec565b610e39565b005b61030e600480360381019061030991906112ec565b610ebf565b60405161031e9493929190611a4a565b60405180910390f35b60008060606000806000600160008873ffffffffffffffffffffffffffffffffffffffff1673ffffffffffffffffffffffffffffffffffffffff1681526020019081526020016000206040518060a00160405290816000820160009054906101000a900460ff161515151581526020016000820160019054906101000a900460ff1615151515815260200160018201805480602002602001604051908101604052809291908181526020016000905b828210156104825783829060005260206000200180546103f590611abe565b80601f016020809104026020016040519081016040528092919081815260200182805461042190611abe565b801561046e5780601f106104435761010080835404028352916020019161046e565b820191906000526020600020905b81548152906001019060200180831161045157829003601f168201915b5050505050815260200190600101906103d6565b50505050815260200160028201548152602001600382015481525050905080600001518160200151826040015183606001518460800151955095509550955095505091939590929450565b6002818051602081018201805184825260208301602085012081835280955050505050506000915090508060000160009054906101000a900460ff16908060010154905082565b60045481565b60606003805480602002602001604051908101604052809291908181526020016000905b828210156105ea57838290600052602060002001805461055d90611abe565b80601f016020809104026020016040519081016040528092919081815260200182805461058990611abe565b80156105d65780601f106105ab576101008083540402835291602001916105d6565b820191906000526020600020905b8154815290600101906020018083116105b957829003601f168201915b50505050508152602001906001019061053e565b50505050905090565b6060600580548060200260200160405190810160405280929190818152602001828054801561067757602002820191906000526020600020905b8160009054906101000a900473ffffffffffffffffffffffffffffffffffffffff1673ffffffffffffffffffffffffffffffffffffffff168152602001906001019080831161062d575b5050505050905090565b610689610f09565b6002826040516106999190611b2b565b908152602001604051809103902060000160009054906101000a900460ff166106f7576040517f08c379a00000000000000000000000000000000000000000000000000000000081526004016106ee90611b8e565b60405180910390fd5b600081118015610708575060648111155b610747576040517f08c379a000000000000000000000000000000000000000000000000000000000815260040161073e90611bfa565b60405180910390fd5b806002836040516107589190611b2b565b9081526020016040518091039020600101819055507fdb50bf4a10b80558195e91db1785f9950569530adc147c0163d0d976084e9eeb828260405161079e929190611c1a565b60405180910390a15050565b6107b2610f09565b6107bc6000610f90565b565b6107c6610f09565b6000811180156107d7575060648111155b610816576040517f08c379a000000000000000000000000000000000000000000000000000000000815260040161080d90611bfa565b60405180910390fd5b6108208282611054565b5050565b61082c610f09565b6000805b82518110156108d057600083828151811061084e5761084d611c4a565b5b602002602001015190506002816040516108689190611b2b565b908152602001604051809103902060000160009054906101000a900460ff16156108bc5760028160405161089c9190611b2b565b908152602001604051809103902060010154836108b99190611ca8565b92505b5080806108c890611cdc565b915050610830565b506000825111156108eb578151816108e89190611d53565b90505b60006004548210159050600160008573ffffffffffffffffffffffffffffffffffffffff1673ffffffffffffffffffffffffffffffffffffffff16815260200190815260200160002060000160009054906101000a900460ff166109ad576005849080600181540180825580915050600190039060005260206000200160009091909190916101000a81548173ffffffffffffffffffffffffffffffffffffffff021916908373ffffffffffffffffffffffffffffffffffffffff1602179055505b6040518060a00160405280600115158152602001821515815260200184815260200183815260200142815250600160008673ffffffffffffffffffffffffffffffffffffffff1673ffffffffffffffffffffffffffffffffffffffff16815260200190815260200160002060008201518160000160006101000a81548160ff02191690831515021790555060208201518160000160016101000a81548160ff0219169083151502179055506040820151816001019080519060200190610a749291906111a0565b5060608201518160020155608082015181600301559050508373ffffffffffffffffffffffffffffffffffffffff167ff78d15a77505dac1c4de5cac9c2c7ae746da8e30f2265047a7c77dc5de77fde48285604051610ad4929190611d84565b60405180910390a250505050565b60008060009054906101000a900473ffffffffffffffffffffffffffffffffffffffff16905090565b60058181548110610b1b57600080fd5b906000526020600020016000915054906101000a900473ffffffffffffffffffffffffffffffffffffffff1681565b610b52610f09565b60008110158015610b64575060648111155b610ba3576040517f08c379a0000000000000000000000000000000000000000000000000000000008152600401610b9a90611e26565b60405180910390fd5b8060048190555050565b60038181548110610bbd57600080fd5b906000526020600020016000915090508054610bd890611abe565b80601f0160208091040260200160405190810160405280929190818152602001828054610c0490611abe565b8015610c515780601f10610c2657610100808354040283529160200191610c51565b820191906000526020600020905b815481529060010190602001808311610c3457829003601f168201915b505050505081565b610c61610f09565b600281604051610c719190611b2b565b908152602001604051809103902060000160009054906101000a900460ff16610ccf576040517f08c379a0000000000000000000000000000000000000000000000000000000008152600401610cc690611b8e565b60405180910390fd5b60005b600380549050811015610dc157818051906020012060038281548110610cfb57610cfa611c4a565b5b90600052602060002001604051610d129190611ee9565b604051809103902003610dae5760036001600380549050610d339190611f00565b81548110610d4457610d43611c4a565b5b9060005260206000200160038281548110610d6257610d61611c4a565b5b906000526020600020019081610d78919061210b565b506003805480610d8b57610d8a6121f3565b5b600190038181906000526020600020016000610da791906111f9565b9055610dc1565b8080610db990611cdc565b915050610cd2565b50600281604051610dd29190611b2b565b9081526020016040518091039020600080820160006101000a81549060ff0219169055600182016000905550507fade49dcedff749d125bd467ee7cb240b4d93d6e294fb16574c56c9786b7d35ae81604051610e2e9190611a28565b60405180910390a150565b610e41610f09565b600073ffffffffffffffffffffffffffffffffffffffff168173ffffffffffffffffffffffffffffffffffffffff1603610eb35760006040517f1e4fbdf7000000000000000000000000000000000000000000000000000000008152600401610eaa9190611996565b60405180910390fd5b610ebc81610f90565b50565b60016020528060005260406000206000915090508060000160009054906101000a900460ff16908060000160019054906101000a900460ff16908060020154908060030154905084565b610f11611198565b73ffffffffffffffffffffffffffffffffffffffff16610f2f610ae2565b73ffffffffffffffffffffffffffffffffffffffff1614610f8e57610f52611198565b6040517f118cdaa7000000000000000000000000000000000000000000000000000000008152600401610f859190611996565b60405180910390fd5b565b60008060009054906101000a900473ffffffffffffffffffffffffffffffffffffffff169050816000806101000a81548173ffffffffffffffffffffffffffffffffffffffff021916908373ffffffffffffffffffffffffffffffffffffffff1602179055508173ffffffffffffffffffffffffffffffffffffffff168173ffffffffffffffffffffffffffffffffffffffff167f8be0079c531659141344cd1fd0a4f28419497f9722a3daafe3b4186f6b6457e060405160405180910390a35050565b6002826040516110649190611b2b565b908152602001604051809103902060000160009054906101000a900460ff16156110c3576040517f08c379a00000000000000000000000000000000000000000000000000000000081526004016110ba9061226e565b60405180910390fd5b6040518060400160405280600115158152602001828152506002836040516110eb9190611b2b565b908152602001604051809103902060008201518160000160006101000a81548160ff0219169083151502179055506020820151816001015590505060038290806001815401808255809150506001900390600052602060002001600090919091909150908161115a919061228e565b507fd68db30cf75eb83241d742163152d5c0a08d1f75a3e4397fd220f5cd44a01fb1828260405161118c929190611c1a565b60405180910390a15050565b600033905090565b8280548282559060005260206000209081019282156111e8579160200282015b828111156111e75782518290816111d7919061228e565b50916020019190600101906111c0565b5b5090506111f59190611239565b5090565b50805461120590611abe565b6000825580601f106112175750611236565b601f016020900490600052602060002090810190611235919061125d565b5b50565b5b80821115611259576000818161125091906111f9565b5060010161123a565b5090565b5b8082111561127657600081600090555060010161125e565b5090565b6000604051905090565b600080fd5b600080fd5b600073ffffffffffffffffffffffffffffffffffffffff82169050919050565b60006112b98261128e565b9050919050565b6112c9816112ae565b81146112d457600080fd5b50565b6000813590506112e6816112c0565b92915050565b60006020828403121561130257611301611284565b5b6000611310848285016112d7565b91505092915050565b60008115159050919050565b61132e81611319565b82525050565b600081519050919050565b600082825260208201905092915050565b6000819050602082019050919050565b600081519050919050565b600082825260208201905092915050565b60005b8381101561139a57808201518184015260208101905061137f565b60008484015250505050565b6000601f19601f8301169050919050565b60006113c282611360565b6113cc818561136b565b93506113dc81856020860161137c565b6113e5816113a6565b840191505092915050565b60006113fc83836113b7565b905092915050565b6000602082019050919050565b600061141c82611334565b611426818561133f565b93508360208202850161143885611350565b8060005b85811015611474578484038952815161145585826113f0565b945061146083611404565b925060208a0199505060018101905061143c565b50829750879550505050505092915050565b6000819050919050565b61149981611486565b82525050565b600060a0820190506114b46000830188611325565b6114c16020830187611325565b81810360408301526114d38186611411565b90506114e26060830185611490565b6114ef6080830184611490565b9695505050505050565b600080fd5b600080fd5b7f4e487b7100000000000000000000000000000000000000000000000000000000600052604160045260246000fd5b61153b826113a6565b810181811067ffffffffffffffff8211171561155a57611559611503565b5b80604052505050565b600061156d61127a565b90506115798282611532565b919050565b600067ffffffffffffffff82111561159957611598611503565b5b6115a2826113a6565b9050602081019050919050565b82818337600083830152505050565b60006115d16115cc8461157e565b611563565b9050828152602081018484840111156115ed576115ec6114fe565b5b6115f88482856115af565b509392505050565b600082601f830112611615576116146114f9565b5b81356116258482602086016115be565b91505092915050565b60006020828403121561164457611643611284565b5b600082013567ffffffffffffffff81111561166257611661611289565b5b61166e84828501611600565b91505092915050565b600060408201905061168c6000830185611325565b6116996020830184611490565b9392505050565b60006020820190506116b56000830184611490565b92915050565b600060208201905081810360008301526116d58184611411565b905092915050565b600081519050919050565b600082825260208201905092915050565b6000819050602082019050919050565b611712816112ae565b82525050565b60006117248383611709565b60208301905092915050565b6000602082019050919050565b6000611748826116dd565b61175281856116e8565b935061175d836116f9565b8060005b8381101561178e5781516117758882611718565b975061178083611730565b925050600181019050611761565b5085935050505092915050565b600060208201905081810360008301526117b5818461173d565b905092915050565b6117c681611486565b81146117d157600080fd5b50565b6000813590506117e3816117bd565b92915050565b60008060408385031215611800576117ff611284565b5b600083013567ffffffffffffffff81111561181e5761181d611289565b5b61182a85828601611600565b925050602061183b858286016117d4565b9150509250929050565b600067ffffffffffffffff8211156118605761185f611503565b5b602082029050602081019050919050565b600080fd5b600061188961188484611845565b611563565b905080838252602082019050602084028301858111156118ac576118ab611871565b5b835b818110156118f357803567ffffffffffffffff8111156118d1576118d06114f9565b5b8086016118de8982611600565b855260208501945050506020810190506118ae565b5050509392505050565b600082601f830112611912576119116114f9565b5b8135611922848260208601611876565b91505092915050565b6000806040838503121561194257611941611284565b5b6000611950858286016112d7565b925050602083013567ffffffffffffffff81111561197157611970611289565b5b61197d858286016118fd565b9150509250929050565b611990816112ae565b82525050565b60006020820190506119ab6000830184611987565b92915050565b6000602082840312156119c7576119c6611284565b5b60006119d5848285016117d4565b91505092915050565b600082825260208201905092915050565b60006119fa82611360565b611a0481856119de565b9350611a1481856020860161137c565b611a1d816113a6565b840191505092915050565b60006020820190508181036000830152611a4281846119ef565b905092915050565b6000608082019050611a5f6000830187611325565b611a6c6020830186611325565b611a796040830185611490565b611a866060830184611490565b95945050505050565b7f4e487b7100000000000000000000000000000000000000000000000000000000600052602260045260246000fd5b60006002820490506001821680611ad657607f821691505b602082108103611ae957611ae8611a8f565b5b50919050565b600081905092915050565b6000611b0582611360565b611b0f8185611aef565b9350611b1f81856020860161137c565b80840191505092915050565b6000611b378284611afa565b915081905092915050565b7f5269736b20666163746f7220646f6573206e6f74206578697374000000000000600082015250565b6000611b78601a836119de565b9150611b8382611b42565b602082019050919050565b60006020820190508181036000830152611ba781611b6b565b9050919050565b7f576569676874206d757374206265206265747765656e203120616e6420313030600082015250565b6000611be46020836119de565b9150611bef82611bae565b602082019050919050565b60006020820190508181036000830152611c1381611bd7565b9050919050565b60006040820190508181036000830152611c3481856119ef565b9050611c436020830184611490565b9392505050565b7f4e487b7100000000000000000000000000000000000000000000000000000000600052603260045260246000fd5b7f4e487b7100000000000000000000000000000000000000000000000000000000600052601160045260246000fd5b6000611cb382611486565b9150611cbe83611486565b9250828201905080821115611cd657611cd5611c79565b5b92915050565b6000611ce782611486565b91507fffffffffffffffffffffffffffffffffffffffffffffffffffffffffffffffff8203611d1957611d18611c79565b5b600182019050919050565b7f4e487b7100000000000000000000000000000000000000000000000000000000600052601260045260246000fd5b6000611d5e82611486565b9150611d6983611486565b925082611d7957611d78611d24565b5b828204905092915050565b6000604082019050611d996000830185611325565b8181036020830152611dab8184611411565b90509392505050565b7f5468726573686f6c64206d757374206265206265747765656e203020616e642060008201527f3130300000000000000000000000000000000000000000000000000000000000602082015250565b6000611e106023836119de565b9150611e1b82611db4565b604082019050919050565b60006020820190508181036000830152611e3f81611e03565b9050919050565b600081905092915050565b60008190508160005260206000209050919050565b60008154611e7381611abe565b611e7d8186611e46565b94506001821660008114611e985760018114611ead57611ee0565b60ff1983168652811515820286019350611ee0565b611eb685611e51565b60005b83811015611ed857815481890152600182019150602081019050611eb9565b838801955050505b50505092915050565b6000611ef58284611e66565b915081905092915050565b6000611f0b82611486565b9150611f1683611486565b9250828203905081811115611f2e57611f2d611c79565b5b92915050565b600081549050611f4381611abe565b9050919050565b60008190508160005260206000209050919050565b60008190508160005260206000209050919050565b60006020601f8301049050919050565b600082821b905092915050565b600060088302611fc17fffffffffffffffffffffffffffffffffffffffffffffffffffffffffffffffff82611f84565b611fcb8683611f84565b95508019841693508086168417925050509392505050565b6000819050919050565b6000612008612003611ffe84611486565b611fe3565b611486565b9050919050565b6000819050919050565b61202283611fed565b61203661202e8261200f565b848454611f91565b825550505050565b600090565b61204b61203e565b612056818484612019565b505050565b5b8181101561207a5761206f600082612043565b60018101905061205c565b5050565b601f8211156120bf5761209081611f4a565b61209984611f74565b810160208510156120a8578190505b6120bc6120b485611f74565b83018261205b565b50505b505050565b600082821c905092915050565b60006120e2600019846008026120c4565b1980831691505092915050565b60006120fb83836120d1565b9150826002028217905092915050565b8181036121195750506121f1565b61212282611f34565b67ffffffffffffffff81111561213b5761213a611503565b5b6121458254611abe565b61215082828561207e565b6000601f83116001811461217f576000841561216d578287015490505b61217785826120ef565b8655506121ea565b601f19841661218d87611f5f565b965061219886611f4a565b60005b828110156121c05784890154825560018201915060018501945060208101905061219b565b868310156121dd57848901546121d9601f8916826120d1565b8355505b6001600288020188555050505b5050505050505b565b7f4e487b7100000000000000000000000000000000000000000000000000000000600052603160045260246000fd5b7f5269736b20666163746f7220616c726561647920657869737473000000000000600082015250565b6000612258601a836119de565b915061226382612222565b602082019050919050565b600060208201905081810360008301526122878161224b565b9050919050565b61229782611360565b67ffffffffffffffff8111156122b0576122af611503565b5b6122ba8254611abe565b6122c582828561207e565b600060209050601f8311600181146122f857600084156122e6578287015190505b6122f085826120ef565b865550612358565b601f19841661230686611f4a565b60005b8281101561232e57848901518255600182019150602085019450602081019050612309565b8683101561234b5784890151612347601f8916826120d1565b8355505b6001600288020188555050505b50505050505056fea26469706673582212200a6e56a0073c3dde278c4876799360ddf626b86837bb85c2a80e9c159ba675a564736f6c6343000814003350726f787920636f6e74726163742077697468207570677261646561626c65206c6f676963","opcodes":"PUSH1 0x80 PUSH1 0x40 MSTORE CALLVALUE DUP1 ISZERO PUSH3 0x11 JUMPI PUSH1 0x0 DUP1 REVERT JUMPDEST POP PUSH1 0x40 MLOAD PUSH3 0x2E53 CODESIZE SUB DUP1 PUSH3 0x2E53 DUP4 CODECOPY DUP2 DUP2 ADD PUSH1 0x40 MSTORE DUP2 ADD SWAP1 PUSH3 0x37 SWAP2 SWAP1 PUSH3 0x4FC JUMP JUMPDEST CALLER PUSH1 0x0 PUSH20 0xFFFFFFFFFFFFFFFFFFFFFFFFFFFFFFFFFFFFFFFF AND DUP2 PUSH20 0xFFFFFFFFFFFFFFFFFFFFFFFFFFFFFFFFFFFFFFFF AND SUB PUSH3 0xAD JUMPI PUSH1 0x0 PUSH1 0x40 MLOAD PUSH32 0x1E4FBDF700000000000000000000000000000000000000000000000000000000 DUP2 MSTORE PUSH1 0x4 ADD PUSH3 0xA4 SWAP2 SWAP1 PUSH3 0x573 JUMP JUMPDEST PUSH1 0x40 MLOAD DUP1 SWAP2 SUB SWAP1 REVERT JUMPDEST PUSH3 0xBE DUP2 PUSH3 0x2A9 PUSH1 0x20 SHL PUSH1 0x20 SHR JUMP JUMPDEST POP DUP1 PUSH1 0x4 DUP2 SWAP1 SSTORE POP PUSH3 0x10E PUSH1 0x40 MLOAD DUP1 PUSH1 0x40 ADD PUSH1 0x40 MSTORE DUP1 PUSH1 0x11 DUP2 MSTORE PUSH1 0x20 ADD PUSH32 0x4E6F206C6971756964697479206C6F636B000000000000000000000000000000 DUP2 MSTORE POP PUSH1 0x50 PUSH3 0x36D PUSH1 0x20 SHL PUSH1 0x20 SHR JUMP JUMPDEST PUSH3 0x156 PUSH1 0x40 MLOAD DUP1 PUSH1 0x40 ADD PUSH1 0x40 MSTORE DUP1 PUSH1 0x1F DUP2 MSTORE PUSH1 0x20 ADD PUSH32 0x4F776E65722063616E206D696E7420756E6C696D6974656420746F6B656E7300 DUP2 MSTORE POP PUSH1 0x5A PUSH3 0x36D PUSH1 0x20 SHL PUSH1 0x20 SHR JUMP JUMPDEST PUSH3 0x19E PUSH1 0x40 MLOAD DUP1 PUSH1 0x40 ADD PUSH1 0x40 MSTORE DUP1 PUSH1 0x15 DUP2 MSTORE PUSH1 0x20 ADD PUSH32 0x48696464656E206D696E742066756E6374696F6E730000000000000000000000 DUP2 MSTORE POP PUSH1 0x5F PUSH3 0x36D PUSH1 0x20 SHL PUSH1 0x20 SHR JUMP JUMPDEST PUSH3 0x1E6 PUSH1 0x40 MLOAD DUP1 PUSH1 0x40 ADD PUSH1 0x40 MSTORE DUP1 PUSH1 0x13 DUP2 MSTORE PUSH1 0x20 ADD PUSH32 0x426C61636B6C6973742066756E6374696F6E7300000000000000000000000000 DUP2 MSTORE POP PUSH1 0x3C PUSH3 0x36D PUSH1 0x20 SHL PUSH1 0x20 SHR JUMP JUMPDEST PUSH3 0x22E PUSH1 0x40 MLOAD DUP1 PUSH1 0x40 ADD PUSH1 0x40 MSTORE DUP1 PUSH1 0x16 DUP2 MSTORE PUSH1 0x20 ADD PUSH32 0x5472616E736665722066656573206F7665722031302500000000000000000000 DUP2 MSTORE POP PUSH1 0x46 PUSH3 0x36D PUSH1 0x20 SHL PUSH1 0x20 SHR JUMP JUMPDEST PUSH3 0x276 PUSH1 0x40 MLOAD DUP1 PUSH1 0x40 ADD PUSH1 0x40 MSTORE DUP1 PUSH1 0x17 DUP2 MSTORE PUSH1 0x20 ADD PUSH32 0x4F776E65722063616E2070617573652074726164696E67000000000000000000 DUP2 MSTORE POP PUSH1 0x4B PUSH3 0x36D PUSH1 0x20 SHL PUSH1 0x20 SHR JUMP JUMPDEST PUSH3 0x2A2 PUSH1 0x40 MLOAD DUP1 PUSH1 0x60 ADD PUSH1 0x40 MSTORE DUP1 PUSH1 0x25 DUP2 MSTORE PUSH1 0x20 ADD PUSH3 0x2E2E PUSH1 0x25 SWAP2 CODECOPY PUSH1 0x32 PUSH3 0x36D PUSH1 0x20 SHL PUSH1 0x20 SHR JUMP JUMPDEST POP PUSH3 0xA88 JUMP JUMPDEST PUSH1 0x0 DUP1 PUSH1 0x0 SWAP1 SLOAD SWAP1 PUSH2 0x100 EXP SWAP1 DIV PUSH20 0xFFFFFFFFFFFFFFFFFFFFFFFFFFFFFFFFFFFFFFFF AND SWAP1 POP DUP2 PUSH1 0x0 DUP1 PUSH2 0x100 EXP DUP2 SLOAD DUP2 PUSH20 0xFFFFFFFFFFFFFFFFFFFFFFFFFFFFFFFFFFFFFFFF MUL NOT AND SWAP1 DUP4 PUSH20 0xFFFFFFFFFFFFFFFFFFFFFFFFFFFFFFFFFFFFFFFF AND MUL OR SWAP1 SSTORE POP DUP2 PUSH20 0xFFFFFFFFFFFFFFFFFFFFFFFFFFFFFFFFFFFFFFFF AND DUP2 PUSH20 0xFFFFFFFFFFFFFFFFFFFFFFFFFFFFFFFFFFFFFFFF AND PUSH32 0x8BE0079C531659141344CD1FD0A4F28419497F9722A3DAAFE3B4186F6B6457E0 PUSH1 0x40 MLOAD PUSH1 0x40 MLOAD DUP1 SWAP2 SUB SWAP1 LOG3 POP POP JUMP JUMPDEST PUSH1 0x2 DUP3 PUSH1 0x40 MLOAD PUSH3 0x37F SWAP2 SWAP1 PUSH3 0x609 JUMP JUMPDEST SWAP1 DUP2 MSTORE PUSH1 0x20 ADD PUSH1 0x40 MLOAD DUP1 SWAP2 SUB SWAP1 KECCAK256 PUSH1 0x0 ADD PUSH1 0x0 SWAP1 SLOAD SWAP1 PUSH2 0x100 EXP SWAP1 DIV PUSH1 0xFF AND ISZERO PUSH3 0x3E1 JUMPI PUSH1 0x40 MLOAD PUSH32 0x8C379A000000000000000000000000000000000000000000000000000000000 DUP2 MSTORE PUSH1 0x4 ADD PUSH3 0x3D8 SWAP1 PUSH3 0x683 JUMP JUMPDEST PUSH1 0x40 MLOAD DUP1 SWAP2 SUB SWAP1 REVERT JUMPDEST PUSH1 0x40 MLOAD DUP1 PUSH1 0x40 ADD PUSH1 0x40 MSTORE DUP1 PUSH1 0x1 ISZERO ISZERO DUP2 MSTORE PUSH1 0x20 ADD DUP3 DUP2 MSTORE POP PUSH1 0x2 DUP4 PUSH1 0x40 MLOAD PUSH3 0x40B SWAP2 SWAP1 PUSH3 0x609 JUMP JUMPDEST SWAP1 DUP2 MSTORE PUSH1 0x20 ADD PUSH1 0x40 MLOAD DUP1 SWAP2 SUB SWAP1 KECCAK256 PUSH1 0x0 DUP3 ADD MLOAD DUP2 PUSH1 0x0 ADD PUSH1 0x0 PUSH2 0x100 EXP DUP2 SLOAD DUP2 PUSH1 0xFF MUL NOT AND SWAP1 DUP4 ISZERO ISZERO MUL OR SWAP1 SSTORE POP PUSH1 0x20 DUP3 ADD MLOAD DUP2 PUSH1 0x1 ADD SSTORE SWAP1 POP POP PUSH1 0x3 DUP3 SWAP1 DUP1 PUSH1 0x1 DUP2 SLOAD ADD DUP1 DUP3 SSTORE DUP1 SWAP2 POP POP PUSH1 0x1 SWAP1 SUB SWAP1 PUSH1 0x0 MSTORE PUSH1 0x20 PUSH1 0x0 KECCAK256 ADD PUSH1 0x0 SWAP1 SWAP2 SWAP1 SWAP2 SWAP1 SWAP2 POP SWAP1 DUP2 PUSH3 0x47C SWAP2 SWAP1 PUSH3 0x90A JUMP JUMPDEST POP PUSH32 0xD68DB30CF75EB83241D742163152D5C0A08D1F75A3E4397FD220F5CD44A01FB1 DUP3 DUP3 PUSH1 0x40 MLOAD PUSH3 0x4B0 SWAP3 SWAP2 SWAP1 PUSH3 0xA54 JUMP JUMPDEST PUSH1 0x40 MLOAD DUP1 SWAP2 SUB SWAP1 LOG1 POP POP JUMP JUMPDEST PUSH1 0x0 DUP1 REVERT JUMPDEST PUSH1 0x0 DUP2 SWAP1 POP SWAP2 SWAP1 POP JUMP JUMPDEST PUSH3 0x4D6 DUP2 PUSH3 0x4C1 JUMP JUMPDEST DUP2 EQ PUSH3 0x4E2 JUMPI PUSH1 0x0 DUP1 REVERT JUMPDEST POP JUMP JUMPDEST PUSH1 0x0 DUP2 MLOAD SWAP1 POP PUSH3 0x4F6 DUP2 PUSH3 0x4CB JUMP JUMPDEST SWAP3 SWAP2 POP POP JUMP JUMPDEST PUSH1 0x0 PUSH1 0x20 DUP3 DUP5 SUB SLT ISZERO PUSH3 0x515 JUMPI PUSH3 0x514 PUSH3 0x4BC JUMP JUMPDEST JUMPDEST PUSH1 0x0 PUSH3 0x525 DUP5 DUP3 DUP6 ADD PUSH3 0x4E5 JUMP JUMPDEST SWAP2 POP POP SWAP3 SWAP2 POP POP JUMP JUMPDEST PUSH1 0x0 PUSH20 0xFFFFFFFFFFFFFFFFFFFFFFFFFFFFFFFFFFFFFFFF DUP3 AND SWAP1 POP SWAP2 SWAP1 POP JUMP JUMPDEST PUSH1 0x0 PUSH3 0x55B DUP3 PUSH3 0x52E JUMP JUMPDEST SWAP1 POP SWAP2 SWAP1 POP JUMP JUMPDEST PUSH3 0x56D DUP2 PUSH3 0x54E JUMP JUMPDEST DUP3 MSTORE POP POP JUMP JUMPDEST PUSH1 0x0 PUSH1 0x20 DUP3 ADD SWAP1 POP PUSH3 0x58A PUSH1 0x0 DUP4 ADD DUP5 PUSH3 0x562 JUMP JUMPDEST SWAP3 SWAP2 POP POP JUMP JUMPDEST PUSH1 0x0 DUP2 MLOAD SWAP1 POP SWAP2 SWAP1 POP JUMP JUMPDEST PUSH1 0x0 DUP2 SWAP1 POP SWAP3 SWAP2 POP POP JUMP JUMPDEST PUSH1 0x0 JUMPDEST DUP4 DUP2 LT ISZERO PUSH3 0x5C6 JUMPI DUP1 DUP3 ADD MLOAD DUP2 DUP5 ADD MSTORE PUSH1 0x20 DUP2 ADD SWAP1 POP PUSH3 0x5A9 JUMP JUMPDEST PUSH1 0x0 DUP5 DUP5 ADD MSTORE POP POP POP POP JUMP JUMPDEST PUSH1 0x0 PUSH3 0x5DF DUP3 PUSH3 0x590 JUMP JUMPDEST PUSH3 0x5EB DUP2 DUP6 PUSH3 0x59B JUMP JUMPDEST SWAP4 POP PUSH3 0x5FD DUP2 DUP6 PUSH1 0x20 DUP7 ADD PUSH3 0x5A6 JUMP JUMPDEST DUP1 DUP5 ADD SWAP2 POP POP SWAP3 SWAP2 POP POP JUMP JUMPDEST PUSH1 0x0 PUSH3 0x617 DUP3 DUP5 PUSH3 0x5D2 JUMP JUMPDEST SWAP2 POP DUP2 SWAP1 POP SWAP3 SWAP2 POP POP JUMP JUMPDEST PUSH1 0x0 DUP3 DUP3 MSTORE PUSH1 0x20 DUP3 ADD SWAP1 POP SWAP3 SWAP2 POP POP JUMP JUMPDEST PUSH32 0x5269736B20666163746F7220616C726561647920657869737473000000000000 PUSH1 0x0 DUP3 ADD MSTORE POP JUMP JUMPDEST PUSH1 0x0 PUSH3 0x66B PUSH1 0x1A DUP4 PUSH3 0x622 JUMP JUMPDEST SWAP2 POP PUSH3 0x678 DUP3 PUSH3 0x633 JUMP JUMPDEST PUSH1 0x20 DUP3 ADD SWAP1 POP SWAP2 SWAP1 POP JUMP JUMPDEST PUSH1 0x0 PUSH1 0x20 DUP3 ADD SWAP1 POP DUP2 DUP2 SUB PUSH1 0x0 DUP4 ADD MSTORE PUSH3 0x69E DUP2 PUSH3 0x65C JUMP JUMPDEST SWAP1 POP SWAP2 SWAP1 POP JUMP JUMPDEST PUSH32 0x4E487B7100000000000000000000000000000000000000000000000000000000 PUSH1 0x0 MSTORE PUSH1 0x41 PUSH1 0x4 MSTORE PUSH1 0x24 PUSH1 0x0 REVERT JUMPDEST PUSH32 0x4E487B7100000000000000000000000000000000000000000000000000000000 PUSH1 0x0 MSTORE PUSH1 0x22 PUSH1 0x4 MSTORE PUSH1 0x24 PUSH1 0x0 REVERT JUMPDEST PUSH1 0x0 PUSH1 0x2 DUP3 DIV SWAP1 POP PUSH1 0x1 DUP3 AND DUP1 PUSH3 0x71C JUMPI PUSH1 0x7F DUP3 AND SWAP2 POP JUMPDEST PUSH1 0x20 DUP3 LT DUP2 SUB PUSH3 0x732 JUMPI PUSH3 0x731 PUSH3 0x6D4 JUMP JUMPDEST JUMPDEST POP SWAP2 SWAP1 POP JUMP JUMPDEST PUSH1 0x0 DUP2 SWAP1 POP DUP2 PUSH1 0x0 MSTORE PUSH1 0x20 PUSH1 0x0 KECCAK256 SWAP1 POP SWAP2 SWAP1 POP JUMP JUMPDEST PUSH1 0x0 PUSH1 0x20 PUSH1 0x1F DUP4 ADD DIV SWAP1 POP SWAP2 SWAP1 POP JUMP JUMPDEST PUSH1 0x0 DUP3 DUP3 SHL SWAP1 POP SWAP3 SWAP2 POP POP JUMP JUMPDEST PUSH1 0x0 PUSH1 0x8 DUP4 MUL PUSH3 0x79C PUSH32 0xFFFFFFFFFFFFFFFFFFFFFFFFFFFFFFFFFFFFFFFFFFFFFFFFFFFFFFFFFFFFFFFF DUP3 PUSH3 0x75D JUMP JUMPDEST PUSH3 0x7A8 DUP7 DUP4 PUSH3 0x75D JUMP JUMPDEST SWAP6 POP DUP1 NOT DUP5 AND SWAP4 POP DUP1 DUP7 AND DUP5 OR SWAP3 POP POP POP SWAP4 SWAP3 POP POP POP JUMP JUMPDEST PUSH1 0x0 DUP2 SWAP1 POP SWAP2 SWAP1 POP JUMP JUMPDEST PUSH1 0x0 PUSH3 0x7EB PUSH3 0x7E5 PUSH3 0x7DF DUP5 PUSH3 0x4C1 JUMP JUMPDEST PUSH3 0x7C0 JUMP JUMPDEST PUSH3 0x4C1 JUMP JUMPDEST SWAP1 POP SWAP2 SWAP1 POP JUMP JUMPDEST PUSH1 0x0 DUP2 SWAP1 POP SWAP2 SWAP1 POP JUMP JUMPDEST PUSH3 0x807 DUP4 PUSH3 0x7CA JUMP JUMPDEST PUSH3 0x81F PUSH3 0x816 DUP3 PUSH3 0x7F2 JUMP JUMPDEST DUP5 DUP5 SLOAD PUSH3 0x76A JUMP JUMPDEST DUP3 SSTORE POP POP POP POP JUMP JUMPDEST PUSH1 0x0 SWAP1 JUMP JUMPDEST PUSH3 0x836 PUSH3 0x827 JUMP JUMPDEST PUSH3 0x843 DUP2 DUP5 DUP5 PUSH3 0x7FC JUMP JUMPDEST POP POP POP JUMP JUMPDEST JUMPDEST DUP2 DUP2 LT ISZERO PUSH3 0x86B JUMPI PUSH3 0x85F PUSH1 0x0 DUP3 PUSH3 0x82C JUMP JUMPDEST PUSH1 0x1 DUP2 ADD SWAP1 POP PUSH3 0x849 JUMP JUMPDEST POP POP JUMP JUMPDEST PUSH1 0x1F DUP3 GT ISZERO PUSH3 0x8BA JUMPI PUSH3 0x884 DUP2 PUSH3 0x738 JUMP JUMPDEST PUSH3 0x88F DUP5 PUSH3 0x74D JUMP JUMPDEST DUP2 ADD PUSH1 0x20 DUP6 LT ISZERO PUSH3 0x89F JUMPI DUP2 SWAP1 POP JUMPDEST PUSH3 0x8B7 PUSH3 0x8AE DUP6 PUSH3 0x74D JUMP JUMPDEST DUP4 ADD DUP3 PUSH3 0x848 JUMP JUMPDEST POP POP JUMPDEST POP POP POP JUMP JUMPDEST PUSH1 0x0 DUP3 DUP3 SHR SWAP1 POP SWAP3 SWAP2 POP POP JUMP JUMPDEST PUSH1 0x0 PUSH3 0x8DF PUSH1 0x0 NOT DUP5 PUSH1 0x8 MUL PUSH3 0x8BF JUMP JUMPDEST NOT DUP1 DUP4 AND SWAP2 POP POP SWAP3 SWAP2 POP POP JUMP JUMPDEST PUSH1 0x0 PUSH3 0x8FA DUP4 DUP4 PUSH3 0x8CC JUMP JUMPDEST SWAP2 POP DUP3 PUSH1 0x2 MUL DUP3 OR SWAP1 POP SWAP3 SWAP2 POP POP JUMP JUMPDEST PUSH3 0x915 DUP3 PUSH3 0x590 JUMP JUMPDEST PUSH8 0xFFFFFFFFFFFFFFFF DUP2 GT ISZERO PUSH3 0x931 JUMPI PUSH3 0x930 PUSH3 0x6A5 JUMP JUMPDEST JUMPDEST PUSH3 0x93D DUP3 SLOAD PUSH3 0x703 JUMP JUMPDEST PUSH3 0x94A DUP3 DUP3 DUP6 PUSH3 0x86F JUMP JUMPDEST PUSH1 0x0 PUSH1 0x20 SWAP1 POP PUSH1 0x1F DUP4 GT PUSH1 0x1 DUP2 EQ PUSH3 0x982 JUMPI PUSH1 0x0 DUP5 ISZERO PUSH3 0x96D JUMPI DUP3 DUP8 ADD MLOAD SWAP1 POP JUMPDEST PUSH3 0x979 DUP6 DUP3 PUSH3 0x8EC JUMP JUMPDEST DUP7 SSTORE POP PUSH3 0x9E9 JUMP JUMPDEST PUSH1 0x1F NOT DUP5 AND PUSH3 0x992 DUP7 PUSH3 0x738 JUMP JUMPDEST PUSH1 0x0 JUMPDEST DUP3 DUP2 LT ISZERO PUSH3 0x9BC JUMPI DUP5 DUP10 ADD MLOAD DUP3 SSTORE PUSH1 0x1 DUP3 ADD SWAP2 POP PUSH1 0x20 DUP6 ADD SWAP5 POP PUSH1 0x20 DUP2 ADD SWAP1 POP PUSH3 0x995 JUMP JUMPDEST DUP7 DUP4 LT ISZERO PUSH3 0x9DC JUMPI DUP5 DUP10 ADD MLOAD PUSH3 0x9D8 PUSH1 0x1F DUP10 AND DUP3 PUSH3 0x8CC JUMP JUMPDEST DUP4 SSTORE POP JUMPDEST PUSH1 0x1 PUSH1 0x2 DUP9 MUL ADD DUP9 SSTORE POP POP POP JUMPDEST POP POP POP POP POP POP JUMP JUMPDEST PUSH1 0x0 PUSH1 0x1F NOT PUSH1 0x1F DUP4 ADD AND SWAP1 POP SWAP2 SWAP1 POP JUMP JUMPDEST PUSH1 0x0 PUSH3 0xA0F DUP3 PUSH3 0x590 JUMP JUMPDEST PUSH3 0xA1B DUP2 DUP6 PUSH3 0x622 JUMP JUMPDEST SWAP4 POP PUSH3 0xA2D DUP2 DUP6 PUSH1 0x20 DUP7 ADD PUSH3 0x5A6 JUMP JUMPDEST PUSH3 0xA38 DUP2 PUSH3 0x9F1 JUMP JUMPDEST DUP5 ADD SWAP2 POP POP SWAP3 SWAP2 POP POP JUMP JUMPDEST PUSH3 0xA4E DUP2 PUSH3 0x4C1 JUMP JUMPDEST DUP3 MSTORE POP POP JUMP JUMPDEST PUSH1 0x0 PUSH1 0x40 DUP3 ADD SWAP1 POP DUP2 DUP2 SUB PUSH1 0x0 DUP4 ADD MSTORE PUSH3 0xA70 DUP2 DUP6 PUSH3 0xA02 JUMP JUMPDEST SWAP1 POP PUSH3 0xA81 PUSH1 0x20 DUP4 ADD DUP5 PUSH3 0xA43 JUMP JUMPDEST SWAP4 SWAP3 POP POP POP JUMP JUMPDEST PUSH2 0x2396 DUP1 PUSH3 0xA98 PUSH1 0x0 CODECOPY PUSH1 0x0 RETURN INVALID PUSH1 0x80 PUSH1 0x40 MSTORE CALLVALUE DUP1 ISZERO PUSH2 0x10 JUMPI PUSH1 0x0 DUP1 REVERT JUMPDEST POP PUSH1 0x4 CALLDATASIZE LT PUSH2 0x100 JUMPI PUSH1 0x0 CALLDATALOAD PUSH1 0xE0 SHR DUP1 PUSH4 0x8B694903 GT PUSH2 0x97 JUMPI DUP1 PUSH4 0xB4535F7C GT PUSH2 0x66 JUMPI DUP1 PUSH4 0xB4535F7C EQ PUSH2 0x28C JUMPI DUP1 PUSH4 0xCBDB19C8 EQ PUSH2 0x2BC JUMPI DUP1 PUSH4 0xF2FDE38B EQ PUSH2 0x2D8 JUMPI DUP1 PUSH4 0xFC691CE5 EQ PUSH2 0x2F4 JUMPI PUSH2 0x100 JUMP JUMPDEST DUP1 PUSH4 0x8B694903 EQ PUSH2 0x206 JUMPI DUP1 PUSH4 0x8DA5CB5B EQ PUSH2 0x222 JUMPI DUP1 PUSH4 0x8FDB8EFA EQ PUSH2 0x240 JUMPI DUP1 PUSH4 0xAA51B86F EQ PUSH2 0x270 JUMPI PUSH2 0x100 JUMP JUMPDEST DUP1 PUSH4 0x57EA5CF2 GT PUSH2 0xD3 JUMPI DUP1 PUSH4 0x57EA5CF2 EQ PUSH2 0x1A6 JUMPI DUP1 PUSH4 0x64EA5DB4 EQ PUSH2 0x1C4 JUMPI DUP1 PUSH4 0x715018A6 EQ PUSH2 0x1E0 JUMPI DUP1 PUSH4 0x716E0EFE EQ PUSH2 0x1EA JUMPI PUSH2 0x100 JUMP JUMPDEST DUP1 PUSH4 0x22ED3F8F EQ PUSH2 0x105 JUMPI DUP1 PUSH4 0x3EE929CE EQ PUSH2 0x139 JUMPI DUP1 PUSH4 0x410D4ED8 EQ PUSH2 0x16A JUMPI DUP1 PUSH4 0x42D2FF71 EQ PUSH2 0x188 JUMPI JUMPDEST PUSH1 0x0 DUP1 REVERT JUMPDEST PUSH2 0x11F PUSH1 0x4 DUP1 CALLDATASIZE SUB DUP2 ADD SWAP1 PUSH2 0x11A SWAP2 SWAP1 PUSH2 0x12EC JUMP JUMPDEST PUSH2 0x327 JUMP JUMPDEST PUSH1 0x40 MLOAD PUSH2 0x130 SWAP6 SWAP5 SWAP4 SWAP3 SWAP2 SWAP1 PUSH2 0x149F JUMP JUMPDEST PUSH1 0x40 MLOAD DUP1 SWAP2 SUB SWAP1 RETURN JUMPDEST PUSH2 0x153 PUSH1 0x4 DUP1 CALLDATASIZE SUB DUP2 ADD SWAP1 PUSH2 0x14E SWAP2 SWAP1 PUSH2 0x162E JUMP JUMPDEST PUSH2 0x4CD JUMP JUMPDEST PUSH1 0x40 MLOAD PUSH2 0x161 SWAP3 SWAP2 SWAP1 PUSH2 0x1677 JUMP JUMPDEST PUSH1 0x40 MLOAD DUP1 SWAP2 SUB SWAP1 RETURN JUMPDEST PUSH2 0x172 PUSH2 0x514 JUMP JUMPDEST PUSH1 0x40 MLOAD PUSH2 0x17F SWAP2 SWAP1 PUSH2 0x16A0 JUMP JUMPDEST PUSH1 0x40 MLOAD DUP1 SWAP2 SUB SWAP1 RETURN JUMPDEST PUSH2 0x190 PUSH2 0x51A JUMP JUMPDEST PUSH1 0x40 MLOAD PUSH2 0x19D SWAP2 SWAP1 PUSH2 0x16BB JUMP JUMPDEST PUSH1 0x40 MLOAD DUP1 SWAP2 SUB SWAP1 RETURN JUMPDEST PUSH2 0x1AE PUSH2 0x5F3 JUMP JUMPDEST PUSH1 0x40 MLOAD PUSH2 0x1BB SWAP2 SWAP1 PUSH2 0x179B JUMP JUMPDEST PUSH1 0x40 MLOAD DUP1 SWAP2 SUB SWAP1 RETURN JUMPDEST PUSH2 0x1DE PUSH1 0x4 DUP1 CALLDATASIZE SUB DUP2 ADD SWAP1 PUSH2 0x1D9 SWAP2 SWAP1 PUSH2 0x17E9 JUMP JUMPDEST PUSH2 0x681 JUMP JUMPDEST STOP JUMPDEST PUSH2 0x1E8 PUSH2 0x7AA JUMP JUMPDEST STOP JUMPDEST PUSH2 0x204 PUSH1 0x4 DUP1 CALLDATASIZE SUB DUP2 ADD SWAP1 PUSH2 0x1FF SWAP2 SWAP1 PUSH2 0x17E9 JUMP JUMPDEST PUSH2 0x7BE JUMP JUMPDEST STOP JUMPDEST PUSH2 0x220 PUSH1 0x4 DUP1 CALLDATASIZE SUB DUP2 ADD SWAP1 PUSH2 0x21B SWAP2 SWAP1 PUSH2 0x192B JUMP JUMPDEST PUSH2 0x824 JUMP JUMPDEST STOP JUMPDEST PUSH2 0x22A PUSH2 0xAE2 JUMP JUMPDEST PUSH1 0x40 MLOAD PUSH2 0x237 SWAP2 SWAP1 PUSH2 0x1996 JUMP JUMPDEST PUSH1 0x40 MLOAD DUP1 SWAP2 SUB SWAP1 RETURN JUMPDEST PUSH2 0x25A PUSH1 0x4 DUP1 CALLDATASIZE SUB DUP2 ADD SWAP1 PUSH2 0x255 SWAP2 SWAP1 PUSH2 0x19B1 JUMP JUMPDEST PUSH2 0xB0B JUMP JUMPDEST PUSH1 0x40 MLOAD PUSH2 0x267 SWAP2 SWAP1 PUSH2 0x1996 JUMP JUMPDEST PUSH1 0x40 MLOAD DUP1 SWAP2 SUB SWAP1 RETURN JUMPDEST PUSH2 0x28A PUSH1 0x4 DUP1 CALLDATASIZE SUB DUP2 ADD SWAP1 PUSH2 0x285 SWAP2 SWAP1 PUSH2 0x19B1 JUMP JUMPDEST PUSH2 0xB4A JUMP JUMPDEST STOP JUMPDEST PUSH2 0x2A6 PUSH1 0x4 DUP1 CALLDATASIZE SUB DUP2 ADD SWAP1 PUSH2 0x2A1 SWAP2 SWAP1 PUSH2 0x19B1 JUMP JUMPDEST PUSH2 0xBAD JUMP JUMPDEST PUSH1 0x40 MLOAD PUSH2 0x2B3 SWAP2 SWAP1 PUSH2 0x1A28 JUMP JUMPDEST PUSH1 0x40 MLOAD DUP1 SWAP2 SUB SWAP1 RETURN JUMPDEST PUSH2 0x2D6 PUSH1 0x4 DUP1 CALLDATASIZE SUB DUP2 ADD SWAP1 PUSH2 0x2D1 SWAP2 SWAP1 PUSH2 0x162E JUMP JUMPDEST PUSH2 0xC59 JUMP JUMPDEST STOP JUMPDEST PUSH2 0x2F2 PUSH1 0x4 DUP1 CALLDATASIZE SUB DUP2 ADD SWAP1 PUSH2 0x2ED SWAP2 SWAP1 PUSH2 0x12EC JUMP JUMPDEST PUSH2 0xE39 JUMP JUMPDEST STOP JUMPDEST PUSH2 0x30E PUSH1 0x4 DUP1 CALLDATASIZE SUB DUP2 ADD SWAP1 PUSH2 0x309 SWAP2 SWAP1 PUSH2 0x12EC JUMP JUMPDEST PUSH2 0xEBF JUMP JUMPDEST PUSH1 0x40 MLOAD PUSH2 0x31E SWAP5 SWAP4 SWAP3 SWAP2 SWAP1 PUSH2 0x1A4A JUMP JUMPDEST PUSH1 0x40 MLOAD DUP1 SWAP2 SUB SWAP1 RETURN JUMPDEST PUSH1 0x0 DUP1 PUSH1 0x60 PUSH1 0x0 DUP1 PUSH1 0x0 PUSH1 0x1 PUSH1 0x0 DUP9 PUSH20 0xFFFFFFFFFFFFFFFFFFFFFFFFFFFFFFFFFFFFFFFF AND PUSH20 0xFFFFFFFFFFFFFFFFFFFFFFFFFFFFFFFFFFFFFFFF AND DUP2 MSTORE PUSH1 0x20 ADD SWAP1 DUP2 MSTORE PUSH1 0x20 ADD PUSH1 0x0 KECCAK256 PUSH1 0x40 MLOAD DUP1 PUSH1 0xA0 ADD PUSH1 0x40 MSTORE SWAP1 DUP2 PUSH1 0x0 DUP3 ADD PUSH1 0x0 SWAP1 SLOAD SWAP1 PUSH2 0x100 EXP SWAP1 DIV PUSH1 0xFF AND ISZERO ISZERO ISZERO ISZERO DUP2 MSTORE PUSH1 0x20 ADD PUSH1 0x0 DUP3 ADD PUSH1 0x1 SWAP1 SLOAD SWAP1 PUSH2 0x100 EXP SWAP1 DIV PUSH1 0xFF AND ISZERO ISZERO ISZERO ISZERO DUP2 MSTORE PUSH1 0x20 ADD PUSH1 0x1 DUP3 ADD DUP1 SLOAD DUP1 PUSH1 0x20 MUL PUSH1 0x20 ADD PUSH1 0x40 MLOAD SWAP1 DUP2 ADD PUSH1 0x40 MSTORE DUP1 SWAP3 SWAP2 SWAP1 DUP2 DUP2 MSTORE PUSH1 0x20 ADD PUSH1 0x0 SWAP1 JUMPDEST DUP3 DUP3 LT ISZERO PUSH2 0x482 JUMPI DUP4 DUP3 SWAP1 PUSH1 0x0 MSTORE PUSH1 0x20 PUSH1 0x0 KECCAK256 ADD DUP1 SLOAD PUSH2 0x3F5 SWAP1 PUSH2 0x1ABE JUMP JUMPDEST DUP1 PUSH1 0x1F ADD PUSH1 0x20 DUP1 SWAP2 DIV MUL PUSH1 0x20 ADD PUSH1 0x40 MLOAD SWAP1 DUP2 ADD PUSH1 0x40 MSTORE DUP1 SWAP3 SWAP2 SWAP1 DUP2 DUP2 MSTORE PUSH1 0x20 ADD DUP3 DUP1 SLOAD PUSH2 0x421 SWAP1 PUSH2 0x1ABE JUMP JUMPDEST DUP1 ISZERO PUSH2 0x46E JUMPI DUP1 PUSH1 0x1F LT PUSH2 0x443 JUMPI PUSH2 0x100 DUP1 DUP4 SLOAD DIV MUL DUP4 MSTORE SWAP2 PUSH1 0x20 ADD SWAP2 PUSH2 0x46E JUMP JUMPDEST DUP3 ADD SWAP2 SWAP1 PUSH1 0x0 MSTORE PUSH1 0x20 PUSH1 0x0 KECCAK256 SWAP1 JUMPDEST DUP2 SLOAD DUP2 MSTORE SWAP1 PUSH1 0x1 ADD SWAP1 PUSH1 0x20 ADD DUP1 DUP4 GT PUSH2 0x451 JUMPI DUP3 SWAP1 SUB PUSH1 0x1F AND DUP3 ADD SWAP2 JUMPDEST POP POP POP POP POP DUP2 MSTORE PUSH1 0x20 ADD SWAP1 PUSH1 0x1 ADD SWAP1 PUSH2 0x3D6 JUMP JUMPDEST POP POP POP POP DUP2 MSTORE PUSH1 0x20 ADD PUSH1 0x2 DUP3 ADD SLOAD DUP2 MSTORE PUSH1 0x20 ADD PUSH1 0x3 DUP3 ADD SLOAD DUP2 MSTORE POP POP SWAP1 POP DUP1 PUSH1 0x0 ADD MLOAD DUP2 PUSH1 0x20 ADD MLOAD DUP3 PUSH1 0x40 ADD MLOAD DUP4 PUSH1 0x60 ADD MLOAD DUP5 PUSH1 0x80 ADD MLOAD SWAP6 POP SWAP6 POP SWAP6 POP SWAP6 POP SWAP6 POP POP SWAP2 SWAP4 SWAP6 SWAP1 SWAP3 SWAP5 POP JUMP JUMPDEST PUSH1 0x2 DUP2 DUP1 MLOAD PUSH1 0x20 DUP2 ADD DUP3 ADD DUP1 MLOAD DUP5 DUP3 MSTORE PUSH1 0x20 DUP4 ADD PUSH1 0x20 DUP6 ADD KECCAK256 DUP2 DUP4 MSTORE DUP1 SWAP6 POP POP POP POP POP POP PUSH1 0x0 SWAP2 POP SWAP1 POP DUP1 PUSH1 0x0 ADD PUSH1 0x0 SWAP1 SLOAD SWAP1 PUSH2 0x100 EXP SWAP1 DIV PUSH1 0xFF AND SWAP1 DUP1 PUSH1 0x1 ADD SLOAD SWAP1 POP DUP3 JUMP JUMPDEST PUSH1 0x4 SLOAD DUP2 JUMP JUMPDEST PUSH1 0x60 PUSH1 0x3 DUP1 SLOAD DUP1 PUSH1 0x20 MUL PUSH1 0x20 ADD PUSH1 0x40 MLOAD SWAP1 DUP2 ADD PUSH1 0x40 MSTORE DUP1 SWAP3 SWAP2 SWAP1 DUP2 DUP2 MSTORE PUSH1 0x20 ADD PUSH1 0x0 SWAP1 JUMPDEST DUP3 DUP3 LT ISZERO PUSH2 0x5EA JUMPI DUP4 DUP3 SWAP1 PUSH1 0x0 MSTORE PUSH1 0x20 PUSH1 0x0 KECCAK256 ADD DUP1 SLOAD PUSH2 0x55D SWAP1 PUSH2 0x1ABE JUMP JUMPDEST DUP1 PUSH1 0x1F ADD PUSH1 0x20 DUP1 SWAP2 DIV MUL PUSH1 0x20 ADD PUSH1 0x40 MLOAD SWAP1 DUP2 ADD PUSH1 0x40 MSTORE DUP1 SWAP3 SWAP2 SWAP1 DUP2 DUP2 MSTORE PUSH1 0x20 ADD DUP3 DUP1 SLOAD PUSH2 0x589 SWAP1 PUSH2 0x1ABE JUMP JUMPDEST DUP1 ISZERO PUSH2 0x5D6 JUMPI DUP1 PUSH1 0x1F LT PUSH2 0x5AB JUMPI PUSH2 0x100 DUP1 DUP4 SLOAD DIV MUL DUP4 MSTORE SWAP2 PUSH1 0x20 ADD SWAP2 PUSH2 0x5D6 JUMP JUMPDEST DUP3 ADD SWAP2 SWAP1 PUSH1 0x0 MSTORE PUSH1 0x20 PUSH1 0x0 KECCAK256 SWAP1 JUMPDEST DUP2 SLOAD DUP2 MSTORE SWAP1 PUSH1 0x1 ADD SWAP1 PUSH1 0x20 ADD DUP1 DUP4 GT PUSH2 0x5B9 JUMPI DUP3 SWAP1 SUB PUSH1 0x1F AND DUP3 ADD SWAP2 JUMPDEST POP POP POP POP POP DUP2 MSTORE PUSH1 0x20 ADD SWAP1 PUSH1 0x1 ADD SWAP1 PUSH2 0x53E JUMP JUMPDEST POP POP POP POP SWAP1 POP SWAP1 JUMP JUMPDEST PUSH1 0x60 PUSH1 0x5 DUP1 SLOAD DUP1 PUSH1 0x20 MUL PUSH1 0x20 ADD PUSH1 0x40 MLOAD SWAP1 DUP2 ADD PUSH1 0x40 MSTORE DUP1 SWAP3 SWAP2 SWAP1 DUP2 DUP2 MSTORE PUSH1 0x20 ADD DUP3 DUP1 SLOAD DUP1 ISZERO PUSH2 0x677 JUMPI PUSH1 0x20 MUL DUP3 ADD SWAP2 SWAP1 PUSH1 0x0 MSTORE PUSH1 0x20 PUSH1 0x0 KECCAK256 SWAP1 JUMPDEST DUP2 PUSH1 0x0 SWAP1 SLOAD SWAP1 PUSH2 0x100 EXP SWAP1 DIV PUSH20 0xFFFFFFFFFFFFFFFFFFFFFFFFFFFFFFFFFFFFFFFF AND PUSH20 0xFFFFFFFFFFFFFFFFFFFFFFFFFFFFFFFFFFFFFFFF AND DUP2 MSTORE PUSH1 0x20 ADD SWAP1 PUSH1 0x1 ADD SWAP1 DUP1 DUP4 GT PUSH2 0x62D JUMPI JUMPDEST POP POP POP POP POP SWAP1 POP SWAP1 JUMP JUMPDEST PUSH2 0x689 PUSH2 0xF09 JUMP JUMPDEST PUSH1 0x2 DUP3 PUSH1 0x40 MLOAD PUSH2 0x699 SWAP2 SWAP1 PUSH2 0x1B2B JUMP JUMPDEST SWAP1 DUP2 MSTORE PUSH1 0x20 ADD PUSH1 0x40 MLOAD DUP1 SWAP2 SUB SWAP1 KECCAK256 PUSH1 0x0 ADD PUSH1 0x0 SWAP1 SLOAD SWAP1 PUSH2 0x100 EXP SWAP1 DIV PUSH1 0xFF AND PUSH2 0x6F7 JUMPI PUSH1 0x40 MLOAD PUSH32 0x8C379A000000000000000000000000000000000000000000000000000000000 DUP2 MSTORE PUSH1 0x4 ADD PUSH2 0x6EE SWAP1 PUSH2 0x1B8E JUMP JUMPDEST PUSH1 0x40 MLOAD DUP1 SWAP2 SUB SWAP1 REVERT JUMPDEST PUSH1 0x0 DUP2 GT DUP1 ISZERO PUSH2 0x708 JUMPI POP PUSH1 0x64 DUP2 GT ISZERO JUMPDEST PUSH2 0x747 JUMPI PUSH1 0x40 MLOAD PUSH32 0x8C379A000000000000000000000000000000000000000000000000000000000 DUP2 MSTORE PUSH1 0x4 ADD PUSH2 0x73E SWAP1 PUSH2 0x1BFA JUMP JUMPDEST PUSH1 0x40 MLOAD DUP1 SWAP2 SUB SWAP1 REVERT JUMPDEST DUP1 PUSH1 0x2 DUP4 PUSH1 0x40 MLOAD PUSH2 0x758 SWAP2 SWAP1 PUSH2 0x1B2B JUMP JUMPDEST SWAP1 DUP2 MSTORE PUSH1 0x20 ADD PUSH1 0x40 MLOAD DUP1 SWAP2 SUB SWAP1 KECCAK256 PUSH1 0x1 ADD DUP2 SWAP1 SSTORE POP PUSH32 0xDB50BF4A10B80558195E91DB1785F9950569530ADC147C0163D0D976084E9EEB DUP3 DUP3 PUSH1 0x40 MLOAD PUSH2 0x79E SWAP3 SWAP2 SWAP1 PUSH2 0x1C1A JUMP JUMPDEST PUSH1 0x40 MLOAD DUP1 SWAP2 SUB SWAP1 LOG1 POP POP JUMP JUMPDEST PUSH2 0x7B2 PUSH2 0xF09 JUMP JUMPDEST PUSH2 0x7BC PUSH1 0x0 PUSH2 0xF90 JUMP JUMPDEST JUMP JUMPDEST PUSH2 0x7C6 PUSH2 0xF09 JUMP JUMPDEST PUSH1 0x0 DUP2 GT DUP1 ISZERO PUSH2 0x7D7 JUMPI POP PUSH1 0x64 DUP2 GT ISZERO JUMPDEST PUSH2 0x816 JUMPI PUSH1 0x40 MLOAD PUSH32 0x8C379A000000000000000000000000000000000000000000000000000000000 DUP2 MSTORE PUSH1 0x4 ADD PUSH2 0x80D SWAP1 PUSH2 0x1BFA JUMP JUMPDEST PUSH1 0x40 MLOAD DUP1 SWAP2 SUB SWAP1 REVERT JUMPDEST PUSH2 0x820 DUP3 DUP3 PUSH2 0x1054 JUMP JUMPDEST POP POP JUMP JUMPDEST PUSH2 0x82C PUSH2 0xF09 JUMP JUMPDEST PUSH1 0x0 DUP1 JUMPDEST DUP3 MLOAD DUP2 LT ISZERO PUSH2 0x8D0 JUMPI PUSH1 0x0 DUP4 DUP3 DUP2 MLOAD DUP2 LT PUSH2 0x84E JUMPI PUSH2 0x84D PUSH2 0x1C4A JUMP JUMPDEST JUMPDEST PUSH1 0x20 MUL PUSH1 0x20 ADD ADD MLOAD SWAP1 POP PUSH1 0x2 DUP2 PUSH1 0x40 MLOAD PUSH2 0x868 SWAP2 SWAP1 PUSH2 0x1B2B JUMP JUMPDEST SWAP1 DUP2 MSTORE PUSH1 0x20 ADD PUSH1 0x40 MLOAD DUP1 SWAP2 SUB SWAP1 KECCAK256 PUSH1 0x0 ADD PUSH1 0x0 SWAP1 SLOAD SWAP1 PUSH2 0x100 EXP SWAP1 DIV PUSH1 0xFF AND ISZERO PUSH2 0x8BC JUMPI PUSH1 0x2 DUP2 PUSH1 0x40 MLOAD PUSH2 0x89C SWAP2 SWAP1 PUSH2 0x1B2B JUMP JUMPDEST SWAP1 DUP2 MSTORE PUSH1 0x20 ADD PUSH1 0x40 MLOAD DUP1 SWAP2 SUB SWAP1 KECCAK256 PUSH1 0x1 ADD SLOAD DUP4 PUSH2 0x8B9 SWAP2 SWAP1 PUSH2 0x1CA8 JUMP JUMPDEST SWAP3 POP JUMPDEST POP DUP1 DUP1 PUSH2 0x8C8 SWAP1 PUSH2 0x1CDC JUMP JUMPDEST SWAP2 POP POP PUSH2 0x830 JUMP JUMPDEST POP PUSH1 0x0 DUP3 MLOAD GT ISZERO PUSH2 0x8EB JUMPI DUP2 MLOAD DUP2 PUSH2 0x8E8 SWAP2 SWAP1 PUSH2 0x1D53 JUMP JUMPDEST SWAP1 POP JUMPDEST PUSH1 0x0 PUSH1 0x4 SLOAD DUP3 LT ISZERO SWAP1 POP PUSH1 0x1 PUSH1 0x0 DUP6 PUSH20 0xFFFFFFFFFFFFFFFFFFFFFFFFFFFFFFFFFFFFFFFF AND PUSH20 0xFFFFFFFFFFFFFFFFFFFFFFFFFFFFFFFFFFFFFFFF AND DUP2 MSTORE PUSH1 0x20 ADD SWAP1 DUP2 MSTORE PUSH1 0x20 ADD PUSH1 0x0 KECCAK256 PUSH1 0x0 ADD PUSH1 0x0 SWAP1 SLOAD SWAP1 PUSH2 0x100 EXP SWAP1 DIV PUSH1 0xFF AND PUSH2 0x9AD JUMPI PUSH1 0x5 DUP5 SWAP1 DUP1 PUSH1 0x1 DUP2 SLOAD ADD DUP1 DUP3 SSTORE DUP1 SWAP2 POP POP PUSH1 0x1 SWAP1 SUB SWAP1 PUSH1 0x0 MSTORE PUSH1 0x20 PUSH1 0x0 KECCAK256 ADD PUSH1 0x0 SWAP1 SWAP2 SWAP1 SWAP2 SWAP1 SWAP2 PUSH2 0x100 EXP DUP2 SLOAD DUP2 PUSH20 0xFFFFFFFFFFFFFFFFFFFFFFFFFFFFFFFFFFFFFFFF MUL NOT AND SWAP1 DUP4 PUSH20 0xFFFFFFFFFFFFFFFFFFFFFFFFFFFFFFFFFFFFFFFF AND MUL OR SWAP1 SSTORE POP JUMPDEST PUSH1 0x40 MLOAD DUP1 PUSH1 0xA0 ADD PUSH1 0x40 MSTORE DUP1 PUSH1 0x1 ISZERO ISZERO DUP2 MSTORE PUSH1 0x20 ADD DUP3 ISZERO ISZERO DUP2 MSTORE PUSH1 0x20 ADD DUP5 DUP2 MSTORE PUSH1 0x20 ADD DUP4 DUP2 MSTORE PUSH1 0x20 ADD TIMESTAMP DUP2 MSTORE POP PUSH1 0x1 PUSH1 0x0 DUP7 PUSH20 0xFFFFFFFFFFFFFFFFFFFFFFFFFFFFFFFFFFFFFFFF AND PUSH20 0xFFFFFFFFFFFFFFFFFFFFFFFFFFFFFFFFFFFFFFFF AND DUP2 MSTORE PUSH1 0x20 ADD SWAP1 DUP2 MSTORE PUSH1 0x20 ADD PUSH1 0x0 KECCAK256 PUSH1 0x0 DUP3 ADD MLOAD DUP2 PUSH1 0x0 ADD PUSH1 0x0 PUSH2 0x100 EXP DUP2 SLOAD DUP2 PUSH1 0xFF MUL NOT AND SWAP1 DUP4 ISZERO ISZERO MUL OR SWAP1 SSTORE POP PUSH1 0x20 DUP3 ADD MLOAD DUP2 PUSH1 0x0 ADD PUSH1 0x1 PUSH2 0x100 EXP DUP2 SLOAD DUP2 PUSH1 0xFF MUL NOT AND SWAP1 DUP4 ISZERO ISZERO MUL OR SWAP1 SSTORE POP PUSH1 0x40 DUP3 ADD MLOAD DUP2 PUSH1 0x1 ADD SWAP1 DUP1 MLOAD SWAP1 PUSH1 0x20 ADD SWAP1 PUSH2 0xA74 SWAP3 SWAP2 SWAP1 PUSH2 0x11A0 JUMP JUMPDEST POP PUSH1 0x60 DUP3 ADD MLOAD DUP2 PUSH1 0x2 ADD SSTORE PUSH1 0x80 DUP3 ADD MLOAD DUP2 PUSH1 0x3 ADD SSTORE SWAP1 POP POP DUP4 PUSH20 0xFFFFFFFFFFFFFFFFFFFFFFFFFFFFFFFFFFFFFFFF AND PUSH32 0xF78D15A77505DAC1C4DE5CAC9C2C7AE746DA8E30F2265047A7C77DC5DE77FDE4 DUP3 DUP6 PUSH1 0x40 MLOAD PUSH2 0xAD4 SWAP3 SWAP2 SWAP1 PUSH2 0x1D84 JUMP JUMPDEST PUSH1 0x40 MLOAD DUP1 SWAP2 SUB SWAP1 LOG2 POP POP POP POP JUMP JUMPDEST PUSH1 0x0 DUP1 PUSH1 0x0 SWAP1 SLOAD SWAP1 PUSH2 0x100 EXP SWAP1 DIV PUSH20 0xFFFFFFFFFFFFFFFFFFFFFFFFFFFFFFFFFFFFFFFF AND SWAP1 POP SWAP1 JUMP JUMPDEST PUSH1 0x5 DUP2 DUP2 SLOAD DUP2 LT PUSH2 0xB1B JUMPI PUSH1 0x0 DUP1 REVERT JUMPDEST SWAP1 PUSH1 0x0 MSTORE PUSH1 0x20 PUSH1 0x0 KECCAK256 ADD PUSH1 0x0 SWAP2 POP SLOAD SWAP1 PUSH2 0x100 EXP SWAP1 DIV PUSH20 0xFFFFFFFFFFFFFFFFFFFFFFFFFFFFFFFFFFFFFFFF AND DUP2 JUMP JUMPDEST PUSH2 0xB52 PUSH2 0xF09 JUMP JUMPDEST PUSH1 0x0 DUP2 LT ISZERO DUP1 ISZERO PUSH2 0xB64 JUMPI POP PUSH1 0x64 DUP2 GT ISZERO JUMPDEST PUSH2 0xBA3 JUMPI PUSH1 0x40 MLOAD PUSH32 0x8C379A000000000000000000000000000000000000000000000000000000000 DUP2 MSTORE PUSH1 0x4 ADD PUSH2 0xB9A SWAP1 PUSH2 0x1E26 JUMP JUMPDEST PUSH1 0x40 MLOAD DUP1 SWAP2 SUB SWAP1 REVERT JUMPDEST DUP1 PUSH1 0x4 DUP2 SWAP1 SSTORE POP POP JUMP JUMPDEST PUSH1 0x3 DUP2 DUP2 SLOAD DUP2 LT PUSH2 0xBBD JUMPI PUSH1 0x0 DUP1 REVERT JUMPDEST SWAP1 PUSH1 0x0 MSTORE PUSH1 0x20 PUSH1 0x0 KECCAK256 ADD PUSH1 0x0 SWAP2 POP SWAP1 POP DUP1 SLOAD PUSH2 0xBD8 SWAP1 PUSH2 0x1ABE JUMP JUMPDEST DUP1 PUSH1 0x1F ADD PUSH1 0x20 DUP1 SWAP2 DIV MUL PUSH1 0x20 ADD PUSH1 0x40 MLOAD SWAP1 DUP2 ADD PUSH1 0x40 MSTORE DUP1 SWAP3 SWAP2 SWAP1 DUP2 DUP2 MSTORE PUSH1 0x20 ADD DUP3 DUP1 SLOAD PUSH2 0xC04 SWAP1 PUSH2 0x1ABE JUMP JUMPDEST DUP1 ISZERO PUSH2 0xC51 JUMPI DUP1 PUSH1 0x1F LT PUSH2 0xC26 JUMPI PUSH2 0x100 DUP1 DUP4 SLOAD DIV MUL DUP4 MSTORE SWAP2 PUSH1 0x20 ADD SWAP2 PUSH2 0xC51 JUMP JUMPDEST DUP3 ADD SWAP2 SWAP1 PUSH1 0x0 MSTORE PUSH1 0x20 PUSH1 0x0 KECCAK256 SWAP1 JUMPDEST DUP2 SLOAD DUP2 MSTORE SWAP1 PUSH1 0x1 ADD SWAP1 PUSH1 0x20 ADD DUP1 DUP4 GT PUSH2 0xC34 JUMPI DUP3 SWAP1 SUB PUSH1 0x1F AND DUP3 ADD SWAP2 JUMPDEST POP POP POP POP POP DUP2 JUMP JUMPDEST PUSH2 0xC61 PUSH2 0xF09 JUMP JUMPDEST PUSH1 0x2 DUP2 PUSH1 0x40 MLOAD PUSH2 0xC71 SWAP2 SWAP1 PUSH2 0x1B2B JUMP JUMPDEST SWAP1 DUP2 MSTORE PUSH1 0x20 ADD PUSH1 0x40 MLOAD DUP1 SWAP2 SUB SWAP1 KECCAK256 PUSH1 0x0 ADD PUSH1 0x0 SWAP1 SLOAD SWAP1 PUSH2 0x100 EXP SWAP1 DIV PUSH1 0xFF AND PUSH2 0xCCF JUMPI PUSH1 0x40 MLOAD PUSH32 0x8C379A000000000000000000000000000000000000000000000000000000000 DUP2 MSTORE PUSH1 0x4 ADD PUSH2 0xCC6 SWAP1 PUSH2 0x1B8E JUMP JUMPDEST PUSH1 0x40 MLOAD DUP1 SWAP2 SUB SWAP1 REVERT JUMPDEST PUSH1 0x0 JUMPDEST PUSH1 0x3 DUP1 SLOAD SWAP1 POP DUP2 LT ISZERO PUSH2 0xDC1 JUMPI DUP2 DUP1 MLOAD SWAP1 PUSH1 0x20 ADD KECCAK256 PUSH1 0x3 DUP3 DUP2 SLOAD DUP2 LT PUSH2 0xCFB JUMPI PUSH2 0xCFA PUSH2 0x1C4A JUMP JUMPDEST JUMPDEST SWAP1 PUSH1 0x0 MSTORE PUSH1 0x20 PUSH1 0x0 KECCAK256 ADD PUSH1 0x40 MLOAD PUSH2 0xD12 SWAP2 SWAP1 PUSH2 0x1EE9 JUMP JUMPDEST PUSH1 0x40 MLOAD DUP1 SWAP2 SUB SWAP1 KECCAK256 SUB PUSH2 0xDAE JUMPI PUSH1 0x3 PUSH1 0x1 PUSH1 0x3 DUP1 SLOAD SWAP1 POP PUSH2 0xD33 SWAP2 SWAP1 PUSH2 0x1F00 JUMP JUMPDEST DUP2 SLOAD DUP2 LT PUSH2 0xD44 JUMPI PUSH2 0xD43 PUSH2 0x1C4A JUMP JUMPDEST JUMPDEST SWAP1 PUSH1 0x0 MSTORE PUSH1 0x20 PUSH1 0x0 KECCAK256 ADD PUSH1 0x3 DUP3 DUP2 SLOAD DUP2 LT PUSH2 0xD62 JUMPI PUSH2 0xD61 PUSH2 0x1C4A JUMP JUMPDEST JUMPDEST SWAP1 PUSH1 0x0 MSTORE PUSH1 0x20 PUSH1 0x0 KECCAK256 ADD SWAP1 DUP2 PUSH2 0xD78 SWAP2 SWAP1 PUSH2 0x210B JUMP JUMPDEST POP PUSH1 0x3 DUP1 SLOAD DUP1 PUSH2 0xD8B JUMPI PUSH2 0xD8A PUSH2 0x21F3 JUMP JUMPDEST JUMPDEST PUSH1 0x1 SWAP1 SUB DUP2 DUP2 SWAP1 PUSH1 0x0 MSTORE PUSH1 0x20 PUSH1 0x0 KECCAK256 ADD PUSH1 0x0 PUSH2 0xDA7 SWAP2 SWAP1 PUSH2 0x11F9 JUMP JUMPDEST SWAP1 SSTORE PUSH2 0xDC1 JUMP JUMPDEST DUP1 DUP1 PUSH2 0xDB9 SWAP1 PUSH2 0x1CDC JUMP JUMPDEST SWAP2 POP POP PUSH2 0xCD2 JUMP JUMPDEST POP PUSH1 0x2 DUP2 PUSH1 0x40 MLOAD PUSH2 0xDD2 SWAP2 SWAP1 PUSH2 0x1B2B JUMP JUMPDEST SWAP1 DUP2 MSTORE PUSH1 0x20 ADD PUSH1 0x40 MLOAD DUP1 SWAP2 SUB SWAP1 KECCAK256 PUSH1 0x0 DUP1 DUP3 ADD PUSH1 0x0 PUSH2 0x100 EXP DUP2 SLOAD SWAP1 PUSH1 0xFF MUL NOT AND SWAP1 SSTORE PUSH1 0x1 DUP3 ADD PUSH1 0x0 SWAP1 SSTORE POP POP PUSH32 0xADE49DCEDFF749D125BD467EE7CB240B4D93D6E294FB16574C56C9786B7D35AE DUP2 PUSH1 0x40 MLOAD PUSH2 0xE2E SWAP2 SWAP1 PUSH2 0x1A28 JUMP JUMPDEST PUSH1 0x40 MLOAD DUP1 SWAP2 SUB SWAP1 LOG1 POP JUMP JUMPDEST PUSH2 0xE41 PUSH2 0xF09 JUMP JUMPDEST PUSH1 0x0 PUSH20 0xFFFFFFFFFFFFFFFFFFFFFFFFFFFFFFFFFFFFFFFF AND DUP2 PUSH20 0xFFFFFFFFFFFFFFFFFFFFFFFFFFFFFFFFFFFFFFFF AND SUB PUSH2 0xEB3 JUMPI PUSH1 0x0 PUSH1 0x40 MLOAD PUSH32 0x1E4FBDF700000000000000000000000000000000000000000000000000000000 DUP2 MSTORE PUSH1 0x4 ADD PUSH2 0xEAA SWAP2 SWAP1 PUSH2 0x1996 JUMP JUMPDEST PUSH1 0x40 MLOAD DUP1 SWAP2 SUB SWAP1 REVERT JUMPDEST PUSH2 0xEBC DUP2 PUSH2 0xF90 JUMP JUMPDEST POP JUMP JUMPDEST PUSH1 0x1 PUSH1 0x20 MSTORE DUP1 PUSH1 0x0 MSTORE PUSH1 0x40 PUSH1 0x0 KECCAK256 PUSH1 0x0 SWAP2 POP SWAP1 POP DUP1 PUSH1 0x0 ADD PUSH1 0x0 SWAP1 SLOAD SWAP1 PUSH2 0x100 EXP SWAP1 DIV PUSH1 0xFF AND SWAP1 DUP1 PUSH1 0x0 ADD PUSH1 0x1 SWAP1 SLOAD SWAP1 PUSH2 0x100 EXP SWAP1 DIV PUSH1 0xFF AND SWAP1 DUP1 PUSH1 0x2 ADD SLOAD SWAP1 DUP1 PUSH1 0x3 ADD SLOAD SWAP1 POP DUP5 JUMP JUMPDEST PUSH2 0xF11 PUSH2 0x1198 JUMP JUMPDEST PUSH20 0xFFFFFFFFFFFFFFFFFFFFFFFFFFFFFFFFFFFFFFFF AND PUSH2 0xF2F PUSH2 0xAE2 JUMP JUMPDEST PUSH20 0xFFFFFFFFFFFFFFFFFFFFFFFFFFFFFFFFFFFFFFFF AND EQ PUSH2 0xF8E JUMPI PUSH2 0xF52 PUSH2 0x1198 JUMP JUMPDEST PUSH1 0x40 MLOAD PUSH32 0x118CDAA700000000000000000000000000000000000000000000000000000000 DUP2 MSTORE PUSH1 0x4 ADD PUSH2 0xF85 SWAP2 SWAP1 PUSH2 0x1996 JUMP JUMPDEST PUSH1 0x40 MLOAD DUP1 SWAP2 SUB SWAP1 REVERT JUMPDEST JUMP JUMPDEST PUSH1 0x0 DUP1 PUSH1 0x0 SWAP1 SLOAD SWAP1 PUSH2 0x100 EXP SWAP1 DIV PUSH20 0xFFFFFFFFFFFFFFFFFFFFFFFFFFFFFFFFFFFFFFFF AND SWAP1 POP DUP2 PUSH1 0x0 DUP1 PUSH2 0x100 EXP DUP2 SLOAD DUP2 PUSH20 0xFFFFFFFFFFFFFFFFFFFFFFFFFFFFFFFFFFFFFFFF MUL NOT AND SWAP1 DUP4 PUSH20 0xFFFFFFFFFFFFFFFFFFFFFFFFFFFFFFFFFFFFFFFF AND MUL OR SWAP1 SSTORE POP DUP2 PUSH20 0xFFFFFFFFFFFFFFFFFFFFFFFFFFFFFFFFFFFFFFFF AND DUP2 PUSH20 0xFFFFFFFFFFFFFFFFFFFFFFFFFFFFFFFFFFFFFFFF AND PUSH32 0x8BE0079C531659141344CD1FD0A4F28419497F9722A3DAAFE3B4186F6B6457E0 PUSH1 0x40 MLOAD PUSH1 0x40 MLOAD DUP1 SWAP2 SUB SWAP1 LOG3 POP POP JUMP JUMPDEST PUSH1 0x2 DUP3 PUSH1 0x40 MLOAD PUSH2 0x1064 SWAP2 SWAP1 PUSH2 0x1B2B JUMP JUMPDEST SWAP1 DUP2 MSTORE PUSH1 0x20 ADD PUSH1 0x40 MLOAD DUP1 SWAP2 SUB SWAP1 KECCAK256 PUSH1 0x0 ADD PUSH1 0x0 SWAP1 SLOAD SWAP1 PUSH2 0x100 EXP SWAP1 DIV PUSH1 0xFF AND ISZERO PUSH2 0x10C3 JUMPI PUSH1 0x40 MLOAD PUSH32 0x8C379A000000000000000000000000000000000000000000000000000000000 DUP2 MSTORE PUSH1 0x4 ADD PUSH2 0x10BA SWAP1 PUSH2 0x226E JUMP JUMPDEST PUSH1 0x40 MLOAD DUP1 SWAP2 SUB SWAP1 REVERT JUMPDEST PUSH1 0x40 MLOAD DUP1 PUSH1 0x40 ADD PUSH1 0x40 MSTORE DUP1 PUSH1 0x1 ISZERO ISZERO DUP2 MSTORE PUSH1 0x20 ADD DUP3 DUP2 MSTORE POP PUSH1 0x2 DUP4 PUSH1 0x40 MLOAD PUSH2 0x10EB SWAP2 SWAP1 PUSH2 0x1B2B JUMP JUMPDEST SWAP1 DUP2 MSTORE PUSH1 0x20 ADD PUSH1 0x40 MLOAD DUP1 SWAP2 SUB SWAP1 KECCAK256 PUSH1 0x0 DUP3 ADD MLOAD DUP2 PUSH1 0x0 ADD PUSH1 0x0 PUSH2 0x100 EXP DUP2 SLOAD DUP2 PUSH1 0xFF MUL NOT AND SWAP1 DUP4 ISZERO ISZERO MUL OR SWAP1 SSTORE POP PUSH1 0x20 DUP3 ADD MLOAD DUP2 PUSH1 0x1 ADD SSTORE SWAP1 POP POP PUSH1 0x3 DUP3 SWAP1 DUP1 PUSH1 0x1 DUP2 SLOAD ADD DUP1 DUP3 SSTORE DUP1 SWAP2 POP POP PUSH1 0x1 SWAP1 SUB SWAP1 PUSH1 0x0 MSTORE PUSH1 0x20 PUSH1 0x0 KECCAK256 ADD PUSH1 0x0 SWAP1 SWAP2 SWAP1 SWAP2 SWAP1 SWAP2 POP SWAP1 DUP2 PUSH2 0x115A SWAP2 SWAP1 PUSH2 0x228E JUMP JUMPDEST POP PUSH32 0xD68DB30CF75EB83241D742163152D5C0A08D1F75A3E4397FD220F5CD44A01FB1 DUP3 DUP3 PUSH1 0x40 MLOAD PUSH2 0x118C SWAP3 SWAP2 SWAP1 PUSH2 0x1C1A JUMP JUMPDEST PUSH1 0x40 MLOAD DUP1 SWAP2 SUB SWAP1 LOG1 POP POP JUMP JUMPDEST PUSH1 0x0 CALLER SWAP1 POP SWAP1 JUMP JUMPDEST DUP3 DUP1 SLOAD DUP3 DUP3 SSTORE SWAP1 PUSH1 0x0 MSTORE PUSH1 0x20 PUSH1 0x0 KECCAK256 SWAP1 DUP2 ADD SWAP3 DUP3 ISZERO PUSH2 0x11E8 JUMPI SWAP2 PUSH1 0x20 MUL DUP3 ADD JUMPDEST DUP3 DUP2 GT ISZERO PUSH2 0x11E7 JUMPI DUP3 MLOAD DUP3 SWAP1 DUP2 PUSH2 0x11D7 SWAP2 SWAP1 PUSH2 0x228E JUMP JUMPDEST POP SWAP2 PUSH1 0x20 ADD SWAP2 SWAP1 PUSH1 0x1 ADD SWAP1 PUSH2 0x11C0 JUMP JUMPDEST JUMPDEST POP SWAP1 POP PUSH2 0x11F5 SWAP2 SWAP1 PUSH2 0x1239 JUMP JUMPDEST POP SWAP1 JUMP JUMPDEST POP DUP1 SLOAD PUSH2 0x1205 SWAP1 PUSH2 0x1ABE JUMP JUMPDEST PUSH1 0x0 DUP3 SSTORE DUP1 PUSH1 0x1F LT PUSH2 0x1217 JUMPI POP PUSH2 0x1236 JUMP JUMPDEST PUSH1 0x1F ADD PUSH1 0x20 SWAP1 DIV SWAP1 PUSH1 0x0 MSTORE PUSH1 0x20 PUSH1 0x0 KECCAK256 SWAP1 DUP2 ADD SWAP1 PUSH2 0x1235 SWAP2 SWAP1 PUSH2 0x125D JUMP JUMPDEST JUMPDEST POP JUMP JUMPDEST JUMPDEST DUP1 DUP3 GT ISZERO PUSH2 0x1259 JUMPI PUSH1 0x0 DUP2 DUP2 PUSH2 0x1250 SWAP2 SWAP1 PUSH2 0x11F9 JUMP JUMPDEST POP PUSH1 0x1 ADD PUSH2 0x123A JUMP JUMPDEST POP SWAP1 JUMP JUMPDEST JUMPDEST DUP1 DUP3 GT ISZERO PUSH2 0x1276 JUMPI PUSH1 0x0 DUP2 PUSH1 0x0 SWAP1 SSTORE POP PUSH1 0x1 ADD PUSH2 0x125E JUMP JUMPDEST POP SWAP1 JUMP JUMPDEST PUSH1 0x0 PUSH1 0x40 MLOAD SWAP1 POP SWAP1 JUMP JUMPDEST PUSH1 0x0 DUP1 REVERT JUMPDEST PUSH1 0x0 DUP1 REVERT JUMPDEST PUSH1 0x0 PUSH20 0xFFFFFFFFFFFFFFFFFFFFFFFFFFFFFFFFFFFFFFFF DUP3 AND SWAP1 POP SWAP2 SWAP1 POP JUMP JUMPDEST PUSH1 0x0 PUSH2 0x12B9 DUP3 PUSH2 0x128E JUMP JUMPDEST SWAP1 POP SWAP2 SWAP1 POP JUMP JUMPDEST PUSH2 0x12C9 DUP2 PUSH2 0x12AE JUMP JUMPDEST DUP2 EQ PUSH2 0x12D4 JUMPI PUSH1 0x0 DUP1 REVERT JUMPDEST POP JUMP JUMPDEST PUSH1 0x0 DUP2 CALLDATALOAD SWAP1 POP PUSH2 0x12E6 DUP2 PUSH2 0x12C0 JUMP JUMPDEST SWAP3 SWAP2 POP POP JUMP JUMPDEST PUSH1 0x0 PUSH1 0x20 DUP3 DUP5 SUB SLT ISZERO PUSH2 0x1302 JUMPI PUSH2 0x1301 PUSH2 0x1284 JUMP JUMPDEST JUMPDEST PUSH1 0x0 PUSH2 0x1310 DUP5 DUP3 DUP6 ADD PUSH2 0x12D7 JUMP JUMPDEST SWAP2 POP POP SWAP3 SWAP2 POP POP JUMP JUMPDEST PUSH1 0x0 DUP2 ISZERO ISZERO SWAP1 POP SWAP2 SWAP1 POP JUMP JUMPDEST PUSH2 0x132E DUP2 PUSH2 0x1319 JUMP JUMPDEST DUP3 MSTORE POP POP JUMP JUMPDEST PUSH1 0x0 DUP2 MLOAD SWAP1 POP SWAP2 SWAP1 POP JUMP JUMPDEST PUSH1 0x0 DUP3 DUP3 MSTORE PUSH1 0x20 DUP3 ADD SWAP1 POP SWAP3 SWAP2 POP POP JUMP JUMPDEST PUSH1 0x0 DUP2 SWAP1 POP PUSH1 0x20 DUP3 ADD SWAP1 POP SWAP2 SWAP1 POP JUMP JUMPDEST PUSH1 0x0 DUP2 MLOAD SWAP1 POP SWAP2 SWAP1 POP JUMP JUMPDEST PUSH1 0x0 DUP3 DUP3 MSTORE PUSH1 0x20 DUP3 ADD SWAP1 POP SWAP3 SWAP2 POP POP JUMP JUMPDEST PUSH1 0x0 JUMPDEST DUP4 DUP2 LT ISZERO PUSH2 0x139A JUMPI DUP1 DUP3 ADD MLOAD DUP2 DUP5 ADD MSTORE PUSH1 0x20 DUP2 ADD SWAP1 POP PUSH2 0x137F JUMP JUMPDEST PUSH1 0x0 DUP5 DUP5 ADD MSTORE POP POP POP POP JUMP JUMPDEST PUSH1 0x0 PUSH1 0x1F NOT PUSH1 0x1F DUP4 ADD AND SWAP1 POP SWAP2 SWAP1 POP JUMP JUMPDEST PUSH1 0x0 PUSH2 0x13C2 DUP3 PUSH2 0x1360 JUMP JUMPDEST PUSH2 0x13CC DUP2 DUP6 PUSH2 0x136B JUMP JUMPDEST SWAP4 POP PUSH2 0x13DC DUP2 DUP6 PUSH1 0x20 DUP7 ADD PUSH2 0x137C JUMP JUMPDEST PUSH2 0x13E5 DUP2 PUSH2 0x13A6 JUMP JUMPDEST DUP5 ADD SWAP2 POP POP SWAP3 SWAP2 POP POP JUMP JUMPDEST PUSH1 0x0 PUSH2 0x13FC DUP4 DUP4 PUSH2 0x13B7 JUMP JUMPDEST SWAP1 POP SWAP3 SWAP2 POP POP JUMP JUMPDEST PUSH1 0x0 PUSH1 0x20 DUP3 ADD SWAP1 POP SWAP2 SWAP1 POP JUMP JUMPDEST PUSH1 0x0 PUSH2 0x141C DUP3 PUSH2 0x1334 JUMP JUMPDEST PUSH2 0x1426 DUP2 DUP6 PUSH2 0x133F JUMP JUMPDEST SWAP4 POP DUP4 PUSH1 0x20 DUP3 MUL DUP6 ADD PUSH2 0x1438 DUP6 PUSH2 0x1350 JUMP JUMPDEST DUP1 PUSH1 0x0 JUMPDEST DUP6 DUP2 LT ISZERO PUSH2 0x1474 JUMPI DUP5 DUP5 SUB DUP10 MSTORE DUP2 MLOAD PUSH2 0x1455 DUP6 DUP3 PUSH2 0x13F0 JUMP JUMPDEST SWAP5 POP PUSH2 0x1460 DUP4 PUSH2 0x1404 JUMP JUMPDEST SWAP3 POP PUSH1 0x20 DUP11 ADD SWAP10 POP POP PUSH1 0x1 DUP2 ADD SWAP1 POP PUSH2 0x143C JUMP JUMPDEST POP DUP3 SWAP8 POP DUP8 SWAP6 POP POP POP POP POP POP SWAP3 SWAP2 POP POP JUMP JUMPDEST PUSH1 0x0 DUP2 SWAP1 POP SWAP2 SWAP1 POP JUMP JUMPDEST PUSH2 0x1499 DUP2 PUSH2 0x1486 JUMP JUMPDEST DUP3 MSTORE POP POP JUMP JUMPDEST PUSH1 0x0 PUSH1 0xA0 DUP3 ADD SWAP1 POP PUSH2 0x14B4 PUSH1 0x0 DUP4 ADD DUP9 PUSH2 0x1325 JUMP JUMPDEST PUSH2 0x14C1 PUSH1 0x20 DUP4 ADD DUP8 PUSH2 0x1325 JUMP JUMPDEST DUP2 DUP2 SUB PUSH1 0x40 DUP4 ADD MSTORE PUSH2 0x14D3 DUP2 DUP7 PUSH2 0x1411 JUMP JUMPDEST SWAP1 POP PUSH2 0x14E2 PUSH1 0x60 DUP4 ADD DUP6 PUSH2 0x1490 JUMP JUMPDEST PUSH2 0x14EF PUSH1 0x80 DUP4 ADD DUP5 PUSH2 0x1490 JUMP JUMPDEST SWAP7 SWAP6 POP POP POP POP POP POP JUMP JUMPDEST PUSH1 0x0 DUP1 REVERT JUMPDEST PUSH1 0x0 DUP1 REVERT JUMPDEST PUSH32 0x4E487B7100000000000000000000000000000000000000000000000000000000 PUSH1 0x0 MSTORE PUSH1 0x41 PUSH1 0x4 MSTORE PUSH1 0x24 PUSH1 0x0 REVERT JUMPDEST PUSH2 0x153B DUP3 PUSH2 0x13A6 JUMP JUMPDEST DUP2 ADD DUP2 DUP2 LT PUSH8 0xFFFFFFFFFFFFFFFF DUP3 GT OR ISZERO PUSH2 0x155A JUMPI PUSH2 0x1559 PUSH2 0x1503 JUMP JUMPDEST JUMPDEST DUP1 PUSH1 0x40 MSTORE POP POP POP JUMP JUMPDEST PUSH1 0x0 PUSH2 0x156D PUSH2 0x127A JUMP JUMPDEST SWAP1 POP PUSH2 0x1579 DUP3 DUP3 PUSH2 0x1532 JUMP JUMPDEST SWAP2 SWAP1 POP JUMP JUMPDEST PUSH1 0x0 PUSH8 0xFFFFFFFFFFFFFFFF DUP3 GT ISZERO PUSH2 0x1599 JUMPI PUSH2 0x1598 PUSH2 0x1503 JUMP JUMPDEST JUMPDEST PUSH2 0x15A2 DUP3 PUSH2 0x13A6 JUMP JUMPDEST SWAP1 POP PUSH1 0x20 DUP2 ADD SWAP1 POP SWAP2 SWAP1 POP JUMP JUMPDEST DUP3 DUP2 DUP4 CALLDATACOPY PUSH1 0x0 DUP4 DUP4 ADD MSTORE POP POP POP JUMP JUMPDEST PUSH1 0x0 PUSH2 0x15D1 PUSH2 0x15CC DUP5 PUSH2 0x157E JUMP JUMPDEST PUSH2 0x1563 JUMP JUMPDEST SWAP1 POP DUP3 DUP2 MSTORE PUSH1 0x20 DUP2 ADD DUP5 DUP5 DUP5 ADD GT ISZERO PUSH2 0x15ED JUMPI PUSH2 0x15EC PUSH2 0x14FE JUMP JUMPDEST JUMPDEST PUSH2 0x15F8 DUP5 DUP3 DUP6 PUSH2 0x15AF JUMP JUMPDEST POP SWAP4 SWAP3 POP POP POP JUMP JUMPDEST PUSH1 0x0 DUP3 PUSH1 0x1F DUP4 ADD SLT PUSH2 0x1615 JUMPI PUSH2 0x1614 PUSH2 0x14F9 JUMP JUMPDEST JUMPDEST DUP2 CALLDATALOAD PUSH2 0x1625 DUP5 DUP3 PUSH1 0x20 DUP7 ADD PUSH2 0x15BE JUMP JUMPDEST SWAP2 POP POP SWAP3 SWAP2 POP POP JUMP JUMPDEST PUSH1 0x0 PUSH1 0x20 DUP3 DUP5 SUB SLT ISZERO PUSH2 0x1644 JUMPI PUSH2 0x1643 PUSH2 0x1284 JUMP JUMPDEST JUMPDEST PUSH1 0x0 DUP3 ADD CALLDATALOAD PUSH8 0xFFFFFFFFFFFFFFFF DUP2 GT ISZERO PUSH2 0x1662 JUMPI PUSH2 0x1661 PUSH2 0x1289 JUMP JUMPDEST JUMPDEST PUSH2 0x166E DUP5 DUP3 DUP6 ADD PUSH2 0x1600 JUMP JUMPDEST SWAP2 POP POP SWAP3 SWAP2 POP POP JUMP JUMPDEST PUSH1 0x0 PUSH1 0x40 DUP3 ADD SWAP1 POP PUSH2 0x168C PUSH1 0x0 DUP4 ADD DUP6 PUSH2 0x1325 JUMP JUMPDEST PUSH2 0x1699 PUSH1 0x20 DUP4 ADD DUP5 PUSH2 0x1490 JUMP JUMPDEST SWAP4 SWAP3 POP POP POP JUMP JUMPDEST PUSH1 0x0 PUSH1 0x20 DUP3 ADD SWAP1 POP PUSH2 0x16B5 PUSH1 0x0 DUP4 ADD DUP5 PUSH2 0x1490 JUMP JUMPDEST SWAP3 SWAP2 POP POP JUMP JUMPDEST PUSH1 0x0 PUSH1 0x20 DUP3 ADD SWAP1 POP DUP2 DUP2 SUB PUSH1 0x0 DUP4 ADD MSTORE PUSH2 0x16D5 DUP2 DUP5 PUSH2 0x1411 JUMP JUMPDEST SWAP1 POP SWAP3 SWAP2 POP POP JUMP JUMPDEST PUSH1 0x0 DUP2 MLOAD SWAP1 POP SWAP2 SWAP1 POP JUMP JUMPDEST PUSH1 0x0 DUP3 DUP3 MSTORE PUSH1 0x20 DUP3 ADD SWAP1 POP SWAP3 SWAP2 POP POP JUMP JUMPDEST PUSH1 0x0 DUP2 SWAP1 POP PUSH1 0x20 DUP3 ADD SWAP1 POP SWAP2 SWAP1 POP JUMP JUMPDEST PUSH2 0x1712 DUP2 PUSH2 0x12AE JUMP JUMPDEST DUP3 MSTORE POP POP JUMP JUMPDEST PUSH1 0x0 PUSH2 0x1724 DUP4 DUP4 PUSH2 0x1709 JUMP JUMPDEST PUSH1 0x20 DUP4 ADD SWAP1 POP SWAP3 SWAP2 POP POP JUMP JUMPDEST PUSH1 0x0 PUSH1 0x20 DUP3 ADD SWAP1 POP SWAP2 SWAP1 POP JUMP JUMPDEST PUSH1 0x0 PUSH2 0x1748 DUP3 PUSH2 0x16DD JUMP JUMPDEST PUSH2 0x1752 DUP2 DUP6 PUSH2 0x16E8 JUMP JUMPDEST SWAP4 POP PUSH2 0x175D DUP4 PUSH2 0x16F9 JUMP JUMPDEST DUP1 PUSH1 0x0 JUMPDEST DUP4 DUP2 LT ISZERO PUSH2 0x178E JUMPI DUP2 MLOAD PUSH2 0x1775 DUP9 DUP3 PUSH2 0x1718 JUMP JUMPDEST SWAP8 POP PUSH2 0x1780 DUP4 PUSH2 0x1730 JUMP JUMPDEST SWAP3 POP POP PUSH1 0x1 DUP2 ADD SWAP1 POP PUSH2 0x1761 JUMP JUMPDEST POP DUP6 SWAP4 POP POP POP POP SWAP3 SWAP2 POP POP JUMP JUMPDEST PUSH1 0x0 PUSH1 0x20 DUP3 ADD SWAP1 POP DUP2 DUP2 SUB PUSH1 0x0 DUP4 ADD MSTORE PUSH2 0x17B5 DUP2 DUP5 PUSH2 0x173D JUMP JUMPDEST SWAP1 POP SWAP3 SWAP2 POP POP JUMP JUMPDEST PUSH2 0x17C6 DUP2 PUSH2 0x1486 JUMP JUMPDEST DUP2 EQ PUSH2 0x17D1 JUMPI PUSH1 0x0 DUP1 REVERT JUMPDEST POP JUMP JUMPDEST PUSH1 0x0 DUP2 CALLDATALOAD SWAP1 POP PUSH2 0x17E3 DUP2 PUSH2 0x17BD JUMP JUMPDEST SWAP3 SWAP2 POP POP JUMP JUMPDEST PUSH1 0x0 DUP1 PUSH1 0x40 DUP4 DUP6 SUB SLT ISZERO PUSH2 0x1800 JUMPI PUSH2 0x17FF PUSH2 0x1284 JUMP JUMPDEST JUMPDEST PUSH1 0x0 DUP4 ADD CALLDATALOAD PUSH8 0xFFFFFFFFFFFFFFFF DUP2 GT ISZERO PUSH2 0x181E JUMPI PUSH2 0x181D PUSH2 0x1289 JUMP JUMPDEST JUMPDEST PUSH2 0x182A DUP6 DUP3 DUP7 ADD PUSH2 0x1600 JUMP JUMPDEST SWAP3 POP POP PUSH1 0x20 PUSH2 0x183B DUP6 DUP3 DUP7 ADD PUSH2 0x17D4 JUMP JUMPDEST SWAP2 POP POP SWAP3 POP SWAP3 SWAP1 POP JUMP JUMPDEST PUSH1 0x0 PUSH8 0xFFFFFFFFFFFFFFFF DUP3 GT ISZERO PUSH2 0x1860 JUMPI PUSH2 0x185F PUSH2 0x1503 JUMP JUMPDEST JUMPDEST PUSH1 0x20 DUP3 MUL SWAP1 POP PUSH1 0x20 DUP2 ADD SWAP1 POP SWAP2 SWAP1 POP JUMP JUMPDEST PUSH1 0x0 DUP1 REVERT JUMPDEST PUSH1 0x0 PUSH2 0x1889 PUSH2 0x1884 DUP5 PUSH2 0x1845 JUMP JUMPDEST PUSH2 0x1563 JUMP JUMPDEST SWAP1 POP DUP1 DUP4 DUP3 MSTORE PUSH1 0x20 DUP3 ADD SWAP1 POP PUSH1 0x20 DUP5 MUL DUP4 ADD DUP6 DUP2 GT ISZERO PUSH2 0x18AC JUMPI PUSH2 0x18AB PUSH2 0x1871 JUMP JUMPDEST JUMPDEST DUP4 JUMPDEST DUP2 DUP2 LT ISZERO PUSH2 0x18F3 JUMPI DUP1 CALLDATALOAD PUSH8 0xFFFFFFFFFFFFFFFF DUP2 GT ISZERO PUSH2 0x18D1 JUMPI PUSH2 0x18D0 PUSH2 0x14F9 JUMP JUMPDEST JUMPDEST DUP1 DUP7 ADD PUSH2 0x18DE DUP10 DUP3 PUSH2 0x1600 JUMP JUMPDEST DUP6 MSTORE PUSH1 0x20 DUP6 ADD SWAP5 POP POP POP PUSH1 0x20 DUP2 ADD SWAP1 POP PUSH2 0x18AE JUMP JUMPDEST POP POP POP SWAP4 SWAP3 POP POP POP JUMP JUMPDEST PUSH1 0x0 DUP3 PUSH1 0x1F DUP4 ADD SLT PUSH2 0x1912 JUMPI PUSH2 0x1911 PUSH2 0x14F9 JUMP JUMPDEST JUMPDEST DUP2 CALLDATALOAD PUSH2 0x1922 DUP5 DUP3 PUSH1 0x20 DUP7 ADD PUSH2 0x1876 JUMP JUMPDEST SWAP2 POP POP SWAP3 SWAP2 POP POP JUMP JUMPDEST PUSH1 0x0 DUP1 PUSH1 0x40 DUP4 DUP6 SUB SLT ISZERO PUSH2 0x1942 JUMPI PUSH2 0x1941 PUSH2 0x1284 JUMP JUMPDEST JUMPDEST PUSH1 0x0 PUSH2 0x1950 DUP6 DUP3 DUP7 ADD PUSH2 0x12D7 JUMP JUMPDEST SWAP3 POP POP PUSH1 0x20 DUP4 ADD CALLDATALOAD PUSH8 0xFFFFFFFFFFFFFFFF DUP2 GT ISZERO PUSH2 0x1971 JUMPI PUSH2 0x1970 PUSH2 0x1289 JUMP JUMPDEST JUMPDEST PUSH2 0x197D DUP6 DUP3 DUP7 ADD PUSH2 0x18FD JUMP JUMPDEST SWAP2 POP POP SWAP3 POP SWAP3 SWAP1 POP JUMP JUMPDEST PUSH2 0x1990 DUP2 PUSH2 0x12AE JUMP JUMPDEST DUP3 MSTORE POP POP JUMP JUMPDEST PUSH1 0x0 PUSH1 0x20 DUP3 ADD SWAP1 POP PUSH2 0x19AB PUSH1 0x0 DUP4 ADD DUP5 PUSH2 0x1987 JUMP JUMPDEST SWAP3 SWAP2 POP POP JUMP JUMPDEST PUSH1 0x0 PUSH1 0x20 DUP3 DUP5 SUB SLT ISZERO PUSH2 0x19C7 JUMPI PUSH2 0x19C6 PUSH2 0x1284 JUMP JUMPDEST JUMPDEST PUSH1 0x0 PUSH2 0x19D5 DUP5 DUP3 DUP6 ADD PUSH2 0x17D4 JUMP JUMPDEST SWAP2 POP POP SWAP3 SWAP2 POP POP JUMP JUMPDEST PUSH1 0x0 DUP3 DUP3 MSTORE PUSH1 0x20 DUP3 ADD SWAP1 POP SWAP3 SWAP2 POP POP JUMP JUMPDEST PUSH1 0x0 PUSH2 0x19FA DUP3 PUSH2 0x1360 JUMP JUMPDEST PUSH2 0x1A04 DUP2 DUP6 PUSH2 0x19DE JUMP JUMPDEST SWAP4 POP PUSH2 0x1A14 DUP2 DUP6 PUSH1 0x20 DUP7 ADD PUSH2 0x137C JUMP JUMPDEST PUSH2 0x1A1D DUP2 PUSH2 0x13A6 JUMP JUMPDEST DUP5 ADD SWAP2 POP POP SWAP3 SWAP2 POP POP JUMP JUMPDEST PUSH1 0x0 PUSH1 0x20 DUP3 ADD SWAP1 POP DUP2 DUP2 SUB PUSH1 0x0 DUP4 ADD MSTORE PUSH2 0x1A42 DUP2 DUP5 PUSH2 0x19EF JUMP JUMPDEST SWAP1 POP SWAP3 SWAP2 POP POP JUMP JUMPDEST PUSH1 0x0 PUSH1 0x80 DUP3 ADD SWAP1 POP PUSH2 0x1A5F PUSH1 0x0 DUP4 ADD DUP8 PUSH2 0x1325 JUMP JUMPDEST PUSH2 0x1A6C PUSH1 0x20 DUP4 ADD DUP7 PUSH2 0x1325 JUMP JUMPDEST PUSH2 0x1A79 PUSH1 0x40 DUP4 ADD DUP6 PUSH2 0x1490 JUMP JUMPDEST PUSH2 0x1A86 PUSH1 0x60 DUP4 ADD DUP5 PUSH2 0x1490 JUMP JUMPDEST SWAP6 SWAP5 POP POP POP POP POP JUMP JUMPDEST PUSH32 0x4E487B7100000000000000000000000000000000000000000000000000000000 PUSH1 0x0 MSTORE PUSH1 0x22 PUSH1 0x4 MSTORE PUSH1 0x24 PUSH1 0x0 REVERT JUMPDEST PUSH1 0x0 PUSH1 0x2 DUP3 DIV SWAP1 POP PUSH1 0x1 DUP3 AND DUP1 PUSH2 0x1AD6 JUMPI PUSH1 0x7F DUP3 AND SWAP2 POP JUMPDEST PUSH1 0x20 DUP3 LT DUP2 SUB PUSH2 0x1AE9 JUMPI PUSH2 0x1AE8 PUSH2 0x1A8F JUMP JUMPDEST JUMPDEST POP SWAP2 SWAP1 POP JUMP JUMPDEST PUSH1 0x0 DUP2 SWAP1 POP SWAP3 SWAP2 POP POP JUMP JUMPDEST PUSH1 0x0 PUSH2 0x1B05 DUP3 PUSH2 0x1360 JUMP JUMPDEST PUSH2 0x1B0F DUP2 DUP6 PUSH2 0x1AEF JUMP JUMPDEST SWAP4 POP PUSH2 0x1B1F DUP2 DUP6 PUSH1 0x20 DUP7 ADD PUSH2 0x137C JUMP JUMPDEST DUP1 DUP5 ADD SWAP2 POP POP SWAP3 SWAP2 POP POP JUMP JUMPDEST PUSH1 0x0 PUSH2 0x1B37 DUP3 DUP5 PUSH2 0x1AFA JUMP JUMPDEST SWAP2 POP DUP2 SWAP1 POP SWAP3 SWAP2 POP POP JUMP JUMPDEST PUSH32 0x5269736B20666163746F7220646F6573206E6F74206578697374000000000000 PUSH1 0x0 DUP3 ADD MSTORE POP JUMP JUMPDEST PUSH1 0x0 PUSH2 0x1B78 PUSH1 0x1A DUP4 PUSH2 0x19DE JUMP JUMPDEST SWAP2 POP PUSH2 0x1B83 DUP3 PUSH2 0x1B42 JUMP JUMPDEST PUSH1 0x20 DUP3 ADD SWAP1 POP SWAP2 SWAP1 POP JUMP JUMPDEST PUSH1 0x0 PUSH1 0x20 DUP3 ADD SWAP1 POP DUP2 DUP2 SUB PUSH1 0x0 DUP4 ADD MSTORE PUSH2 0x1BA7 DUP2 PUSH2 0x1B6B JUMP JUMPDEST SWAP1 POP SWAP2 SWAP1 POP JUMP JUMPDEST PUSH32 0x576569676874206D757374206265206265747765656E203120616E6420313030 PUSH1 0x0 DUP3 ADD MSTORE POP JUMP JUMPDEST PUSH1 0x0 PUSH2 0x1BE4 PUSH1 0x20 DUP4 PUSH2 0x19DE JUMP JUMPDEST SWAP2 POP PUSH2 0x1BEF DUP3 PUSH2 0x1BAE JUMP JUMPDEST PUSH1 0x20 DUP3 ADD SWAP1 POP SWAP2 SWAP1 POP JUMP JUMPDEST PUSH1 0x0 PUSH1 0x20 DUP3 ADD SWAP1 POP DUP2 DUP2 SUB PUSH1 0x0 DUP4 ADD MSTORE PUSH2 0x1C13 DUP2 PUSH2 0x1BD7 JUMP JUMPDEST SWAP1 POP SWAP2 SWAP1 POP JUMP JUMPDEST PUSH1 0x0 PUSH1 0x40 DUP3 ADD SWAP1 POP DUP2 DUP2 SUB PUSH1 0x0 DUP4 ADD MSTORE PUSH2 0x1C34 DUP2 DUP6 PUSH2 0x19EF JUMP JUMPDEST SWAP1 POP PUSH2 0x1C43 PUSH1 0x20 DUP4 ADD DUP5 PUSH2 0x1490 JUMP JUMPDEST SWAP4 SWAP3 POP POP POP JUMP JUMPDEST PUSH32 0x4E487B7100000000000000000000000000000000000000000000000000000000 PUSH1 0x0 MSTORE PUSH1 0x32 PUSH1 0x4 MSTORE PUSH1 0x24 PUSH1 0x0 REVERT JUMPDEST PUSH32 0x4E487B7100000000000000000000000000000000000000000000000000000000 PUSH1 0x0 MSTORE PUSH1 0x11 PUSH1 0x4 MSTORE PUSH1 0x24 PUSH1 0x0 REVERT JUMPDEST PUSH1 0x0 PUSH2 0x1CB3 DUP3 PUSH2 0x1486 JUMP JUMPDEST SWAP2 POP PUSH2 0x1CBE DUP4 PUSH2 0x1486 JUMP JUMPDEST SWAP3 POP DUP3 DUP3 ADD SWAP1 POP DUP1 DUP3 GT ISZERO PUSH2 0x1CD6 JUMPI PUSH2 0x1CD5 PUSH2 0x1C79 JUMP JUMPDEST JUMPDEST SWAP3 SWAP2 POP POP JUMP JUMPDEST PUSH1 0x0 PUSH2 0x1CE7 DUP3 PUSH2 0x1486 JUMP JUMPDEST SWAP2 POP PUSH32 0xFFFFFFFFFFFFFFFFFFFFFFFFFFFFFFFFFFFFFFFFFFFFFFFFFFFFFFFFFFFFFFFF DUP3 SUB PUSH2 0x1D19 JUMPI PUSH2 0x1D18 PUSH2 0x1C79 JUMP JUMPDEST JUMPDEST PUSH1 0x1 DUP3 ADD SWAP1 POP SWAP2 SWAP1 POP JUMP JUMPDEST PUSH32 0x4E487B7100000000000000000000000000000000000000000000000000000000 PUSH1 0x0 MSTORE PUSH1 0x12 PUSH1 0x4 MSTORE PUSH1 0x24 PUSH1 0x0 REVERT JUMPDEST PUSH1 0x0 PUSH2 0x1D5E DUP3 PUSH2 0x1486 JUMP JUMPDEST SWAP2 POP PUSH2 0x1D69 DUP4 PUSH2 0x1486 JUMP JUMPDEST SWAP3 POP DUP3 PUSH2 0x1D79 JUMPI PUSH2 0x1D78 PUSH2 0x1D24 JUMP JUMPDEST JUMPDEST DUP3 DUP3 DIV SWAP1 POP SWAP3 SWAP2 POP POP JUMP JUMPDEST PUSH1 0x0 PUSH1 0x40 DUP3 ADD SWAP1 POP PUSH2 0x1D99 PUSH1 0x0 DUP4 ADD DUP6 PUSH2 0x1325 JUMP JUMPDEST DUP2 DUP2 SUB PUSH1 0x20 DUP4 ADD MSTORE PUSH2 0x1DAB DUP2 DUP5 PUSH2 0x1411 JUMP JUMPDEST SWAP1 POP SWAP4 SWAP3 POP POP POP JUMP JUMPDEST PUSH32 0x5468726573686F6C64206D757374206265206265747765656E203020616E6420 PUSH1 0x0 DUP3 ADD MSTORE PUSH32 0x3130300000000000000000000000000000000000000000000000000000000000 PUSH1 0x20 DUP3 ADD MSTORE POP JUMP JUMPDEST PUSH1 0x0 PUSH2 0x1E10 PUSH1 0x23 DUP4 PUSH2 0x19DE JUMP JUMPDEST SWAP2 POP PUSH2 0x1E1B DUP3 PUSH2 0x1DB4 JUMP JUMPDEST PUSH1 0x40 DUP3 ADD SWAP1 POP SWAP2 SWAP1 POP JUMP JUMPDEST PUSH1 0x0 PUSH1 0x20 DUP3 ADD SWAP1 POP DUP2 DUP2 SUB PUSH1 0x0 DUP4 ADD MSTORE PUSH2 0x1E3F DUP2 PUSH2 0x1E03 JUMP JUMPDEST SWAP1 POP SWAP2 SWAP1 POP JUMP JUMPDEST PUSH1 0x0 DUP2 SWAP1 POP SWAP3 SWAP2 POP POP JUMP JUMPDEST PUSH1 0x0 DUP2 SWAP1 POP DUP2 PUSH1 0x0 MSTORE PUSH1 0x20 PUSH1 0x0 KECCAK256 SWAP1 POP SWAP2 SWAP1 POP JUMP JUMPDEST PUSH1 0x0 DUP2 SLOAD PUSH2 0x1E73 DUP2 PUSH2 0x1ABE JUMP JUMPDEST PUSH2 0x1E7D DUP2 DUP7 PUSH2 0x1E46 JUMP JUMPDEST SWAP5 POP PUSH1 0x1 DUP3 AND PUSH1 0x0 DUP2 EQ PUSH2 0x1E98 JUMPI PUSH1 0x1 DUP2 EQ PUSH2 0x1EAD JUMPI PUSH2 0x1EE0 JUMP JUMPDEST PUSH1 0xFF NOT DUP4 AND DUP7 MSTORE DUP2 ISZERO ISZERO DUP3 MUL DUP7 ADD SWAP4 POP PUSH2 0x1EE0 JUMP JUMPDEST PUSH2 0x1EB6 DUP6 PUSH2 0x1E51 JUMP JUMPDEST PUSH1 0x0 JUMPDEST DUP4 DUP2 LT ISZERO PUSH2 0x1ED8 JUMPI DUP2 SLOAD DUP2 DUP10 ADD MSTORE PUSH1 0x1 DUP3 ADD SWAP2 POP PUSH1 0x20 DUP2 ADD SWAP1 POP PUSH2 0x1EB9 JUMP JUMPDEST DUP4 DUP9 ADD SWAP6 POP POP POP JUMPDEST POP POP POP SWAP3 SWAP2 POP POP JUMP JUMPDEST PUSH1 0x0 PUSH2 0x1EF5 DUP3 DUP5 PUSH2 0x1E66 JUMP JUMPDEST SWAP2 POP DUP2 SWAP1 POP SWAP3 SWAP2 POP POP JUMP JUMPDEST PUSH1 0x0 PUSH2 0x1F0B DUP3 PUSH2 0x1486 JUMP JUMPDEST SWAP2 POP PUSH2 0x1F16 DUP4 PUSH2 0x1486 JUMP JUMPDEST SWAP3 POP DUP3 DUP3 SUB SWAP1 POP DUP2 DUP2 GT ISZERO PUSH2 0x1F2E JUMPI PUSH2 0x1F2D PUSH2 0x1C79 JUMP JUMPDEST JUMPDEST SWAP3 SWAP2 POP POP JUMP JUMPDEST PUSH1 0x0 DUP2 SLOAD SWAP1 POP PUSH2 0x1F43 DUP2 PUSH2 0x1ABE JUMP JUMPDEST SWAP1 POP SWAP2 SWAP1 POP JUMP JUMPDEST PUSH1 0x0 DUP2 SWAP1 POP DUP2 PUSH1 0x0 MSTORE PUSH1 0x20 PUSH1 0x0 KECCAK256 SWAP1 POP SWAP2 SWAP1 POP JUMP JUMPDEST PUSH1 0x0 DUP2 SWAP1 POP DUP2 PUSH1 0x0 MSTORE PUSH1 0x20 PUSH1 0x0 KECCAK256 SWAP1 POP SWAP2 SWAP1 POP JUMP JUMPDEST PUSH1 0x0 PUSH1 0x20 PUSH1 0x1F DUP4 ADD DIV SWAP1 POP SWAP2 SWAP1 POP JUMP JUMPDEST PUSH1 0x0 DUP3 DUP3 SHL SWAP1 POP SWAP3 SWAP2 POP POP JUMP JUMPDEST PUSH1 0x0 PUSH1 0x8 DUP4 MUL PUSH2 0x1FC1 PUSH32 0xFFFFFFFFFFFFFFFFFFFFFFFFFFFFFFFFFFFFFFFFFFFFFFFFFFFFFFFFFFFFFFFF DUP3 PUSH2 0x1F84 JUMP JUMPDEST PUSH2 0x1FCB DUP7 DUP4 PUSH2 0x1F84 JUMP JUMPDEST SWAP6 POP DUP1 NOT DUP5 AND SWAP4 POP DUP1 DUP7 AND DUP5 OR SWAP3 POP POP POP SWAP4 SWAP3 POP POP POP JUMP JUMPDEST PUSH1 0x0 DUP2 SWAP1 POP SWAP2 SWAP1 POP JUMP JUMPDEST PUSH1 0x0 PUSH2 0x2008 PUSH2 0x2003 PUSH2 0x1FFE DUP5 PUSH2 0x1486 JUMP JUMPDEST PUSH2 0x1FE3 JUMP JUMPDEST PUSH2 0x1486 JUMP JUMPDEST SWAP1 POP SWAP2 SWAP1 POP JUMP JUMPDEST PUSH1 0x0 DUP2 SWAP1 POP SWAP2 SWAP1 POP JUMP JUMPDEST PUSH2 0x2022 DUP4 PUSH2 0x1FED JUMP JUMPDEST PUSH2 0x2036 PUSH2 0x202E DUP3 PUSH2 0x200F JUMP JUMPDEST DUP5 DUP5 SLOAD PUSH2 0x1F91 JUMP JUMPDEST DUP3 SSTORE POP POP POP POP JUMP JUMPDEST PUSH1 0x0 SWAP1 JUMP JUMPDEST PUSH2 0x204B PUSH2 0x203E JUMP JUMPDEST PUSH2 0x2056 DUP2 DUP5 DUP5 PUSH2 0x2019 JUMP JUMPDEST POP POP POP JUMP JUMPDEST JUMPDEST DUP2 DUP2 LT ISZERO PUSH2 0x207A JUMPI PUSH2 0x206F PUSH1 0x0 DUP3 PUSH2 0x2043 JUMP JUMPDEST PUSH1 0x1 DUP2 ADD SWAP1 POP PUSH2 0x205C JUMP JUMPDEST POP POP JUMP JUMPDEST PUSH1 0x1F DUP3 GT ISZERO PUSH2 0x20BF JUMPI PUSH2 0x2090 DUP2 PUSH2 0x1F4A JUMP JUMPDEST PUSH2 0x2099 DUP5 PUSH2 0x1F74 JUMP JUMPDEST DUP2 ADD PUSH1 0x20 DUP6 LT ISZERO PUSH2 0x20A8 JUMPI DUP2 SWAP1 POP JUMPDEST PUSH2 0x20BC PUSH2 0x20B4 DUP6 PUSH2 0x1F74 JUMP JUMPDEST DUP4 ADD DUP3 PUSH2 0x205B JUMP JUMPDEST POP POP JUMPDEST POP POP POP JUMP JUMPDEST PUSH1 0x0 DUP3 DUP3 SHR SWAP1 POP SWAP3 SWAP2 POP POP JUMP JUMPDEST PUSH1 0x0 PUSH2 0x20E2 PUSH1 0x0 NOT DUP5 PUSH1 0x8 MUL PUSH2 0x20C4 JUMP JUMPDEST NOT DUP1 DUP4 AND SWAP2 POP POP SWAP3 SWAP2 POP POP JUMP JUMPDEST PUSH1 0x0 PUSH2 0x20FB DUP4 DUP4 PUSH2 0x20D1 JUMP JUMPDEST SWAP2 POP DUP3 PUSH1 0x2 MUL DUP3 OR SWAP1 POP SWAP3 SWAP2 POP POP JUMP JUMPDEST DUP2 DUP2 SUB PUSH2 0x2119 JUMPI POP POP PUSH2 0x21F1 JUMP JUMPDEST PUSH2 0x2122 DUP3 PUSH2 0x1F34 JUMP JUMPDEST PUSH8 0xFFFFFFFFFFFFFFFF DUP2 GT ISZERO PUSH2 0x213B JUMPI PUSH2 0x213A PUSH2 0x1503 JUMP JUMPDEST JUMPDEST PUSH2 0x2145 DUP3 SLOAD PUSH2 0x1ABE JUMP JUMPDEST PUSH2 0x2150 DUP3 DUP3 DUP6 PUSH2 0x207E JUMP JUMPDEST PUSH1 0x0 PUSH1 0x1F DUP4 GT PUSH1 0x1 DUP2 EQ PUSH2 0x217F JUMPI PUSH1 0x0 DUP5 ISZERO PUSH2 0x216D JUMPI DUP3 DUP8 ADD SLOAD SWAP1 POP JUMPDEST PUSH2 0x2177 DUP6 DUP3 PUSH2 0x20EF JUMP JUMPDEST DUP7 SSTORE POP PUSH2 0x21EA JUMP JUMPDEST PUSH1 0x1F NOT DUP5 AND PUSH2 0x218D DUP8 PUSH2 0x1F5F JUMP JUMPDEST SWAP7 POP PUSH2 0x2198 DUP7 PUSH2 0x1F4A JUMP JUMPDEST PUSH1 0x0 JUMPDEST DUP3 DUP2 LT ISZERO PUSH2 0x21C0 JUMPI DUP5 DUP10 ADD SLOAD DUP3 SSTORE PUSH1 0x1 DUP3 ADD SWAP2 POP PUSH1 0x1 DUP6 ADD SWAP5 POP PUSH1 0x20 DUP2 ADD SWAP1 POP PUSH2 0x219B JUMP JUMPDEST DUP7 DUP4 LT ISZERO PUSH2 0x21DD JUMPI DUP5 DUP10 ADD SLOAD PUSH2 0x21D9 PUSH1 0x1F DUP10 AND DUP3 PUSH2 0x20D1 JUMP JUMPDEST DUP4 SSTORE POP JUMPDEST PUSH1 0x1 PUSH1 0x2 DUP9 MUL ADD DUP9 SSTORE POP POP POP JUMPDEST POP POP POP POP POP POP JUMPDEST JUMP JUMPDEST PUSH32 0x4E487B7100000000000000000000000000000000000000000000000000000000 PUSH1 0x0 MSTORE PUSH1 0x31 PUSH1 0x4 MSTORE PUSH1 0x24 PUSH1 0x0 REVERT JUMPDEST PUSH32 0x5269736B20666163746F7220616C726561647920657869737473000000000000 PUSH1 0x0 DUP3 ADD MSTORE POP JUMP JUMPDEST PUSH1 0x0 PUSH2 0x2258 PUSH1 0x1A DUP4 PUSH2 0x19DE JUMP JUMPDEST SWAP2 POP PUSH2 0x2263 DUP3 PUSH2 0x2222 JUMP JUMPDEST PUSH1 0x20 DUP3 ADD SWAP1 POP SWAP2 SWAP1 POP JUMP JUMPDEST PUSH1 0x0 PUSH1 0x20 DUP3 ADD SWAP1 POP DUP2 DUP2 SUB PUSH1 0x0 DUP4 ADD MSTORE PUSH2 0x2287 DUP2 PUSH2 0x224B JUMP JUMPDEST SWAP1 POP SWAP2 SWAP1 POP JUMP JUMPDEST PUSH2 0x2297 DUP3 PUSH2 0x1360 JUMP JUMPDEST PUSH8 0xFFFFFFFFFFFFFFFF DUP2 GT ISZERO PUSH2 0x22B0 JUMPI PUSH2 0x22AF PUSH2 0x1503 JUMP JUMPDEST JUMPDEST PUSH2 0x22BA DUP3 SLOAD PUSH2 0x1ABE JUMP JUMPDEST PUSH2 0x22C5 DUP3 DUP3 DUP6 PUSH2 0x207E JUMP JUMPDEST PUSH1 0x0 PUSH1 0x20 SWAP1 POP PUSH1 0x1F DUP4 GT PUSH1 0x1 DUP2 EQ PUSH2 0x22F8 JUMPI PUSH1 0x0 DUP5 ISZERO PUSH2 0x22E6 JUMPI DUP3 DUP8 ADD MLOAD SWAP1 POP JUMPDEST PUSH2 0x22F0 DUP6 DUP3 PUSH2 0x20EF JUMP JUMPDEST DUP7 SSTORE POP PUSH2 0x2358 JUMP JUMPDEST PUSH1 0x1F NOT DUP5 AND PUSH2 0x2306 DUP7 PUSH2 0x1F4A JUMP JUMPDEST PUSH1 0x0 JUMPDEST DUP3 DUP2 LT ISZERO PUSH2 0x232E JUMPI DUP5 DUP10 ADD MLOAD DUP3 SSTORE PUSH1 0x1 DUP3 ADD SWAP2 POP PUSH1 0x20 DUP6 ADD SWAP5 POP PUSH1 0x20 DUP2 ADD SWAP1 POP PUSH2 0x2309 JUMP JUMPDEST DUP7 DUP4 LT ISZERO PUSH2 0x234B JUMPI DUP5 DUP10 ADD MLOAD PUSH2 0x2347 PUSH1 0x1F DUP10 AND DUP3 PUSH2 0x20D1 JUMP JUMPDEST DUP4 SSTORE POP JUMPDEST PUSH1 0x1 PUSH1 0x2 DUP9 MUL ADD DUP9 SSTORE POP POP POP JUMPDEST POP POP POP POP POP POP JUMP INVALID LOG2 PUSH5 0x6970667358 0x22 SLT KECCAK256 EXP PUSH15 0x56A0073C3DDE278C4876799360DDF6 0x26 0xB8 PUSH9 0x37BB85C2A80E9C159B 0xA6 PUSH22 0xA564736F6C6343000814003350726F787920636F6E74 PUSH19 0x6163742077697468207570677261646561626C PUSH6 0x206C6F676963 "},"methodIdentifiers":{"addRiskFactor(string,uint256)":"716e0efe","analyzedTokens(uint256)":"8fdb8efa","getAnalyzedTokens()":"57ea5cf2","getRiskFactorNames()":"42d2ff71","getTokenAnalysis(address)":"22ed3f8f","owner()":"8da5cb5b","recordTokenAnalysis(address,string[])":"8b694903","removeRiskFactor(string)":"cbdb19c8","renounceOwnership()":"715018a6","riskFactorNames(uint256)":"b4535f7c","riskFactors(string)":"3ee929ce","rugPullThreshold()":"410d4ed8","tokenAnalyses(address)":"fc691ce5","transferOwnership(address)":"f2fde38b","updateRiskFactorWeight(string,uint256)":"64ea5db4","updateRugPullThreshold(uint256)":"aa51b86f"}}}}}