{
  "_format": "hh-sol-artifact-1",
  "contractName": "RugPullDetector",
  "sourceName": "contracts/RugPullDetector.sol",
  "abi": [
    {
      "inputs": [
        {
          "internalType": "uint256",
          "name": "_rugPullThreshold",
          "type": "uint256"
        }
      ],
      "stateMutability": "nonpayable",
      "type": "constructor"
    },
    {
      "inputs": [
        {
          "internalType": "address",
          "name": "owner",
          "type": "address"
        }
      ],
      "name": "OwnableInvalidOwner",
      "type": "error"
    },
    {
      "inputs": [
        {
          "internalType": "address",
          "name": "account",
          "type": "address"
        }
      ],
      "name": "OwnableUnauthorizedAccount",
      "type": "error"
    },
    {
      "anonymous": false,
      "inputs": [
        {
          "indexed": true,
          "internalType": "address",
          "name": "previousOwner",
          "type": "address"
        },
        {
          "indexed": true,
          "internalType": "address",
          "name": "newOwner",
          "type": "address"
        }
      ],
      "name": "OwnershipTransferred",
      "type": "event"
    },
    {
      "anonymous": false,
      "inputs": [
        {
          "indexed": false,
          "internalType": "string",
          "name": "name",
          "type": "string"
        },
        {
          "indexed": false,
          "internalType": "uint256",
          "name": "weight",
          "type": "uint256"
        }
      ],
      "name": "RiskFactorAdded",
      "type": "event"
    },
    {
      "anonymous": false,
      "inputs": [
        {
          "indexed": false,
          "internalType": "string",
          "name": "name",
          "type": "string"
        }
      ],
      "name": "RiskFactorRemoved",
      "type": "event"
    },
    {
      "anonymous": false,
      "inputs": [
        {
          "indexed": false,
          "internalType": "string",
          "name": "name",
          "type": "string"
        },
        {
          "indexed": false,
          "internalType": "uint256",
          "name": "newWeight",
          "type": "uint256"
        }
      ],
      "name": "RiskFactorWeightUpdated",
      "type": "event"
    },
    {
      "anonymous": false,
      "inputs": [
        {
          "indexed": true,
          "internalType": "address",
          "name": "tokenAddress",
          "type": "address"
        },
        {
          "indexed": false,
          "internalType": "bool",
          "name": "isPotentialRugPull",
          "type": "bool"
        },
        {
          "indexed": false,
          "internalType": "string[]",
          "name": "reasons",
          "type": "string[]"
        }
      ],
      "name": "TokenAnalyzed",
      "type": "event"
    },
    {
      "inputs": [
        {
          "internalType": "string",
          "name": "name",
          "type": "string"
        },
        {
          "internalType": "uint256",
          "name": "weight",
          "type": "uint256"
        }
      ],
      "name": "addRiskFactor",
      "outputs": [],
      "stateMutability": "nonpayable",
      "type": "function"
    },
    {
      "inputs": [
        {
          "internalType": "uint256",
          "name": "",
          "type": "uint256"
        }
      ],
      "name": "analyzedTokens",
      "outputs": [
        {
          "internalType": "address",
          "name": "",
          "type": "address"
        }
      ],
      "stateMutability": "view",
      "type": "function"
    },
    {
      "inputs": [],
      "name": "getAnalyzedTokens",
      "outputs": [
        {
          "internalType": "address[]",
          "name": "",
          "type": "address[]"
        }
      ],
      "stateMutability": "view",
      "type": "function"
    },
    {
      "inputs": [],
      "name": "getRiskFactorNames",
      "outputs": [
        {
          "internalType": "string[]",
          "name": "",
          "type": "string[]"
        }
      ],
      "stateMutability": "view",
      "type": "function"
    },
    {
      "inputs": [
        {
          "internalType": "address",
          "name": "tokenAddress",
          "type": "address"
        }
      ],
      "name": "getTokenAnalysis",
      "outputs": [
        {
          "internalType": "bool",
          "name": "analyzed",
          "type": "bool"
        },
        {
          "internalType": "bool",
          "name": "isPotentialRugPull",
          "type": "bool"
        },
        {
          "internalType": "string[]",
          "name": "riskFactors",
          "type": "string[]"
        },
        {
          "internalType": "uint256",
          "name": "riskScore",
          "type": "uint256"
        },
        {
          "internalType": "uint256",
          "name": "timestamp",
          "type": "uint256"
        }
      ],
      "stateMutability": "view",
      "type": "function"
    },
    {
      "inputs": [],
      "name": "owner",
      "outputs": [
        {
          "internalType": "address",
          "name": "",
          "type": "address"
        }
      ],
      "stateMutability": "view",
      "type": "function"
    },
    {
      "inputs": [
        {
          "internalType": "address",
          "name": "tokenAddress",
          "type": "address"
        },
        {
          "internalType": "string[]",
          "name": "detectedRiskFactors",
          "type": "string[]"
        }
      ],
      "name": "recordTokenAnalysis",
      "outputs": [],
      "stateMutability": "nonpayable",
      "type": "function"
    },
    {
      "inputs": [
        {
          "internalType": "string",
          "name": "name",
          "type": "string"
        }
      ],
      "name": "removeRiskFactor",
      "outputs": [],
      "stateMutability": "nonpayable",
      "type": "function"
    },
    {
      "inputs": [],
      "name": "renounceOwnership",
      "outputs": [],
      "stateMutability": "nonpayable",
      "type": "function"
    },
    {
      "inputs": [
        {
          "internalType": "uint256",
          "name": "",
          "type": "uint256"
        }
      ],
      "name": "riskFactorNames",
      "outputs": [
        {
          "internalType": "string",
          "name": "",
          "type": "string"
        }
      ],
      "stateMutability": "view",
      "type": "function"
    },
    {
      "inputs": [
        {
          "internalType": "string",
          "name": "",
          "type": "string"
        }
      ],
      "name": "riskFactors",
      "outputs": [
        {
          "internalType": "bool",
          "name": "exists",
          "type": "bool"
        },
        {
          "internalType": "uint256",
          "name": "weight",
          "type": "uint256"
        }
      ],
      "stateMutability": "view",
      "type": "function"
    },
    {
      "inputs": [],
      "name": "rugPullThreshold",
      "outputs": [
        {
          "internalType": "uint256",
          "name": "",
          "type": "uint256"
        }
      ],
      "stateMutability": "view",
      "type": "function"
    },
    {
      "inputs": [
        {
          "internalType": "address",
          "name": "",
          "type": "address"
        }
      ],
      "name": "tokenAnalyses",
      "outputs": [
        {
          "internalType": "bool",
          "name": "analyzed",
          "type": "bool"
        },
        {
          "internalType": "bool",
          "name": "isPotentialRugPull",
          "type": "bool"
        },
        {
          "internalType": "uint256",
          "name": "riskScore",
          "type": "uint256"
        },
        {
          "internalType": "uint256",
          "name": "timestamp",
          "type": "uint256"
        }
      ],
      "stateMutability": "view",
      "type": "function"
    },
    {
      "inputs": [
        {
          "internalType": "address",
          "name": "newOwner",
          "type": "address"
        }
      ],
      "name": "transferOwnership",
      "outputs": [],
      "stateMutability": "nonpayable",
      "type": "function"
    },
    {
      "inputs": [
        {
          "internalType": "string",
          "name": "name",
          "type": "string"
        },
        {
          "internalType": "uint256",
          "name": "newWeight",
          "type": "uint256"
        }
      ],
      "name": "updateRiskFactorWeight",
      "outputs": [],
      "stateMutability": "nonpayable",
      "type": "function"
    },
    {
      "inputs": [
        {
          "internalType": "uint256",
          "name": "newThreshold",
          "type": "uint256"
        }
      ],
      "name": "updateRugPullThreshold",
      "outputs": [],
      "stateMutability": "nonpayable",
      "type": "function"
    }
  ],
  "bytecode": "0x60806040523480156200001157600080fd5b5060405162002e5338038062002e538339818101604052810190620000379190620004fc565b33600073ffffffffffffffffffffffffffffffffffffffff168173ffffffffffffffffffffffffffffffffffffffff1603620000ad5760006040517f1e4fbdf7000000000000000000000000000000000000000000000000000000008152600401620000a4919062000573565b60405180910390fd5b620000be81620002a960201b60201c565b50806004819055506200010e6040518060400160405280601181526020017f4e6f206c6971756964697479206c6f636b00000000000000000000000000000081525060506200036d60201b60201c565b620001566040518060400160405280601f81526020017f4f776e65722063616e206d696e7420756e6c696d6974656420746f6b656e7300815250605a6200036d60201b60201c565b6200019e6040518060400160405280601581526020017f48696464656e206d696e742066756e6374696f6e730000000000000000000000815250605f6200036d60201b60201c565b620001e66040518060400160405280601381526020017f426c61636b6c6973742066756e6374696f6e7300000000000000000000000000815250603c6200036d60201b60201c565b6200022e6040518060400160405280601681526020017f5472616e736665722066656573206f766572203130250000000000000000000081525060466200036d60201b60201c565b620002766040518060400160405280601781526020017f4f776e65722063616e2070617573652074726164696e67000000000000000000815250604b6200036d60201b60201c565b620002a260405180606001604052806025815260200162002e2e6025913960326200036d60201b60201c565b5062000a88565b60008060009054906101000a900473ffffffffffffffffffffffffffffffffffffffff169050816000806101000a81548173ffffffffffffffffffffffffffffffffffffffff021916908373ffffffffffffffffffffffffffffffffffffffff1602179055508173ffffffffffffffffffffffffffffffffffffffff168173ffffffffffffffffffffffffffffffffffffffff167f8be0079c531659141344cd1fd0a4f28419497f9722a3daafe3b4186f6b6457e060405160405180910390a35050565b6002826040516200037f919062000609565b908152602001604051809103902060000160009054906101000a900460ff1615620003e1576040517f08c379a0000000000000000000000000000000000000000000000000000000008152600401620003d89062000683565b60405180910390fd5b6040518060400160405280600115158152602001828152506002836040516200040b919062000609565b908152602001604051809103902060008201518160000160006101000a81548160ff021916908315150217905550602082015181600101559050506003829080600181540180825580915050600190039060005260206000200160009091909190915090816200047c91906200090a565b507fd68db30cf75eb83241d742163152d5c0a08d1f75a3e4397fd220f5cd44a01fb18282604051620004b092919062000a54565b60405180910390a15050565b600080fd5b6000819050919050565b620004d681620004c1565b8114620004e257600080fd5b50565b600081519050620004f681620004cb565b92915050565b600060208284031215620005155762000514620004bc565b5b60006200052584828501620004e5565b91505092915050565b600073ffffffffffffffffffffffffffffffffffffffff82169050919050565b60006200055b826200052e565b9050919050565b6200056d816200054e565b82525050565b60006020820190506200058a600083018462000562565b92915050565b600081519050919050565b600081905092915050565b60005b83811015620005c6578082015181840152602081019050620005a9565b60008484015250505050565b6000620005df8262000590565b620005eb81856200059b565b9350620005fd818560208601620005a6565b80840191505092915050565b6000620006178284620005d2565b915081905092915050565b600082825260208201905092915050565b7f5269736b20666163746f7220616c726561647920657869737473000000000000600082015250565b60006200066b601a8362000622565b9150620006788262000633565b602082019050919050565b600060208201905081810360008301526200069e816200065c565b9050919050565b7f4e487b7100000000000000000000000000000000000000000000000000000000600052604160045260246000fd5b7f4e487b7100000000000000000000000000000000000000000000000000000000600052602260045260246000fd5b600060028204905060018216806200071c57607f821691505b602082108103620007325762000731620006d4565b5b50919050565b60008190508160005260206000209050919050565b60006020601f8301049050919050565b600082821b905092915050565b6000600883026200079c7fffffffffffffffffffffffffffffffffffffffffffffffffffffffffffffffff826200075d565b620007a886836200075d565b95508019841693508086168417925050509392505050565b6000819050919050565b6000620007eb620007e5620007df84620004c1565b620007c0565b620004c1565b9050919050565b6000819050919050565b6200080783620007ca565b6200081f6200081682620007f2565b8484546200076a565b825550505050565b600090565b6200083662000827565b62000843818484620007fc565b505050565b5b818110156200086b576200085f6000826200082c565b60018101905062000849565b5050565b601f821115620008ba57620008848162000738565b6200088f846200074d565b810160208510156200089f578190505b620008b7620008ae856200074d565b83018262000848565b50505b505050565b600082821c905092915050565b6000620008df60001984600802620008bf565b1980831691505092915050565b6000620008fa8383620008cc565b9150826002028217905092915050565b620009158262000590565b67ffffffffffffffff811115620009315762000930620006a5565b5b6200093d825462000703565b6200094a8282856200086f565b600060209050601f8311600181146200098257600084156200096d578287015190505b620009798582620008ec565b865550620009e9565b601f198416620009928662000738565b60005b82811015620009bc5784890151825560018201915060208501945060208101905062000995565b86831015620009dc5784890151620009d8601f891682620008cc565b8355505b6001600288020188555050505b505050505050565b6000601f19601f8301169050919050565b600062000a0f8262000590565b62000a1b818562000622565b935062000a2d818560208601620005a6565b62000a3881620009f1565b840191505092915050565b62000a4e81620004c1565b82525050565b6000604082019050818103600083015262000a70818562000a02565b905062000a81602083018462000a43565b9392505050565b6123968062000a986000396000f3fe608060405234801561001057600080fd5b50600436106101005760003560e01c80638b69490311610097578063b4535f7c11610066578063b4535f7c1461028c578063cbdb19c8146102bc578063f2fde38b146102d8578063fc691ce5146102f457610100565b80638b694903146102065780638da5cb5b146102225780638fdb8efa14610240578063aa51b86f1461027057610100565b806357ea5cf2116100d357806357ea5cf2146101a657806364ea5db4146101c4578063715018a6146101e0578063716e0efe146101ea57610100565b806322ed3f8f146101055780633ee929ce14610139578063410d4ed81461016a57806342d2ff7114610188575b600080fd5b61011f600480360381019061011a91906112ec565b610327565b60405161013095949392919061149f565b60405180910390f35b610153600480360381019061014e919061162e565b6104cd565b604051610161929190611677565b60405180910390f35b610172610514565b60405161017f91906116a0565b60405180910390f35b61019061051a565b60405161019d91906116bb565b60405180910390f35b6101ae6105f3565b6040516101bb919061179b565b60405180910390f35b6101de60048036038101906101d991906117e9565b610681565b005b6101e86107aa565b005b61020460048036038101906101ff91906117e9565b6107be565b005b610220600480360381019061021b919061192b565b610824565b005b61022a610ae2565b6040516102379190611996565b60405180910390f35b61025a600480360381019061025591906119b1565b610b0b565b6040516102679190611996565b60405180910390f35b61028a600480360381019061028591906119b1565b610b4a565b005b6102a660048036038101906102a191906119b1565b610bad565b6040516102b39190611a28565b60405180910390f35b6102d660048036038101906102d1919061162e565b610c59565b005b6102f260048036038101906102ed91906112ec565b610e39565b005b61030e600480360381019061030991906112ec565b610ebf565b60405161031e9493929190611a4a565b60405180910390f35b60008060606000806000600160008873ffffffffffffffffffffffffffffffffffffffff1673ffffffffffffffffffffffffffffffffffffffff1681526020019081526020016000206040518060a00160405290816000820160009054906101000a900460ff161515151581526020016000820160019054906101000a900460ff1615151515815260200160018201805480602002602001604051908101604052809291908181526020016000905b828210156104825783829060005260206000200180546103f590611abe565b80601f016020809104026020016040519081016040528092919081815260200182805461042190611abe565b801561046e5780601f106104435761010080835404028352916020019161046e565b820191906000526020600020905b81548152906001019060200180831161045157829003601f168201915b5050505050815260200190600101906103d6565b50505050815260200160028201548152602001600382015481525050905080600001518160200151826040015183606001518460800151955095509550955095505091939590929450565b6002818051602081018201805184825260208301602085012081835280955050505050506000915090508060000160009054906101000a900460ff16908060010154905082565b60045481565b60606003805480602002602001604051908101604052809291908181526020016000905b828210156105ea57838290600052602060002001805461055d90611abe565b80601f016020809104026020016040519081016040528092919081815260200182805461058990611abe565b80156105d65780601f106105ab576101008083540402835291602001916105d6565b820191906000526020600020905b8154815290600101906020018083116105b957829003601f168201915b50505050508152602001906001019061053e565b50505050905090565b6060600580548060200260200160405190810160405280929190818152602001828054801561067757602002820191906000526020600020905b8160009054906101000a900473ffffffffffffffffffffffffffffffffffffffff1673ffffffffffffffffffffffffffffffffffffffff168152602001906001019080831161062d575b5050505050905090565b610689610f09565b6002826040516106999190611b2b565b908152602001604051809103902060000160009054906101000a900460ff166106f7576040517f08c379a00000000000000000000000000000000000000000000000000000000081526004016106ee90611b8e565b60405180910390fd5b600081118015610708575060648111155b610747576040517f08c379a000000000000000000000000000000000000000000000000000000000815260040161073e90611bfa565b60405180910390fd5b806002836040516107589190611b2b565b9081526020016040518091039020600101819055507fdb50bf4a10b80558195e91db1785f9950569530adc147c0163d0d976084e9eeb828260405161079e929190611c1a565b60405180910390a15050565b6107b2610f09565b6107bc6000610f90565b565b6107c6610f09565b6000811180156107d7575060648111155b610816576040517f08c379a000000000000000000000000000000000000000000000000000000000815260040161080d90611bfa565b60405180910390fd5b6108208282611054565b5050565b61082c610f09565b6000805b82518110156108d057600083828151811061084e5761084d611c4a565b5b602002602001015190506002816040516108689190611b2b565b908152602001604051809103902060000160009054906101000a900460ff16156108bc5760028160405161089c9190611b2b565b908152602001604051809103902060010154836108b99190611ca8565b92505b5080806108c890611cdc565b915050610830565b506000825111156108eb578151816108e89190611d53565b90505b60006004548210159050600160008573ffffffffffffffffffffffffffffffffffffffff1673ffffffffffffffffffffffffffffffffffffffff16815260200190815260200160002060000160009054906101000a900460ff166109ad576005849080600181540180825580915050600190039060005260206000200160009091909190916101000a81548173ffffffffffffffffffffffffffffffffffffffff021916908373ffffffffffffffffffffffffffffffffffffffff1602179055505b6040518060a00160405280600115158152602001821515815260200184815260200183815260200142815250600160008673ffffffffffffffffffffffffffffffffffffffff1673ffffffffffffffffffffffffffffffffffffffff16815260200190815260200160002060008201518160000160006101000a81548160ff02191690831515021790555060208201518160000160016101000a81548160ff0219169083151502179055506040820151816001019080519060200190610a749291906111a0565b5060608201518160020155608082015181600301559050508373ffffffffffffffffffffffffffffffffffffffff167ff78d15a77505dac1c4de5cac9c2c7ae746da8e30f2265047a7c77dc5de77fde48285604051610ad4929190611d84565b60405180910390a250505050565b60008060009054906101000a900473ffffffffffffffffffffffffffffffffffffffff16905090565b60058181548110610b1b57600080fd5b906000526020600020016000915054906101000a900473ffffffffffffffffffffffffffffffffffffffff1681565b610b52610f09565b60008110158015610b64575060648111155b610ba3576040517f08c379a0000000000000000000000000000000000000000000000000000000008152600401610b9a90611e26565b60405180910390fd5b8060048190555050565b60038181548110610bbd57600080fd5b906000526020600020016000915090508054610bd890611abe565b80601f0160208091040260200160405190810160405280929190818152602001828054610c0490611abe565b8015610c515780601f10610c2657610100808354040283529160200191610c51565b820191906000526020600020905b815481529060010190602001808311610c3457829003601f168201915b505050505081565b610c61610f09565b600281604051610c719190611b2b565b908152602001604051809103902060000160009054906101000a900460ff16610ccf576040517f08c379a0000000000000000000000000000000000000000000000000000000008152600401610cc690611b8e565b60405180910390fd5b60005b600380549050811015610dc157818051906020012060038281548110610cfb57610cfa611c4a565b5b90600052602060002001604051610d129190611ee9565b604051809103902003610dae5760036001600380549050610d339190611f00565b81548110610d4457610d43611c4a565b5b9060005260206000200160038281548110610d6257610d61611c4a565b5b906000526020600020019081610d78919061210b565b506003805480610d8b57610d8a6121f3565b5b600190038181906000526020600020016000610da791906111f9565b9055610dc1565b8080610db990611cdc565b915050610cd2565b50600281604051610dd29190611b2b565b9081526020016040518091039020600080820160006101000a81549060ff0219169055600182016000905550507fade49dcedff749d125bd467ee7cb240b4d93d6e294fb16574c56c9786b7d35ae81604051610e2e9190611a28565b60405180910390a150565b610e41610f09565b600073ffffffffffffffffffffffffffffffffffffffff168173ffffffffffffffffffffffffffffffffffffffff1603610eb35760006040517f1e4fbdf7000000000000000000000000000000000000000000000000000000008152600401610eaa9190611996565b60405180910390fd5b610ebc81610f90565b50565b60016020528060005260406000206000915090508060000160009054906101000a900460ff16908060000160019054906101000a900460ff16908060020154908060030154905084565b610f11611198565b73ffffffffffffffffffffffffffffffffffffffff16610f2f610ae2565b73ffffffffffffffffffffffffffffffffffffffff1614610f8e57610f52611198565b6040517f118cdaa7000000000000000000000000000000000000000000000000000000008152600401610f859190611996565b60405180910390fd5b565b60008060009054906101000a900473ffffffffffffffffffffffffffffffffffffffff169050816000806101000a81548173ffffffffffffffffffffffffffffffffffffffff021916908373ffffffffffffffffffffffffffffffffffffffff1602179055508173ffffffffffffffffffffffffffffffffffffffff168173ffffffffffffffffffffffffffffffffffffffff167f8be0079c531659141344cd1fd0a4f28419497f9722a3daafe3b4186f6b6457e060405160405180910390a35050565b6002826040516110649190611b2b565b908152602001604051809103902060000160009054906101000a900460ff16156110c3576040517f08c379a00000000000000000000000000000000000000000000000000000000081526004016110ba9061226e565b60405180910390fd5b6040518060400160405280600115158152602001828152506002836040516110eb9190611b2b565b908152602001604051809103902060008201518160000160006101000a81548160ff0219169083151502179055506020820151816001015590505060038290806001815401808255809150506001900390600052602060002001600090919091909150908161115a919061228e565b507fd68db30cf75eb83241d742163152d5c0a08d1f75a3e4397fd220f5cd44a01fb1828260405161118c929190611c1a565b60405180910390a15050565b600033905090565b8280548282559060005260206000209081019282156111e8579160200282015b828111156111e75782518290816111d7919061228e565b50916020019190600101906111c0565b5b5090506111f59190611239565b5090565b50805461120590611abe565b6000825580601f106112175750611236565b601f016020900490600052602060002090810190611235919061125d565b5b50565b5b80821115611259576000818161125091906111f9565b5060010161123a565b5090565b5b8082111561127657600081600090555060010161125e565b5090565b6000604051905090565b600080fd5b600080fd5b600073ffffffffffffffffffffffffffffffffffffffff82169050919050565b60006112b98261128e565b9050919050565b6112c9816112ae565b81146112d457600080fd5b50565b6000813590506112e6816112c0565b92915050565b60006020828403121561130257611301611284565b5b6000611310848285016112d7565b91505092915050565b60008115159050919050565b61132e81611319565b82525050565b600081519050919050565b600082825260208201905092915050565b6000819050602082019050919050565b600081519050919050565b600082825260208201905092915050565b60005b8381101561139a57808201518184015260208101905061137f565b60008484015250505050565b6000601f19601f8301169050919050565b60006113c282611360565b6113cc818561136b565b93506113dc81856020860161137c565b6113e5816113a6565b840191505092915050565b60006113fc83836113b7565b905092915050565b6000602082019050919050565b600061141c82611334565b611426818561133f565b93508360208202850161143885611350565b8060005b85811015611474578484038952815161145585826113f0565b945061146083611404565b925060208a0199505060018101905061143c565b50829750879550505050505092915050565b6000819050919050565b61149981611486565b82525050565b600060a0820190506114b46000830188611325565b6114c16020830187611325565b81810360408301526114d38186611411565b90506114e26060830185611490565b6114ef6080830184611490565b9695505050505050565b600080fd5b600080fd5b7f4e487b7100000000000000000000000000000000000000000000000000000000600052604160045260246000fd5b61153b826113a6565b810181811067ffffffffffffffff8211171561155a57611559611503565b5b80604052505050565b600061156d61127a565b90506115798282611532565b919050565b600067ffffffffffffffff82111561159957611598611503565b5b6115a2826113a6565b9050602081019050919050565b82818337600083830152505050565b60006115d16115cc8461157e565b611563565b9050828152602081018484840111156115ed576115ec6114fe565b5b6115f88482856115af565b509392505050565b600082601f830112611615576116146114f9565b5b81356116258482602086016115be565b91505092915050565b60006020828403121561164457611643611284565b5b600082013567ffffffffffffffff81111561166257611661611289565b5b61166e84828501611600565b91505092915050565b600060408201905061168c6000830185611325565b6116996020830184611490565b9392505050565b60006020820190506116b56000830184611490565b92915050565b600060208201905081810360008301526116d58184611411565b905092915050565b600081519050919050565b600082825260208201905092915050565b6000819050602082019050919050565b611712816112ae565b82525050565b60006117248383611709565b60208301905092915050565b6000602082019050919050565b6000611748826116dd565b61175281856116e8565b935061175d836116f9565b8060005b8381101561178e5781516117758882611718565b975061178083611730565b925050600181019050611761565b5085935050505092915050565b600060208201905081810360008301526117b5818461173d565b905092915050565b6117c681611486565b81146117d157600080fd5b50565b6000813590506117e3816117bd565b92915050565b60008060408385031215611800576117ff611284565b5b600083013567ffffffffffffffff81111561181e5761181d611289565b5b61182a85828601611600565b925050602061183b858286016117d4565b9150509250929050565b600067ffffffffffffffff8211156118605761185f611503565b5b602082029050602081019050919050565b600080fd5b600061188961188484611845565b611563565b905080838252602082019050602084028301858111156118ac576118ab611871565b5b835b818110156118f357803567ffffffffffffffff8111156118d1576118d06114f9565b5b8086016118de8982611600565b855260208501945050506020810190506118ae565b5050509392505050565b600082601f830112611912576119116114f9565b5b8135611922848260208601611876565b91505092915050565b6000806040838503121561194257611941611284565b5b6000611950858286016112d7565b925050602083013567ffffffffffffffff81111561197157611970611289565b5b61197d858286016118fd565b9150509250929050565b611990816112ae565b82525050565b60006020820190506119ab6000830184611987565b92915050565b6000602082840312156119c7576119c6611284565b5b60006119d5848285016117d4565b91505092915050565b600082825260208201905092915050565b60006119fa82611360565b611a0481856119de565b9350611a1481856020860161137c565b611a1d816113a6565b840191505092915050565b60006020820190508181036000830152611a4281846119ef565b905092915050565b6000608082019050611a5f6000830187611325565b611a6c6020830186611325565b611a796040830185611490565b611a866060830184611490565b95945050505050565b7f4e487b7100000000000000000000000000000000000000000000000000000000600052602260045260246000fd5b60006002820490506001821680611ad657607f821691505b602082108103611ae957611ae8611a8f565b5b50919050565b600081905092915050565b6000611b0582611360565b611b0f8185611aef565b9350611b1f81856020860161137c565b80840191505092915050565b6000611b378284611afa565b915081905092915050565b7f5269736b20666163746f7220646f6573206e6f74206578697374000000000000600082015250565b6000611b78601a836119de565b9150611b8382611b42565b602082019050919050565b60006020820190508181036000830152611ba781611b6b565b9050919050565b7f576569676874206d757374206265206265747765656e203120616e6420313030600082015250565b6000611be46020836119de565b9150611bef82611bae565b602082019050919050565b60006020820190508181036000830152611c1381611bd7565b9050919050565b60006040820190508181036000830152611c3481856119ef565b9050611c436020830184611490565b9392505050565b7f4e487b7100000000000000000000000000000000000000000000000000000000600052603260045260246000fd5b7f4e487b7100000000000000000000000000000000000000000000000000000000600052601160045260246000fd5b6000611cb382611486565b9150611cbe83611486565b9250828201905080821115611cd657611cd5611c79565b5b92915050565b6000611ce782611486565b91507fffffffffffffffffffffffffffffffffffffffffffffffffffffffffffffffff8203611d1957611d18611c79565b5b600182019050919050565b7f4e487b7100000000000000000000000000000000000000000000000000000000600052601260045260246000fd5b6000611d5e82611486565b9150611d6983611486565b925082611d7957611d78611d24565b5b828204905092915050565b6000604082019050611d996000830185611325565b8181036020830152611dab8184611411565b90509392505050565b7f5468726573686f6c64206d757374206265206265747765656e203020616e642060008201527f3130300000000000000000000000000000000000000000000000000000000000602082015250565b6000611e106023836119de565b9150611e1b82611db4565b604082019050919050565b60006020820190508181036000830152611e3f81611e03565b9050919050565b600081905092915050565b60008190508160005260206000209050919050565b60008154611e7381611abe565b611e7d8186611e46565b94506001821660008114611e985760018114611ead57611ee0565b60ff1983168652811515820286019350611ee0565b611eb685611e51565b60005b83811015611ed857815481890152600182019150602081019050611eb9565b838801955050505b50505092915050565b6000611ef58284611e66565b915081905092915050565b6000611f0b82611486565b9150611f1683611486565b9250828203905081811115611f2e57611f2d611c79565b5b92915050565b600081549050611f4381611abe565b9050919050565b60008190508160005260206000209050919050565b60008190508160005260206000209050919050565b60006020601f8301049050919050565b600082821b905092915050565b600060088302611fc17fffffffffffffffffffffffffffffffffffffffffffffffffffffffffffffffff82611f84565b611fcb8683611f84565b95508019841693508086168417925050509392505050565b6000819050919050565b6000612008612003611ffe84611486565b611fe3565b611486565b9050919050565b6000819050919050565b61202283611fed565b61203661202e8261200f565b848454611f91565b825550505050565b600090565b61204b61203e565b612056818484612019565b505050565b5b8181101561207a5761206f600082612043565b60018101905061205c565b5050565b601f8211156120bf5761209081611f4a565b61209984611f74565b810160208510156120a8578190505b6120bc6120b485611f74565b83018261205b565b50505b505050565b600082821c905092915050565b60006120e2600019846008026120c4565b1980831691505092915050565b60006120fb83836120d1565b9150826002028217905092915050565b8181036121195750506121f1565b61212282611f34565b67ffffffffffffffff81111561213b5761213a611503565b5b6121458254611abe565b61215082828561207e565b6000601f83116001811461217f576000841561216d578287015490505b61217785826120ef565b8655506121ea565b601f19841661218d87611f5f565b965061219886611f4a565b60005b828110156121c05784890154825560018201915060018501945060208101905061219b565b868310156121dd57848901546121d9601f8916826120d1565b8355505b6001600288020188555050505b5050505050505b565b7f4e487b7100000000000000000000000000000000000000000000000000000000600052603160045260246000fd5b7f5269736b20666163746f7220616c726561647920657869737473000000000000600082015250565b6000612258601a836119de565b915061226382612222565b602082019050919050565b600060208201905081810360008301526122878161224b565b9050919050565b61229782611360565b67ffffffffffffffff8111156122b0576122af611503565b5b6122ba8254611abe565b6122c582828561207e565b600060209050601f8311600181146122f857600084156122e6578287015190505b6122f085826120ef565b865550612358565b601f19841661230686611f4a565b60005b8281101561232e57848901518255600182019150602085019450602081019050612309565b8683101561234b5784890151612347601f8916826120d1565b8355505b6001600288020188555050505b50505050505056fea2646970667358221220286f8ce04e944bc3ceba52d3d33c5bc80484e94770b4e539b005e04cae4749de64736f6c6343000814003350726f787920636f6e74726163742077697468207570677261646561626c65206c6f676963",
  "linkReferences": {},
  "deployedLinkReferences": {}
}