{
  "_format": "hh-sol-artifact-1",
  "contractName": "WalletDrainerDetector",
  "sourceName": "contracts/WalletDrainerDetector.sol",
  "abi": [
    {
      "inputs": [],
      "stateMutability": "nonpayable",
      "type": "constructor"
    },
    {
      "inputs": [
        {
          "internalType": "address",
          "name": "owner",
          "type": "address"
        }
      ],
      "name": "OwnableInvalidOwner",
      "type": "error"
    },
    {
      "inputs": [
        {
          "internalType": "address",
          "name": "account",
          "type": "address"
        }
      ],
      "name": "OwnableUnauthorizedAccount",
      "type": "error"
    },
    {
      "anonymous": false,
      "inputs": [
        {
          "indexed": true,
          "internalType": "address",
          "name": "contractAddress",
          "type": "address"
        },
        {
          "indexed": false,
          "internalType": "bool",
          "name": "isDrainer",
          "type": "bool"
        },
        {
          "indexed": false,
          "internalType": "string",
          "name": "drainerType",
          "type": "string"
        }
      ],
      "name": "ContractAnalyzed",
      "type": "event"
    },
    {
      "anonymous": false,
      "inputs": [
        {
          "indexed": true,
          "internalType": "address",
          "name": "drainerAddress",
          "type": "address"
        },
        {
          "indexed": false,
          "internalType": "string",
          "name": "drainerType",
          "type": "string"
        },
        {
          "indexed": false,
          "internalType": "uint256",
          "name": "timestamp",
          "type": "uint256"
        }
      ],
      "name": "DrainerDetected",
      "type": "event"
    },
    {
      "anonymous": false,
      "inputs": [
        {
          "indexed": false,
          "internalType": "string",
          "name": "pattern",
          "type": "string"
        },
        {
          "indexed": false,
          "internalType": "string",
          "name": "description",
          "type": "string"
        }
      ],
      "name": "DrainerPatternAdded",
      "type": "event"
    },
    {
      "anonymous": false,
      "inputs": [
        {
          "indexed": false,
          "internalType": "string",
          "name": "pattern",
          "type": "string"
        }
      ],
      "name": "DrainerPatternRemoved",
      "type": "event"
    },
    {
      "anonymous": false,
      "inputs": [
        {
          "indexed": true,
          "internalType": "address",
          "name": "previousOwner",
          "type": "address"
        },
        {
          "indexed": true,
          "internalType": "address",
          "name": "newOwner",
          "type": "address"
        }
      ],
      "name": "OwnershipTransferred",
      "type": "event"
    },
    {
      "inputs": [
        {
          "internalType": "string",
          "name": "pattern",
          "type": "string"
        },
        {
          "internalType": "string",
          "name": "description",
          "type": "string"
        }
      ],
      "name": "addDrainerPattern",
      "outputs": [],
      "stateMutability": "nonpayable",
      "type": "function"
    },
    {
      "inputs": [
        {
          "internalType": "uint256",
          "name": "",
          "type": "uint256"
        }
      ],
      "name": "detectedDrainers",
      "outputs": [
        {
          "internalType": "address",
          "name": "",
          "type": "address"
        }
      ],
      "stateMutability": "view",
      "type": "function"
    },
    {
      "inputs": [
        {
          "internalType": "address",
          "name": "",
          "type": "address"
        }
      ],
      "name": "drainerContracts",
      "outputs": [
        {
          "internalType": "bool",
          "name": "analyzed",
          "type": "bool"
        },
        {
          "internalType": "bool",
          "name": "isDrainer",
          "type": "bool"
        },
        {
          "internalType": "string",
          "name": "drainerType",
          "type": "string"
        },
        {
          "internalType": "uint256",
          "name": "detectedAt",
          "type": "uint256"
        }
      ],
      "stateMutability": "view",
      "type": "function"
    },
    {
      "inputs": [
        {
          "internalType": "string",
          "name": "",
          "type": "string"
        }
      ],
      "name": "drainerPatterns",
      "outputs": [
        {
          "internalType": "bool",
          "name": "exists",
          "type": "bool"
        },
        {
          "internalType": "string",
          "name": "description",
          "type": "string"
        },
        {
          "internalType": "uint256",
          "name": "addedAt",
          "type": "uint256"
        }
      ],
      "stateMutability": "view",
      "type": "function"
    },
    {
      "inputs": [],
      "name": "getDetectedDrainers",
      "outputs": [
        {
          "internalType": "address[]",
          "name": "",
          "type": "address[]"
        }
      ],
      "stateMutability": "view",
      "type": "function"
    },
    {
      "inputs": [
        {
          "internalType": "string",
          "name": "pattern",
          "type": "string"
        }
      ],
      "name": "getDrainerPatternDetails",
      "outputs": [
        {
          "internalType": "bool",
          "name": "exists",
          "type": "bool"
        },
        {
          "internalType": "string",
          "name": "description",
          "type": "string"
        },
        {
          "internalType": "uint256",
          "name": "addedAt",
          "type": "uint256"
        }
      ],
      "stateMutability": "view",
      "type": "function"
    },
    {
      "inputs": [],
      "name": "getDrainerPatterns",
      "outputs": [
        {
          "internalType": "string[]",
          "name": "",
          "type": "string[]"
        }
      ],
      "stateMutability": "view",
      "type": "function"
    },
    {
      "inputs": [
        {
          "internalType": "address",
          "name": "contractAddress",
          "type": "address"
        }
      ],
      "name": "isKnownDrainer",
      "outputs": [
        {
          "internalType": "bool",
          "name": "isDrainer",
          "type": "bool"
        },
        {
          "internalType": "string",
          "name": "drainerType",
          "type": "string"
        }
      ],
      "stateMutability": "view",
      "type": "function"
    },
    {
      "inputs": [],
      "name": "owner",
      "outputs": [
        {
          "internalType": "address",
          "name": "",
          "type": "address"
        }
      ],
      "stateMutability": "view",
      "type": "function"
    },
    {
      "inputs": [
        {
          "internalType": "uint256",
          "name": "",
          "type": "uint256"
        }
      ],
      "name": "patternList",
      "outputs": [
        {
          "internalType": "string",
          "name": "",
          "type": "string"
        }
      ],
      "stateMutability": "view",
      "type": "function"
    },
    {
      "inputs": [
        {
          "internalType": "address",
          "name": "contractAddress",
          "type": "address"
        },
        {
          "internalType": "string",
          "name": "drainerType",
          "type": "string"
        }
      ],
      "name": "recordDrainerContract",
      "outputs": [],
      "stateMutability": "nonpayable",
      "type": "function"
    },
    {
      "inputs": [
        {
          "internalType": "address",
          "name": "contractAddress",
          "type": "address"
        }
      ],
      "name": "recordSafeContract",
      "outputs": [],
      "stateMutability": "nonpayable",
      "type": "function"
    },
    {
      "inputs": [
        {
          "internalType": "string",
          "name": "pattern",
          "type": "string"
        }
      ],
      "name": "removeDrainerPattern",
      "outputs": [],
      "stateMutability": "nonpayable",
      "type": "function"
    },
    {
      "inputs": [],
      "name": "renounceOwnership",
      "outputs": [],
      "stateMutability": "nonpayable",
      "type": "function"
    },
    {
      "inputs": [
        {
          "internalType": "address",
          "name": "newOwner",
          "type": "address"
        }
      ],
      "name": "transferOwnership",
      "outputs": [],
      "stateMutability": "nonpayable",
      "type": "function"
    }
  ],
  "bytecode": "0x60806040523480156200001157600080fd5b5033600073ffffffffffffffffffffffffffffffffffffffff168173ffffffffffffffffffffffffffffffffffffffff1603620000885760006040517f1e4fbdf70000000000000000000000000000000000000000000000000000000081526004016200007f9190620004da565b60405180910390fd5b62000099816200026460201b60201c565b50620000fa6040518060400160405280601181526020017f736574417070726f76616c466f72416c6c00000000000000000000000000000081525060405180606001604052806031815260200162002c14603191396200032860201b60201c565b6200013e60405180606001604052806024815260200162002bf0602491396040518060600160405280603b815260200162002b83603b91396200032860201b60201c565b6200019e6040518060400160405280601481526020017f68696464656e206665652073747275637475726500000000000000000000000081525060405180606001604052806026815260200162002b5d602691396200032860201b60201c565b620001fe6040518060400160405280601281526020017f7068697368696e67207369676e617475726500000000000000000000000000008152506040518060600160405280603b815260200162002b22603b91396200032860201b60201c565b6200025e6040518060400160405280600a81526020017f7377656570546f6b656e0000000000000000000000000000000000000000000081525060405180606001604052806032815260200162002bbe603291396200032860201b60201c565b620009ef565b60008060009054906101000a900473ffffffffffffffffffffffffffffffffffffffff169050816000806101000a81548173ffffffffffffffffffffffffffffffffffffffff021916908373ffffffffffffffffffffffffffffffffffffffff1602179055508173ffffffffffffffffffffffffffffffffffffffff168173ffffffffffffffffffffffffffffffffffffffff167f8be0079c531659141344cd1fd0a4f28419497f9722a3daafe3b4186f6b6457e060405160405180910390a35050565b6001826040516200033a919062000570565b908152602001604051809103902060000160009054906101000a900460ff16156200039c576040517f08c379a00000000000000000000000000000000000000000000000000000000081526004016200039390620005ea565b60405180910390fd5b604051806060016040528060011515815260200182815260200142815250600183604051620003cc919062000570565b908152602001604051809103902060008201518160000160006101000a81548160ff02191690831515021790555060208201518160010190816200041191906200087b565b50604082015181600201559050506002829080600181540180825580915050600190039060005260206000200160009091909190915090816200045591906200087b565b507fb4480399dc15cad55aff7b01474c57dfa9453685531716e930d07b020098ee1a828260405162000489929190620009b4565b60405180910390a15050565b600073ffffffffffffffffffffffffffffffffffffffff82169050919050565b6000620004c28262000495565b9050919050565b620004d481620004b5565b82525050565b6000602082019050620004f16000830184620004c9565b92915050565b600081519050919050565b600081905092915050565b60005b838110156200052d57808201518184015260208101905062000510565b60008484015250505050565b60006200054682620004f7565b62000552818562000502565b9350620005648185602086016200050d565b80840191505092915050565b60006200057e828462000539565b915081905092915050565b600082825260208201905092915050565b7f5061747465726e20616c72656164792065786973747300000000000000000000600082015250565b6000620005d260168362000589565b9150620005df826200059a565b602082019050919050565b600060208201905081810360008301526200060581620005c3565b9050919050565b7f4e487b7100000000000000000000000000000000000000000000000000000000600052604160045260246000fd5b7f4e487b7100000000000000000000000000000000000000000000000000000000600052602260045260246000fd5b600060028204905060018216806200068357607f821691505b6020821081036200069957620006986200063b565b5b50919050565b60008190508160005260206000209050919050565b60006020601f8301049050919050565b600082821b905092915050565b600060088302620007037fffffffffffffffffffffffffffffffffffffffffffffffffffffffffffffffff82620006c4565b6200070f8683620006c4565b95508019841693508086168417925050509392505050565b6000819050919050565b6000819050919050565b60006200075c62000756620007508462000727565b62000731565b62000727565b9050919050565b6000819050919050565b62000778836200073b565b62000790620007878262000763565b848454620006d1565b825550505050565b600090565b620007a762000798565b620007b48184846200076d565b505050565b5b81811015620007dc57620007d06000826200079d565b600181019050620007ba565b5050565b601f8211156200082b57620007f5816200069f565b6200080084620006b4565b8101602085101562000810578190505b620008286200081f85620006b4565b830182620007b9565b50505b505050565b600082821c905092915050565b6000620008506000198460080262000830565b1980831691505092915050565b60006200086b83836200083d565b9150826002028217905092915050565b6200088682620004f7565b67ffffffffffffffff811115620008a257620008a16200060c565b5b620008ae82546200066a565b620008bb828285620007e0565b600060209050601f831160018114620008f35760008415620008de578287015190505b620008ea85826200085d565b8655506200095a565b601f19841662000903866200069f565b60005b828110156200092d5784890151825560018201915060208501945060208101905062000906565b868310156200094d578489015162000949601f8916826200083d565b8355505b6001600288020188555050505b505050505050565b6000601f19601f8301169050919050565b60006200098082620004f7565b6200098c818562000589565b93506200099e8185602086016200050d565b620009a98162000962565b840191505092915050565b60006040820190508181036000830152620009d0818562000973565b90508181036020830152620009e6818462000973565b90509392505050565b61212380620009ff6000396000f3fe608060405234801561001057600080fd5b50600436106100f55760003560e01c80638da5cb5b11610097578063c84a68c411610066578063c84a68c41461028e578063d7bf24f6146102be578063e6d251da146102da578063f2fde38b146102f6576100f5565b80638da5cb5b146101f25780639054d72214610210578063a945af8c14610242578063c3572a9c14610272576100f5565b80633aaae1d9116100d35780633aaae1d9146101675780634cdfb18d14610199578063715018a6146101ca5780637779f423146101d4576100f5565b80630492e4fd146100fa578063130c57a61461011857806339aeef821461014b575b600080fd5b610102610312565b60405161010f9190611321565b60405180910390f35b610132600480360381019061012d9190611383565b6103a0565b6040516101429493929190611474565b60405180910390f35b610165600480360381019061016091906115f5565b610472565b005b610181600480360381019061017c919061166d565b610488565b604051610190939291906116b6565b60405180910390f35b6101b360048036038101906101ae9190611383565b61055d565b6040516101c19291906116f4565b60405180910390f35b6101d2610695565b005b6101dc6106a9565b6040516101e99190611830565b60405180910390f35b6101fa610782565b6040516102079190611861565b60405180910390f35b61022a6004803603810190610225919061166d565b6107ab565b604051610239939291906116b6565b60405180910390f35b61025c600480360381019061025791906118a8565b6108b1565b6040516102699190611861565b60405180910390f35b61028c6004803603810190610287919061166d565b6108f0565b005b6102a860048036038101906102a391906118a8565b610ae0565b6040516102b591906118d5565b60405180910390f35b6102d860048036038101906102d391906118f7565b610b8c565b005b6102f460048036038101906102ef9190611383565b610d69565b005b610310600480360381019061030b9190611383565b610e9b565b005b6060600480548060200260200160405190810160405280929190818152602001828054801561039657602002820191906000526020600020905b8160009054906101000a900473ffffffffffffffffffffffffffffffffffffffff1673ffffffffffffffffffffffffffffffffffffffff168152602001906001019080831161034c575b5050505050905090565b60036020528060005260406000206000915090508060000160009054906101000a900460ff16908060000160019054906101000a900460ff16908060010180546103e990611982565b80601f016020809104026020016040519081016040528092919081815260200182805461041590611982565b80156104625780601f1061043757610100808354040283529160200191610462565b820191906000526020600020905b81548152906001019060200180831161044557829003601f168201915b5050505050908060020154905084565b61047a610f21565b6104848282610fa8565b5050565b6001818051602081018201805184825260208301602085012081835280955050505050506000915090508060000160009054906101000a900460ff16908060010180546104d490611982565b80601f016020809104026020016040519081016040528092919081815260200182805461050090611982565b801561054d5780601f106105225761010080835404028352916020019161054d565b820191906000526020600020905b81548152906001019060200180831161053057829003601f168201915b5050505050908060020154905083565b600060606000600360008573ffffffffffffffffffffffffffffffffffffffff1673ffffffffffffffffffffffffffffffffffffffff1681526020019081526020016000206040518060800160405290816000820160009054906101000a900460ff161515151581526020016000820160019054906101000a900460ff161515151581526020016001820180546105f390611982565b80601f016020809104026020016040519081016040528092919081815260200182805461061f90611982565b801561066c5780601f106106415761010080835404028352916020019161066c565b820191906000526020600020905b81548152906001019060200180831161064f57829003601f168201915b505050505081526020016002820154815250509050806020015181604001519250925050915091565b61069d610f21565b6106a76000611108565b565b60606002805480602002602001604051908101604052809291908181526020016000905b828210156107795783829060005260206000200180546106ec90611982565b80601f016020809104026020016040519081016040528092919081815260200182805461071890611982565b80156107655780601f1061073a57610100808354040283529160200191610765565b820191906000526020600020905b81548152906001019060200180831161074857829003601f168201915b5050505050815260200190600101906106cd565b50505050905090565b60008060009054906101000a900473ffffffffffffffffffffffffffffffffffffffff16905090565b600060606000806001856040516107c291906119ef565b90815260200160405180910390206040518060600160405290816000820160009054906101000a900460ff1615151515815260200160018201805461080690611982565b80601f016020809104026020016040519081016040528092919081815260200182805461083290611982565b801561087f5780601f106108545761010080835404028352916020019161087f565b820191906000526020600020905b81548152906001019060200180831161086257829003601f168201915b505050505081526020016002820154815250509050806000015181602001518260400151935093509350509193909250565b600481815481106108c157600080fd5b906000526020600020016000915054906101000a900473ffffffffffffffffffffffffffffffffffffffff1681565b6108f8610f21565b60018160405161090891906119ef565b908152602001604051809103902060000160009054906101000a900460ff16610966576040517f08c379a000000000000000000000000000000000000000000000000000000000815260040161095d90611a52565b60405180910390fd5b60005b600280549050811015610a585781805190602001206002828154811061099257610991611a72565b5b906000526020600020016040516109a99190611b44565b604051809103902003610a4557600260016002805490506109ca9190611b8a565b815481106109db576109da611a72565b5b90600052602060002001600282815481106109f9576109f8611a72565b5b906000526020600020019081610a0f9190611d95565b506002805480610a2257610a21611e7d565b5b600190038181906000526020600020016000610a3e91906111d4565b9055610a58565b8080610a5090611eac565b915050610969565b50600181604051610a6991906119ef565b9081526020016040518091039020600080820160006101000a81549060ff0219169055600182016000610a9c91906111d4565b600282016000905550507f28654480be5358e55ea63ed98e353481bc33e8e1dc041f149136e15bda76cc7081604051610ad591906118d5565b60405180910390a150565b60028181548110610af057600080fd5b906000526020600020016000915090508054610b0b90611982565b80601f0160208091040260200160405190810160405280929190818152602001828054610b3790611982565b8015610b845780601f10610b5957610100808354040283529160200191610b84565b820191906000526020600020905b815481529060010190602001808311610b6757829003601f168201915b505050505081565b610b94610f21565b600360008373ffffffffffffffffffffffffffffffffffffffff1673ffffffffffffffffffffffffffffffffffffffff16815260200190815260200160002060000160009054906101000a900460ff16610c4c576004829080600181540180825580915050600190039060005260206000200160009091909190916101000a81548173ffffffffffffffffffffffffffffffffffffffff021916908373ffffffffffffffffffffffffffffffffffffffff1602179055505b604051806080016040528060011515815260200160011515815260200182815260200142815250600360008473ffffffffffffffffffffffffffffffffffffffff1673ffffffffffffffffffffffffffffffffffffffff16815260200190815260200160002060008201518160000160006101000a81548160ff02191690831515021790555060208201518160000160016101000a81548160ff0219169083151502179055506040820151816001019081610d079190611ef4565b50606082015181600201559050508173ffffffffffffffffffffffffffffffffffffffff167f85ff1a3f03d48ba10704a06cf0a2b0be76e9aca38549a81c63479f8249ba49938242604051610d5d929190611fc6565b60405180910390a25050565b610d71610f21565b604051806080016040528060011515815260200160001515815260200160405180602001604052806000815250815260200142815250600360008373ffffffffffffffffffffffffffffffffffffffff1673ffffffffffffffffffffffffffffffffffffffff16815260200190815260200160002060008201518160000160006101000a81548160ff02191690831515021790555060208201518160000160016101000a81548160ff0219169083151502179055506040820151816001019081610e3b9190611ef4565b50606082015181600201559050508073ffffffffffffffffffffffffffffffffffffffff167fd631ed691e2f6ee8db17de114165807c93a37235eef745ba3da42b60eeea175f6000604051610e90919061201c565b60405180910390a250565b610ea3610f21565b600073ffffffffffffffffffffffffffffffffffffffff168173ffffffffffffffffffffffffffffffffffffffff1603610f155760006040517f1e4fbdf7000000000000000000000000000000000000000000000000000000008152600401610f0c9190611861565b60405180910390fd5b610f1e81611108565b50565b610f296111cc565b73ffffffffffffffffffffffffffffffffffffffff16610f47610782565b73ffffffffffffffffffffffffffffffffffffffff1614610fa657610f6a6111cc565b6040517f118cdaa7000000000000000000000000000000000000000000000000000000008152600401610f9d9190611861565b60405180910390fd5b565b600182604051610fb891906119ef565b908152602001604051809103902060000160009054906101000a900460ff1615611017576040517f08c379a000000000000000000000000000000000000000000000000000000000815260040161100e90612096565b60405180910390fd5b60405180606001604052806001151581526020018281526020014281525060018360405161104591906119ef565b908152602001604051809103902060008201518160000160006101000a81548160ff02191690831515021790555060208201518160010190816110889190611ef4565b50604082015181600201559050506002829080600181540180825580915050600190039060005260206000200160009091909190915090816110ca9190611ef4565b507fb4480399dc15cad55aff7b01474c57dfa9453685531716e930d07b020098ee1a82826040516110fc9291906120b6565b60405180910390a15050565b60008060009054906101000a900473ffffffffffffffffffffffffffffffffffffffff169050816000806101000a81548173ffffffffffffffffffffffffffffffffffffffff021916908373ffffffffffffffffffffffffffffffffffffffff1602179055508173ffffffffffffffffffffffffffffffffffffffff168173ffffffffffffffffffffffffffffffffffffffff167f8be0079c531659141344cd1fd0a4f28419497f9722a3daafe3b4186f6b6457e060405160405180910390a35050565b600033905090565b5080546111e090611982565b6000825580601f106111f25750611211565b601f0160209004906000526020600020908101906112109190611214565b5b50565b5b8082111561122d576000816000905550600101611215565b5090565b600081519050919050565b600082825260208201905092915050565b6000819050602082019050919050565b600073ffffffffffffffffffffffffffffffffffffffff82169050919050565b60006112888261125d565b9050919050565b6112988161127d565b82525050565b60006112aa838361128f565b60208301905092915050565b6000602082019050919050565b60006112ce82611231565b6112d8818561123c565b93506112e38361124d565b8060005b838110156113145781516112fb888261129e565b9750611306836112b6565b9250506001810190506112e7565b5085935050505092915050565b6000602082019050818103600083015261133b81846112c3565b905092915050565b6000604051905090565b600080fd5b600080fd5b6113608161127d565b811461136b57600080fd5b50565b60008135905061137d81611357565b92915050565b6000602082840312156113995761139861134d565b5b60006113a78482850161136e565b91505092915050565b60008115159050919050565b6113c5816113b0565b82525050565b600081519050919050565b600082825260208201905092915050565b60005b838110156114055780820151818401526020810190506113ea565b60008484015250505050565b6000601f19601f8301169050919050565b600061142d826113cb565b61143781856113d6565b93506114478185602086016113e7565b61145081611411565b840191505092915050565b6000819050919050565b61146e8161145b565b82525050565b600060808201905061148960008301876113bc565b61149660208301866113bc565b81810360408301526114a88185611422565b90506114b76060830184611465565b95945050505050565b600080fd5b600080fd5b7f4e487b7100000000000000000000000000000000000000000000000000000000600052604160045260246000fd5b61150282611411565b810181811067ffffffffffffffff82111715611521576115206114ca565b5b80604052505050565b6000611534611343565b905061154082826114f9565b919050565b600067ffffffffffffffff8211156115605761155f6114ca565b5b61156982611411565b9050602081019050919050565b82818337600083830152505050565b600061159861159384611545565b61152a565b9050828152602081018484840111156115b4576115b36114c5565b5b6115bf848285611576565b509392505050565b600082601f8301126115dc576115db6114c0565b5b81356115ec848260208601611585565b91505092915050565b6000806040838503121561160c5761160b61134d565b5b600083013567ffffffffffffffff81111561162a57611629611352565b5b611636858286016115c7565b925050602083013567ffffffffffffffff81111561165757611656611352565b5b611663858286016115c7565b9150509250929050565b6000602082840312156116835761168261134d565b5b600082013567ffffffffffffffff8111156116a1576116a0611352565b5b6116ad848285016115c7565b91505092915050565b60006060820190506116cb60008301866113bc565b81810360208301526116dd8185611422565b90506116ec6040830184611465565b949350505050565b600060408201905061170960008301856113bc565b818103602083015261171b8184611422565b90509392505050565b600081519050919050565b600082825260208201905092915050565b6000819050602082019050919050565b600082825260208201905092915050565b600061176c826113cb565b6117768185611750565b93506117868185602086016113e7565b61178f81611411565b840191505092915050565b60006117a68383611761565b905092915050565b6000602082019050919050565b60006117c682611724565b6117d0818561172f565b9350836020820285016117e285611740565b8060005b8581101561181e57848403895281516117ff858261179a565b945061180a836117ae565b925060208a019950506001810190506117e6565b50829750879550505050505092915050565b6000602082019050818103600083015261184a81846117bb565b905092915050565b61185b8161127d565b82525050565b60006020820190506118766000830184611852565b92915050565b6118858161145b565b811461189057600080fd5b50565b6000813590506118a28161187c565b92915050565b6000602082840312156118be576118bd61134d565b5b60006118cc84828501611893565b91505092915050565b600060208201905081810360008301526118ef8184611422565b905092915050565b6000806040838503121561190e5761190d61134d565b5b600061191c8582860161136e565b925050602083013567ffffffffffffffff81111561193d5761193c611352565b5b611949858286016115c7565b9150509250929050565b7f4e487b7100000000000000000000000000000000000000000000000000000000600052602260045260246000fd5b6000600282049050600182168061199a57607f821691505b6020821081036119ad576119ac611953565b5b50919050565b600081905092915050565b60006119c9826113cb565b6119d381856119b3565b93506119e38185602086016113e7565b80840191505092915050565b60006119fb82846119be565b915081905092915050565b7f5061747465726e20646f6573206e6f7420657869737400000000000000000000600082015250565b6000611a3c6016836113d6565b9150611a4782611a06565b602082019050919050565b60006020820190508181036000830152611a6b81611a2f565b9050919050565b7f4e487b7100000000000000000000000000000000000000000000000000000000600052603260045260246000fd5b600081905092915050565b60008190508160005260206000209050919050565b60008154611ace81611982565b611ad88186611aa1565b94506001821660008114611af35760018114611b0857611b3b565b60ff1983168652811515820286019350611b3b565b611b1185611aac565b60005b83811015611b3357815481890152600182019150602081019050611b14565b838801955050505b50505092915050565b6000611b508284611ac1565b915081905092915050565b7f4e487b7100000000000000000000000000000000000000000000000000000000600052601160045260246000fd5b6000611b958261145b565b9150611ba08361145b565b9250828203905081811115611bb857611bb7611b5b565b5b92915050565b600081549050611bcd81611982565b9050919050565b60008190508160005260206000209050919050565b60008190508160005260206000209050919050565b60006020601f8301049050919050565b600082821b905092915050565b600060088302611c4b7fffffffffffffffffffffffffffffffffffffffffffffffffffffffffffffffff82611c0e565b611c558683611c0e565b95508019841693508086168417925050509392505050565b6000819050919050565b6000611c92611c8d611c888461145b565b611c6d565b61145b565b9050919050565b6000819050919050565b611cac83611c77565b611cc0611cb882611c99565b848454611c1b565b825550505050565b600090565b611cd5611cc8565b611ce0818484611ca3565b505050565b5b81811015611d0457611cf9600082611ccd565b600181019050611ce6565b5050565b601f821115611d4957611d1a81611bd4565b611d2384611bfe565b81016020851015611d32578190505b611d46611d3e85611bfe565b830182611ce5565b50505b505050565b600082821c905092915050565b6000611d6c60001984600802611d4e565b1980831691505092915050565b6000611d858383611d5b565b9150826002028217905092915050565b818103611da3575050611e7b565b611dac82611bbe565b67ffffffffffffffff811115611dc557611dc46114ca565b5b611dcf8254611982565b611dda828285611d08565b6000601f831160018114611e095760008415611df7578287015490505b611e018582611d79565b865550611e74565b601f198416611e1787611be9565b9650611e2286611bd4565b60005b82811015611e4a57848901548255600182019150600185019450602081019050611e25565b86831015611e675784890154611e63601f891682611d5b565b8355505b6001600288020188555050505b5050505050505b565b7f4e487b7100000000000000000000000000000000000000000000000000000000600052603160045260246000fd5b6000611eb78261145b565b91507fffffffffffffffffffffffffffffffffffffffffffffffffffffffffffffffff8203611ee957611ee8611b5b565b5b600182019050919050565b611efd826113cb565b67ffffffffffffffff811115611f1657611f156114ca565b5b611f208254611982565b611f2b828285611d08565b600060209050601f831160018114611f5e5760008415611f4c578287015190505b611f568582611d79565b865550611fbe565b601f198416611f6c86611bd4565b60005b82811015611f9457848901518255600182019150602085019450602081019050611f6f565b86831015611fb15784890151611fad601f891682611d5b565b8355505b6001600288020188555050505b505050505050565b60006040820190508181036000830152611fe08185611422565b9050611fef6020830184611465565b9392505050565b50565b60006120066000836113d6565b915061201182611ff6565b600082019050919050565b600060408201905061203160008301846113bc565b818103602083015261204281611ff9565b905092915050565b7f5061747465726e20616c72656164792065786973747300000000000000000000600082015250565b60006120806016836113d6565b915061208b8261204a565b602082019050919050565b600060208201905081810360008301526120af81612073565b9050919050565b600060408201905081810360008301526120d08185611422565b905081810360208301526120e48184611422565b9050939250505056fea2646970667358221220486cbcdb22247a10fe0c186fe9f83527c713919204c1931e3666cf5487cf9dbc64736f6c63430008140033436f6e74726163742072657175657374696e67207369676e61747572657320746861742063616e2062652075736564206d616c6963696f75736c79436f6e747261637420776974682068696464656e206f7220657863657373697665206665657346756e6374696f6e20746861742063616e207472616e7366657220746f6b656e7320776974686f757420737065636966696320617070726f76616c46756e6374696f6e20746861742063616e20737765657020616c6c20746f6b656e732066726f6d20616e20616464726573737472616e7366657246726f6d207769746820756e6c696d6974656420617070726f76616c46756e6374696f6e20746861742063616e20617070726f766520616c6c20746f6b656e7320666f72207472616e73666572",
  "linkReferences": {},
  "deployedLinkReferences": {}
}