{
  "_format": "hh-sol-artifact-1",
  "contractName": "SWatchdogRegistry",
  "sourceName": "contracts/SWatchdogRegistry.sol",
  "abi": [
    {
      "inputs": [
        {
          "internalType": "address",
          "name": "_transactionMonitor",
          "type": "address"
        },
        {
          "internalType": "address",
          "name": "_rugPullDetector",
          "type": "address"
        },
        {
          "internalType": "address",
          "name": "_walletDrainerDetector",
          "type": "address"
        }
      ],
      "stateMutability": "nonpayable",
      "type": "constructor"
    },
    {
      "inputs": [
        {
          "internalType": "address",
          "name": "owner",
          "type": "address"
        }
      ],
      "name": "OwnableInvalidOwner",
      "type": "error"
    },
    {
      "inputs": [
        {
          "internalType": "address",
          "name": "account",
          "type": "address"
        }
      ],
      "name": "OwnableUnauthorizedAccount",
      "type": "error"
    },
    {
      "anonymous": false,
      "inputs": [
        {
          "indexed": false,
          "internalType": "address",
          "name": "subscriber",
          "type": "address"
        },
        {
          "indexed": false,
          "internalType": "bool",
          "name": "isSubscribed",
          "type": "bool"
        }
      ],
      "name": "AlertSubscriptionUpdated",
      "type": "event"
    },
    {
      "anonymous": false,
      "inputs": [
        {
          "indexed": false,
          "internalType": "string",
          "name": "componentName",
          "type": "string"
        },
        {
          "indexed": false,
          "internalType": "address",
          "name": "componentAddress",
          "type": "address"
        }
      ],
      "name": "MonitoringComponentUpdated",
      "type": "event"
    },
    {
      "anonymous": false,
      "inputs": [
        {
          "indexed": true,
          "internalType": "address",
          "name": "previousOwner",
          "type": "address"
        },
        {
          "indexed": true,
          "internalType": "address",
          "name": "newOwner",
          "type": "address"
        }
      ],
      "name": "OwnershipTransferred",
      "type": "event"
    },
    {
      "anonymous": false,
      "inputs": [
        {
          "indexed": true,
          "internalType": "uint256",
          "name": "alertId",
          "type": "uint256"
        },
        {
          "indexed": false,
          "internalType": "string",
          "name": "alertType",
          "type": "string"
        },
        {
          "indexed": true,
          "internalType": "address",
          "name": "targetAddress",
          "type": "address"
        },
        {
          "indexed": false,
          "internalType": "string",
          "name": "details",
          "type": "string"
        },
        {
          "indexed": false,
          "internalType": "uint256",
          "name": "timestamp",
          "type": "uint256"
        }
      ],
      "name": "SecurityAlertRaised",
      "type": "event"
    },
    {
      "inputs": [],
      "name": "alertCount",
      "outputs": [
        {
          "internalType": "uint256",
          "name": "",
          "type": "uint256"
        }
      ],
      "stateMutability": "view",
      "type": "function"
    },
    {
      "inputs": [
        {
          "internalType": "uint256",
          "name": "",
          "type": "uint256"
        }
      ],
      "name": "alerts",
      "outputs": [
        {
          "internalType": "uint256",
          "name": "id",
          "type": "uint256"
        },
        {
          "internalType": "string",
          "name": "alertType",
          "type": "string"
        },
        {
          "internalType": "address",
          "name": "targetAddress",
          "type": "address"
        },
        {
          "internalType": "string",
          "name": "details",
          "type": "string"
        },
        {
          "internalType": "uint256",
          "name": "timestamp",
          "type": "uint256"
        },
        {
          "internalType": "bool",
          "name": "resolved",
          "type": "bool"
        }
      ],
      "stateMutability": "view",
      "type": "function"
    },
    {
      "inputs": [],
      "name": "getActiveAlerts",
      "outputs": [
        {
          "components": [
            {
              "internalType": "uint256",
              "name": "id",
              "type": "uint256"
            },
            {
              "internalType": "string",
              "name": "alertType",
              "type": "string"
            },
            {
              "internalType": "address",
              "name": "targetAddress",
              "type": "address"
            },
            {
              "internalType": "string",
              "name": "details",
              "type": "string"
            },
            {
              "internalType": "uint256",
              "name": "timestamp",
              "type": "uint256"
            },
            {
              "internalType": "bool",
              "name": "resolved",
              "type": "bool"
            }
          ],
          "internalType": "struct SWatchdogRegistry.SecurityAlert[]",
          "name": "",
          "type": "tuple[]"
        }
      ],
      "stateMutability": "view",
      "type": "function"
    },
    {
      "inputs": [],
      "name": "getAllAlerts",
      "outputs": [
        {
          "components": [
            {
              "internalType": "uint256",
              "name": "id",
              "type": "uint256"
            },
            {
              "internalType": "string",
              "name": "alertType",
              "type": "string"
            },
            {
              "internalType": "address",
              "name": "targetAddress",
              "type": "address"
            },
            {
              "internalType": "string",
              "name": "details",
              "type": "string"
            },
            {
              "internalType": "uint256",
              "name": "timestamp",
              "type": "uint256"
            },
            {
              "internalType": "bool",
              "name": "resolved",
              "type": "bool"
            }
          ],
          "internalType": "struct SWatchdogRegistry.SecurityAlert[]",
          "name": "",
          "type": "tuple[]"
        }
      ],
      "stateMutability": "view",
      "type": "function"
    },
    {
      "inputs": [],
      "name": "getSubscribers",
      "outputs": [
        {
          "internalType": "address[]",
          "name": "",
          "type": "address[]"
        }
      ],
      "stateMutability": "view",
      "type": "function"
    },
    {
      "inputs": [
        {
          "internalType": "address",
          "name": "addr",
          "type": "address"
        }
      ],
      "name": "isAddressOnWatchlist",
      "outputs": [
        {
          "internalType": "bool",
          "name": "isListed",
          "type": "bool"
        },
        {
          "internalType": "string",
          "name": "category",
          "type": "string"
        }
      ],
      "stateMutability": "view",
      "type": "function"
    },
    {
      "inputs": [
        {
          "internalType": "address",
          "name": "contractAddress",
          "type": "address"
        }
      ],
      "name": "isContractDrainer",
      "outputs": [
        {
          "internalType": "bool",
          "name": "isDrainer",
          "type": "bool"
        },
        {
          "internalType": "string",
          "name": "drainerType",
          "type": "string"
        }
      ],
      "stateMutability": "view",
      "type": "function"
    },
    {
      "inputs": [
        {
          "internalType": "address",
          "name": "tokenAddress",
          "type": "address"
        }
      ],
      "name": "isTokenRugPull",
      "outputs": [
        {
          "internalType": "bool",
          "name": "isPotentialRugPull",
          "type": "bool"
        },
        {
          "internalType": "uint256",
          "name": "riskScore",
          "type": "uint256"
        }
      ],
      "stateMutability": "view",
      "type": "function"
    },
    {
      "inputs": [],
      "name": "owner",
      "outputs": [
        {
          "internalType": "address",
          "name": "",
          "type": "address"
        }
      ],
      "stateMutability": "view",
      "type": "function"
    },
    {
      "inputs": [
        {
          "internalType": "string",
          "name": "alertType",
          "type": "string"
        },
        {
          "internalType": "address",
          "name": "targetAddress",
          "type": "address"
        },
        {
          "internalType": "string",
          "name": "details",
          "type": "string"
        }
      ],
      "name": "raiseSecurityAlert",
      "outputs": [
        {
          "internalType": "uint256",
          "name": "alertId",
          "type": "uint256"
        }
      ],
      "stateMutability": "nonpayable",
      "type": "function"
    },
    {
      "inputs": [],
      "name": "renounceOwnership",
      "outputs": [],
      "stateMutability": "nonpayable",
      "type": "function"
    },
    {
      "inputs": [
        {
          "internalType": "uint256",
          "name": "alertId",
          "type": "uint256"
        }
      ],
      "name": "resolveAlert",
      "outputs": [],
      "stateMutability": "nonpayable",
      "type": "function"
    },
    {
      "inputs": [],
      "name": "rugPullDetector",
      "outputs": [
        {
          "internalType": "contract RugPullDetector",
          "name": "",
          "type": "address"
        }
      ],
      "stateMutability": "view",
      "type": "function"
    },
    {
      "inputs": [],
      "name": "subscribe",
      "outputs": [],
      "stateMutability": "nonpayable",
      "type": "function"
    },
    {
      "inputs": [
        {
          "internalType": "uint256",
          "name": "",
          "type": "uint256"
        }
      ],
      "name": "subscriberList",
      "outputs": [
        {
          "internalType": "address",
          "name": "",
          "type": "address"
        }
      ],
      "stateMutability": "view",
      "type": "function"
    },
    {
      "inputs": [
        {
          "internalType": "address",
          "name": "",
          "type": "address"
        }
      ],
      "name": "subscribers",
      "outputs": [
        {
          "internalType": "bool",
          "name": "",
          "type": "bool"
        }
      ],
      "stateMutability": "view",
      "type": "function"
    },
    {
      "inputs": [],
      "name": "transactionMonitor",
      "outputs": [
        {
          "internalType": "contract TransactionMonitor",
          "name": "",
          "type": "address"
        }
      ],
      "stateMutability": "view",
      "type": "function"
    },
    {
      "inputs": [
        {
          "internalType": "address",
          "name": "newOwner",
          "type": "address"
        }
      ],
      "name": "transferOwnership",
      "outputs": [],
      "stateMutability": "nonpayable",
      "type": "function"
    },
    {
      "inputs": [],
      "name": "unsubscribe",
      "outputs": [],
      "stateMutability": "nonpayable",
      "type": "function"
    },
    {
      "inputs": [
        {
          "internalType": "string",
          "name": "componentName",
          "type": "string"
        },
        {
          "internalType": "address",
          "name": "componentAddress",
          "type": "address"
        }
      ],
      "name": "updateMonitoringComponent",
      "outputs": [],
      "stateMutability": "nonpayable",
      "type": "function"
    },
    {
      "inputs": [],
      "name": "walletDrainerDetector",
      "outputs": [
        {
          "internalType": "contract WalletDrainerDetector",
          "name": "",
          "type": "address"
        }
      ],
      "stateMutability": "view",
      "type": "function"
    }
  ],
  "bytecode": "0x60806040523480156200001157600080fd5b506040516200305f3803806200305f8339818101604052810190620000379190620002c1565b33600073ffffffffffffffffffffffffffffffffffffffff168173ffffffffffffffffffffffffffffffffffffffff1603620000ad5760006040517f1e4fbdf7000000000000000000000000000000000000000000000000000000008152600401620000a491906200032e565b60405180910390fd5b620000be816200019360201b60201c565b5082600160006101000a81548173ffffffffffffffffffffffffffffffffffffffff021916908373ffffffffffffffffffffffffffffffffffffffff16021790555081600260006101000a81548173ffffffffffffffffffffffffffffffffffffffff021916908373ffffffffffffffffffffffffffffffffffffffff16021790555080600360006101000a81548173ffffffffffffffffffffffffffffffffffffffff021916908373ffffffffffffffffffffffffffffffffffffffff16021790555060006007819055505050506200034b565b60008060009054906101000a900473ffffffffffffffffffffffffffffffffffffffff169050816000806101000a81548173ffffffffffffffffffffffffffffffffffffffff021916908373ffffffffffffffffffffffffffffffffffffffff1602179055508173ffffffffffffffffffffffffffffffffffffffff168173ffffffffffffffffffffffffffffffffffffffff167f8be0079c531659141344cd1fd0a4f28419497f9722a3daafe3b4186f6b6457e060405160405180910390a35050565b600080fd5b600073ffffffffffffffffffffffffffffffffffffffff82169050919050565b600062000289826200025c565b9050919050565b6200029b816200027c565b8114620002a757600080fd5b50565b600081519050620002bb8162000290565b92915050565b600080600060608486031215620002dd57620002dc62000257565b5b6000620002ed86828701620002aa565b93505060206200030086828701620002aa565b92505060406200031386828701620002aa565b9150509250925092565b62000328816200027c565b82525050565b60006020820190506200034560008301846200031d565b92915050565b612d04806200035b6000396000f3fe608060405234801561001057600080fd5b50600436106101375760003560e01c806383c2eaba116100b8578063af08e1bd1161007c578063af08e1bd14610332578063cb8d032e14610363578063e621d8d614610394578063f2fde38b146103b2578063fa2956dc146103ce578063fcae4484146103ec57610137565b806383c2eaba146102a05780638da5cb5b146102d05780638f449a05146102ee5780639863022c146102f8578063ab4464911461031457610137565b8063377eecd8116100ff578063377eecd8146101fa578063445dc6651461022a5780635745ae2814610248578063715018a61461027857806374865fad1461028257610137565b806305cc61ad1461013c578063074a67531461015a578063171d073a146101785780631d1b842a146101ad5780632e0e053f146101de575b600080fd5b6101446103f6565b6040516101519190611b14565b60405180910390f35b610162610484565b60405161016f9190611d4c565b60405180910390f35b610192600480360381019061018d9190611dae565b61068c565b6040516101a496959493929190611e52565b60405180910390f35b6101c760048036038101906101c29190611eed565b610815565b6040516101d5929190611f1a565b60405180910390f35b6101f860048036038101906101f39190611dae565b6108c8565b005b610214600480360381019061020f919061207f565b6109cb565b604051610221919061210a565b60405180910390f35b610232610b68565b60405161023f9190612184565b60405180910390f35b610262600480360381019061025d9190611eed565b610b8e565b60405161026f919061219f565b60405180910390f35b610280610bae565b005b61028a610bc2565b60405161029791906121db565b60405180910390f35b6102ba60048036038101906102b59190611dae565b610be8565b6040516102c791906121f6565b60405180910390f35b6102d8610c27565b6040516102e591906121f6565b60405180910390f35b6102f6610c50565b005b610312600480360381019061030d9190612211565b610dd4565b005b61031c611075565b604051610329919061210a565b60405180910390f35b61034c60048036038101906103479190611eed565b61107b565b60405161035a929190611f1a565b60405180910390f35b61037d60048036038101906103789190611eed565b611129565b60405161038b92919061226d565b60405180910390f35b61039c6111fd565b6040516103a991906122b7565b60405180910390f35b6103cc60048036038101906103c79190611eed565b611223565b005b6103d66112a9565b6040516103e39190611d4c565b60405180910390f35b6103f46115d6565b005b6060600680548060200260200160405190810160405280929190818152602001828054801561047a57602002820191906000526020600020905b8160009054906101000a900473ffffffffffffffffffffffffffffffffffffffff1673ffffffffffffffffffffffffffffffffffffffff1681526020019060010190808311610430575b5050505050905090565b60606004805480602002602001604051908101604052809291908181526020016000905b8282101561068357838290600052602060002090600602016040518060c0016040529081600082015481526020016001820180546104e590612301565b80601f016020809104026020016040519081016040528092919081815260200182805461051190612301565b801561055e5780601f106105335761010080835404028352916020019161055e565b820191906000526020600020905b81548152906001019060200180831161054157829003601f168201915b505050505081526020016002820160009054906101000a900473ffffffffffffffffffffffffffffffffffffffff1673ffffffffffffffffffffffffffffffffffffffff1673ffffffffffffffffffffffffffffffffffffffff1681526020016003820180546105cd90612301565b80601f01602080910402602001604051908101604052809291908181526020018280546105f990612301565b80156106465780601f1061061b57610100808354040283529160200191610646565b820191906000526020600020905b81548152906001019060200180831161062957829003601f168201915b50505050508152602001600482015481526020016005820160009054906101000a900460ff161515151581525050815260200190600101906104a8565b50505050905090565b6004818154811061069c57600080fd5b90600052602060002090600602016000915090508060000154908060010180546106c590612301565b80601f01602080910402602001604051908101604052809291908181526020018280546106f190612301565b801561073e5780601f106107135761010080835404028352916020019161073e565b820191906000526020600020905b81548152906001019060200180831161072157829003601f168201915b5050505050908060020160009054906101000a900473ffffffffffffffffffffffffffffffffffffffff169080600301805461077990612301565b80601f01602080910402602001604051908101604052809291908181526020018280546107a590612301565b80156107f25780601f106107c7576101008083540402835291602001916107f2565b820191906000526020600020905b8154815290600101906020018083116107d557829003601f168201915b5050505050908060040154908060050160009054906101000a900460ff16905086565b60006060600160009054906101000a900473ffffffffffffffffffffffffffffffffffffffff1673ffffffffffffffffffffffffffffffffffffffff16634bd03a1f846040518263ffffffff1660e01b815260040161087491906121f6565b600060405180830381865afa158015610891573d6000803e3d6000fd5b505050506040513d6000823e3d601f19601f820116820180604052508101906108ba91906123e3565b508092508193505050915091565b6108d0611883565b6004805490508110610917576040517f08c379a000000000000000000000000000000000000000000000000000000000815260040161090e9061249e565b60405180910390fd5b6004818154811061092b5761092a6124be565b5b906000526020600020906006020160050160009054906101000a900460ff161561098a576040517f08c379a000000000000000000000000000000000000000000000000000000000815260040161098190612539565b60405180910390fd5b6001600482815481106109a05761099f6124be565b5b906000526020600020906006020160050160006101000a81548160ff02191690831515021790555050565b60006109d5611883565b600760008154809291906109e890612588565b91905055905060006040518060c001604052808381526020018681526020018573ffffffffffffffffffffffffffffffffffffffff1681526020018481526020014281526020016000151581525090506004819080600181540180825580915050600190039060005260206000209060060201600090919091909150600082015181600001556020820151816001019081610a839190612772565b5060408201518160020160006101000a81548173ffffffffffffffffffffffffffffffffffffffff021916908373ffffffffffffffffffffffffffffffffffffffff1602179055506060820151816003019081610ae09190612772565b506080820151816004015560a08201518160050160006101000a81548160ff02191690831515021790555050508373ffffffffffffffffffffffffffffffffffffffff16827fbd2ba84d2277b6e083bd989c6c4e52af494141a0f9421cb442fb5f05835f5032878642604051610b5893929190612844565b60405180910390a3509392505050565b600360009054906101000a900473ffffffffffffffffffffffffffffffffffffffff1681565b60056020528060005260406000206000915054906101000a900460ff1681565b610bb6611883565b610bc0600061190a565b565b600260009054906101000a900473ffffffffffffffffffffffffffffffffffffffff1681565b60068181548110610bf857600080fd5b906000526020600020016000915054906101000a900473ffffffffffffffffffffffffffffffffffffffff1681565b60008060009054906101000a900473ffffffffffffffffffffffffffffffffffffffff16905090565b600560003373ffffffffffffffffffffffffffffffffffffffff1673ffffffffffffffffffffffffffffffffffffffff16815260200190815260200160002060009054906101000a900460ff1615610cdd576040517f08c379a0000000000000000000000000000000000000000000000000000000008152600401610cd4906128d5565b60405180910390fd5b6001600560003373ffffffffffffffffffffffffffffffffffffffff1673ffffffffffffffffffffffffffffffffffffffff16815260200190815260200160002060006101000a81548160ff0219169083151502179055506006339080600181540180825580915050600190039060005260206000200160009091909190916101000a81548173ffffffffffffffffffffffffffffffffffffffff021916908373ffffffffffffffffffffffffffffffffffffffff1602179055507f508d7738468f70b54239224c5db7819636fd6193af07b20a2b57adfcd3055edc336001604051610dca9291906128f5565b60405180910390a1565b610ddc611883565b600073ffffffffffffffffffffffffffffffffffffffff168173ffffffffffffffffffffffffffffffffffffffff1603610e4b576040517f08c379a0000000000000000000000000000000000000000000000000000000008152600401610e429061296a565b60405180910390fd5b6040518060400160405280601381526020017f7472616e73616374696f6e5f6d6f6e69746f720000000000000000000000000081525080519060200120828051906020012003610edb5780600160006101000a81548173ffffffffffffffffffffffffffffffffffffffff021916908373ffffffffffffffffffffffffffffffffffffffff160217905550611038565b6040518060400160405280601181526020017f7275675f70756c6c5f6465746563746f7200000000000000000000000000000081525080519060200120828051906020012003610f6b5780600260006101000a81548173ffffffffffffffffffffffffffffffffffffffff021916908373ffffffffffffffffffffffffffffffffffffffff160217905550611037565b6040518060400160405280601781526020017f77616c6c65745f647261696e65725f6465746563746f7200000000000000000081525080519060200120828051906020012003610ffb5780600360006101000a81548173ffffffffffffffffffffffffffffffffffffffff021916908373ffffffffffffffffffffffffffffffffffffffff160217905550611036565b6040517f08c379a000000000000000000000000000000000000000000000000000000000815260040161102d906129d6565b60405180910390fd5b5b5b7f09e178b895b8f5c18d482c6a63b551ca4252591d9f48c890ed7debeadb7790be82826040516110699291906129f6565b60405180910390a15050565b60075481565b60006060600360009054906101000a900473ffffffffffffffffffffffffffffffffffffffff1673ffffffffffffffffffffffffffffffffffffffff16634cdfb18d846040518263ffffffff1660e01b81526004016110da91906121f6565b600060405180830381865afa1580156110f7573d6000803e3d6000fd5b505050506040513d6000823e3d601f19601f820116820180604052508101906111209190612a26565b91509150915091565b6000806000806000600260009054906101000a900473ffffffffffffffffffffffffffffffffffffffff1673ffffffffffffffffffffffffffffffffffffffff166322ed3f8f876040518263ffffffff1660e01b815260040161118c91906121f6565b600060405180830381865afa1580156111a9573d6000803e3d6000fd5b505050506040513d6000823e3d601f19601f820116820180604052508101906111d29190612b68565b5093505092509250826111ee57600080945094505050506111f8565b8181945094505050505b915091565b600160009054906101000a900473ffffffffffffffffffffffffffffffffffffffff1681565b61122b611883565b600073ffffffffffffffffffffffffffffffffffffffff168173ffffffffffffffffffffffffffffffffffffffff160361129d5760006040517f1e4fbdf700000000000000000000000000000000000000000000000000000000815260040161129491906121f6565b60405180910390fd5b6112a68161190a565b50565b60606000805b60048054905081101561131557600481815481106112d0576112cf6124be565b5b906000526020600020906006020160050160009054906101000a900460ff166113025781806112fe90612588565b9250505b808061130d90612588565b9150506112af565b5060008167ffffffffffffffff81111561133257611331611f54565b5b60405190808252806020026020018201604052801561136b57816020015b6113586119d6565b8152602001906001900390816113505790505b5090506000805b6004805490508110156115cc5760048181548110611393576113926124be565b5b906000526020600020906006020160050160009054906101000a900460ff166115b957600481815481106113ca576113c96124be565b5b90600052602060002090600602016040518060c0016040529081600082015481526020016001820180546113fd90612301565b80601f016020809104026020016040519081016040528092919081815260200182805461142990612301565b80156114765780601f1061144b57610100808354040283529160200191611476565b820191906000526020600020905b81548152906001019060200180831161145957829003601f168201915b505050505081526020016002820160009054906101000a900473ffffffffffffffffffffffffffffffffffffffff1673ffffffffffffffffffffffffffffffffffffffff1673ffffffffffffffffffffffffffffffffffffffff1681526020016003820180546114e590612301565b80601f016020809104026020016040519081016040528092919081815260200182805461151190612301565b801561155e5780601f106115335761010080835404028352916020019161155e565b820191906000526020600020905b81548152906001019060200180831161154157829003601f168201915b50505050508152602001600482015481526020016005820160009054906101000a900460ff16151515158152505083838151811061159f5761159e6124be565b5b602002602001018190525081806115b590612588565b9250505b80806115c490612588565b915050611372565b5081935050505090565b600560003373ffffffffffffffffffffffffffffffffffffffff1673ffffffffffffffffffffffffffffffffffffffff16815260200190815260200160002060009054906101000a900460ff16611662576040517f08c379a000000000000000000000000000000000000000000000000000000000815260040161165990612c4b565b60405180910390fd5b60005b6006805490508110156117ee573373ffffffffffffffffffffffffffffffffffffffff166006828154811061169d5761169c6124be565b5b9060005260206000200160009054906101000a900473ffffffffffffffffffffffffffffffffffffffff1673ffffffffffffffffffffffffffffffffffffffff16036117db57600660016006805490506116f79190612c6b565b81548110611708576117076124be565b5b9060005260206000200160009054906101000a900473ffffffffffffffffffffffffffffffffffffffff1660068281548110611747576117466124be565b5b9060005260206000200160006101000a81548173ffffffffffffffffffffffffffffffffffffffff021916908373ffffffffffffffffffffffffffffffffffffffff16021790555060068054806117a1576117a0612c9f565b5b6001900381819060005260206000200160006101000a81549073ffffffffffffffffffffffffffffffffffffffff021916905590556117ee565b80806117e690612588565b915050611665565b506000600560003373ffffffffffffffffffffffffffffffffffffffff1673ffffffffffffffffffffffffffffffffffffffff16815260200190815260200160002060006101000a81548160ff0219169083151502179055507f508d7738468f70b54239224c5db7819636fd6193af07b20a2b57adfcd3055edc3360006040516118799291906128f5565b60405180910390a1565b61188b6119ce565b73ffffffffffffffffffffffffffffffffffffffff166118a9610c27565b73ffffffffffffffffffffffffffffffffffffffff1614611908576118cc6119ce565b6040517f118cdaa70000000000000000000000000000000000000000000000000000000081526004016118ff91906121f6565b60405180910390fd5b565b60008060009054906101000a900473ffffffffffffffffffffffffffffffffffffffff169050816000806101000a81548173ffffffffffffffffffffffffffffffffffffffff021916908373ffffffffffffffffffffffffffffffffffffffff1602179055508173ffffffffffffffffffffffffffffffffffffffff168173ffffffffffffffffffffffffffffffffffffffff167f8be0079c531659141344cd1fd0a4f28419497f9722a3daafe3b4186f6b6457e060405160405180910390a35050565b600033905090565b6040518060c001604052806000815260200160608152602001600073ffffffffffffffffffffffffffffffffffffffff16815260200160608152602001600081526020016000151581525090565b600081519050919050565b600082825260208201905092915050565b6000819050602082019050919050565b600073ffffffffffffffffffffffffffffffffffffffff82169050919050565b6000611a7b82611a50565b9050919050565b611a8b81611a70565b82525050565b6000611a9d8383611a82565b60208301905092915050565b6000602082019050919050565b6000611ac182611a24565b611acb8185611a2f565b9350611ad683611a40565b8060005b83811015611b07578151611aee8882611a91565b9750611af983611aa9565b925050600181019050611ada565b5085935050505092915050565b60006020820190508181036000830152611b2e8184611ab6565b905092915050565b600081519050919050565b600082825260208201905092915050565b6000819050602082019050919050565b6000819050919050565b611b7581611b62565b82525050565b600081519050919050565b600082825260208201905092915050565b60005b83811015611bb5578082015181840152602081019050611b9a565b60008484015250505050565b6000601f19601f8301169050919050565b6000611bdd82611b7b565b611be78185611b86565b9350611bf7818560208601611b97565b611c0081611bc1565b840191505092915050565b60008115159050919050565b611c2081611c0b565b82525050565b600060c083016000830151611c3e6000860182611b6c565b5060208301518482036020860152611c568282611bd2565b9150506040830151611c6b6040860182611a82565b5060608301518482036060860152611c838282611bd2565b9150506080830151611c986080860182611b6c565b5060a0830151611cab60a0860182611c17565b508091505092915050565b6000611cc28383611c26565b905092915050565b6000602082019050919050565b6000611ce282611b36565b611cec8185611b41565b935083602082028501611cfe85611b52565b8060005b85811015611d3a5784840389528151611d1b8582611cb6565b9450611d2683611cca565b925060208a01995050600181019050611d02565b50829750879550505050505092915050565b60006020820190508181036000830152611d668184611cd7565b905092915050565b6000604051905090565b600080fd5b600080fd5b611d8b81611b62565b8114611d9657600080fd5b50565b600081359050611da881611d82565b92915050565b600060208284031215611dc457611dc3611d78565b5b6000611dd284828501611d99565b91505092915050565b611de481611b62565b82525050565b600082825260208201905092915050565b6000611e0682611b7b565b611e108185611dea565b9350611e20818560208601611b97565b611e2981611bc1565b840191505092915050565b611e3d81611a70565b82525050565b611e4c81611c0b565b82525050565b600060c082019050611e676000830189611ddb565b8181036020830152611e798188611dfb565b9050611e886040830187611e34565b8181036060830152611e9a8186611dfb565b9050611ea96080830185611ddb565b611eb660a0830184611e43565b979650505050505050565b611eca81611a70565b8114611ed557600080fd5b50565b600081359050611ee781611ec1565b92915050565b600060208284031215611f0357611f02611d78565b5b6000611f1184828501611ed8565b91505092915050565b6000604082019050611f2f6000830185611e43565b8181036020830152611f418184611dfb565b90509392505050565b600080fd5b600080fd5b7f4e487b7100000000000000000000000000000000000000000000000000000000600052604160045260246000fd5b611f8c82611bc1565b810181811067ffffffffffffffff82111715611fab57611faa611f54565b5b80604052505050565b6000611fbe611d6e565b9050611fca8282611f83565b919050565b600067ffffffffffffffff821115611fea57611fe9611f54565b5b611ff382611bc1565b9050602081019050919050565b82818337600083830152505050565b600061202261201d84611fcf565b611fb4565b90508281526020810184848401111561203e5761203d611f4f565b5b612049848285612000565b509392505050565b600082601f83011261206657612065611f4a565b5b813561207684826020860161200f565b91505092915050565b60008060006060848603121561209857612097611d78565b5b600084013567ffffffffffffffff8111156120b6576120b5611d7d565b5b6120c286828701612051565b93505060206120d386828701611ed8565b925050604084013567ffffffffffffffff8111156120f4576120f3611d7d565b5b61210086828701612051565b9150509250925092565b600060208201905061211f6000830184611ddb565b92915050565b6000819050919050565b600061214a61214561214084611a50565b612125565b611a50565b9050919050565b600061215c8261212f565b9050919050565b600061216e82612151565b9050919050565b61217e81612163565b82525050565b60006020820190506121996000830184612175565b92915050565b60006020820190506121b46000830184611e43565b92915050565b60006121c582612151565b9050919050565b6121d5816121ba565b82525050565b60006020820190506121f060008301846121cc565b92915050565b600060208201905061220b6000830184611e34565b92915050565b6000806040838503121561222857612227611d78565b5b600083013567ffffffffffffffff81111561224657612245611d7d565b5b61225285828601612051565b925050602061226385828601611ed8565b9150509250929050565b60006040820190506122826000830185611e43565b61228f6020830184611ddb565b9392505050565b60006122a182612151565b9050919050565b6122b181612296565b82525050565b60006020820190506122cc60008301846122a8565b92915050565b7f4e487b7100000000000000000000000000000000000000000000000000000000600052602260045260246000fd5b6000600282049050600182168061231957607f821691505b60208210810361232c5761232b6122d2565b5b50919050565b61233b81611c0b565b811461234657600080fd5b50565b60008151905061235881612332565b92915050565b600061237161236c84611fcf565b611fb4565b90508281526020810184848401111561238d5761238c611f4f565b5b612398848285611b97565b509392505050565b600082601f8301126123b5576123b4611f4a565b5b81516123c584826020860161235e565b91505092915050565b6000815190506123dd81611d82565b92915050565b6000806000606084860312156123fc576123fb611d78565b5b600061240a86828701612349565b935050602084015167ffffffffffffffff81111561242b5761242a611d7d565b5b612437868287016123a0565b9250506040612448868287016123ce565b9150509250925092565b7f416c65727420646f6573206e6f74206578697374000000000000000000000000600082015250565b6000612488601483611dea565b915061249382612452565b602082019050919050565b600060208201905081810360008301526124b78161247b565b9050919050565b7f4e487b7100000000000000000000000000000000000000000000000000000000600052603260045260246000fd5b7f416c65727420616c7265616479207265736f6c76656400000000000000000000600082015250565b6000612523601683611dea565b915061252e826124ed565b602082019050919050565b6000602082019050818103600083015261255281612516565b9050919050565b7f4e487b7100000000000000000000000000000000000000000000000000000000600052601160045260246000fd5b600061259382611b62565b91507fffffffffffffffffffffffffffffffffffffffffffffffffffffffffffffffff82036125c5576125c4612559565b5b600182019050919050565b60008190508160005260206000209050919050565b60006020601f8301049050919050565b600082821b905092915050565b6000600883026126327fffffffffffffffffffffffffffffffffffffffffffffffffffffffffffffffff826125f5565b61263c86836125f5565b95508019841693508086168417925050509392505050565b600061266f61266a61266584611b62565b612125565b611b62565b9050919050565b6000819050919050565b61268983612654565b61269d61269582612676565b848454612602565b825550505050565b600090565b6126b26126a5565b6126bd818484612680565b505050565b5b818110156126e1576126d66000826126aa565b6001810190506126c3565b5050565b601f821115612726576126f7816125d0565b612700846125e5565b8101602085101561270f578190505b61272361271b856125e5565b8301826126c2565b50505b505050565b600082821c905092915050565b60006127496000198460080261272b565b1980831691505092915050565b60006127628383612738565b9150826002028217905092915050565b61277b82611b7b565b67ffffffffffffffff81111561279457612793611f54565b5b61279e8254612301565b6127a98282856126e5565b600060209050601f8311600181146127dc57600084156127ca578287015190505b6127d48582612756565b86555061283c565b601f1984166127ea866125d0565b60005b82811015612812578489015182556001820191506020850194506020810190506127ed565b8683101561282f578489015161282b601f891682612738565b8355505b6001600288020188555050505b505050505050565b6000606082019050818103600083015261285e8186611dfb565b905081810360208301526128728185611dfb565b90506128816040830184611ddb565b949350505050565b7f416c726561647920737562736372696265640000000000000000000000000000600082015250565b60006128bf601283611dea565b91506128ca82612889565b602082019050919050565b600060208201905081810360008301526128ee816128b2565b9050919050565b600060408201905061290a6000830185611e34565b6129176020830184611e43565b9392505050565b7f496e76616c696420636f6d706f6e656e74206164647265737300000000000000600082015250565b6000612954601983611dea565b915061295f8261291e565b602082019050919050565b6000602082019050818103600083015261298381612947565b9050919050565b7f556e6b6e6f776e20636f6d706f6e656e74206e616d6500000000000000000000600082015250565b60006129c0601683611dea565b91506129cb8261298a565b602082019050919050565b600060208201905081810360008301526129ef816129b3565b9050919050565b60006040820190508181036000830152612a108185611dfb565b9050612a1f6020830184611e34565b9392505050565b60008060408385031215612a3d57612a3c611d78565b5b6000612a4b85828601612349565b925050602083015167ffffffffffffffff811115612a6c57612a6b611d7d565b5b612a78858286016123a0565b9150509250929050565b600067ffffffffffffffff821115612a9d57612a9c611f54565b5b602082029050602081019050919050565b600080fd5b6000612ac6612ac184612a82565b611fb4565b90508083825260208201905060208402830185811115612ae957612ae8612aae565b5b835b81811015612b3057805167ffffffffffffffff811115612b0e57612b0d611f4a565b5b808601612b1b89826123a0565b85526020850194505050602081019050612aeb565b5050509392505050565b600082601f830112612b4f57612b4e611f4a565b5b8151612b5f848260208601612ab3565b91505092915050565b600080600080600060a08688031215612b8457612b83611d78565b5b6000612b9288828901612349565b9550506020612ba388828901612349565b945050604086015167ffffffffffffffff811115612bc457612bc3611d7d565b5b612bd088828901612b3a565b9350506060612be1888289016123ce565b9250506080612bf2888289016123ce565b9150509295509295909350565b7f4e6f742073756273637269626564000000000000000000000000000000000000600082015250565b6000612c35600e83611dea565b9150612c4082612bff565b602082019050919050565b60006020820190508181036000830152612c6481612c28565b9050919050565b6000612c7682611b62565b9150612c8183611b62565b9250828203905081811115612c9957612c98612559565b5b92915050565b7f4e487b7100000000000000000000000000000000000000000000000000000000600052603160045260246000fdfea26469706673582212208ef7e90ef926e5c4fbd60d8a1d485311586d0457743d729faf33259334452a4d64736f6c63430008140033",
  "linkReferences": {},
  "deployedLinkReferences": {}
}