{
  "_format": "hh-sol-artifact-1",
  "contractName": "TransactionMonitor",
  "sourceName": "contracts/TransactionMonitor.sol",
  "abi": [
    {
      "inputs": [
        {
          "internalType": "uint256",
          "name": "_largeTransactionThreshold",
          "type": "uint256"
        }
      ],
      "stateMutability": "nonpayable",
      "type": "constructor"
    },
    {
      "inputs": [
        {
          "internalType": "address",
          "name": "owner",
          "type": "address"
        }
      ],
      "name": "OwnableInvalidOwner",
      "type": "error"
    },
    {
      "inputs": [
        {
          "internalType": "address",
          "name": "account",
          "type": "address"
        }
      ],
      "name": "OwnableUnauthorizedAccount",
      "type": "error"
    },
    {
      "anonymous": false,
      "inputs": [
        {
          "indexed": true,
          "internalType": "address",
          "name": "previousOwner",
          "type": "address"
        },
        {
          "indexed": true,
          "internalType": "address",
          "name": "newOwner",
          "type": "address"
        }
      ],
      "name": "OwnershipTransferred",
      "type": "event"
    },
    {
      "anonymous": false,
      "inputs": [
        {
          "indexed": true,
          "internalType": "address",
          "name": "from",
          "type": "address"
        },
        {
          "indexed": true,
          "internalType": "address",
          "name": "to",
          "type": "address"
        },
        {
          "indexed": false,
          "internalType": "uint256",
          "name": "amount",
          "type": "uint256"
        },
        {
          "indexed": false,
          "internalType": "uint256",
          "name": "timestamp",
          "type": "uint256"
        },
        {
          "indexed": false,
          "internalType": "string",
          "name": "reason",
          "type": "string"
        }
      ],
      "name": "SuspiciousTransactionDetected",
      "type": "event"
    },
    {
      "anonymous": false,
      "inputs": [
        {
          "indexed": true,
          "internalType": "address",
          "name": "addr",
          "type": "address"
        },
        {
          "indexed": false,
          "internalType": "string",
          "name": "category",
          "type": "string"
        }
      ],
      "name": "WatchlistAddressAdded",
      "type": "event"
    },
    {
      "anonymous": false,
      "inputs": [
        {
          "indexed": true,
          "internalType": "address",
          "name": "addr",
          "type": "address"
        }
      ],
      "name": "WatchlistAddressRemoved",
      "type": "event"
    },
    {
      "inputs": [
        {
          "internalType": "address",
          "name": "addr",
          "type": "address"
        },
        {
          "internalType": "string",
          "name": "category",
          "type": "string"
        }
      ],
      "name": "addToWatchlist",
      "outputs": [],
      "stateMutability": "nonpayable",
      "type": "function"
    },
    {
      "inputs": [],
      "name": "getWatchlistAddresses",
      "outputs": [
        {
          "internalType": "address[]",
          "name": "",
          "type": "address[]"
        }
      ],
      "stateMutability": "view",
      "type": "function"
    },
    {
      "inputs": [
        {
          "internalType": "address",
          "name": "addr",
          "type": "address"
        }
      ],
      "name": "getWatchlistEntry",
      "outputs": [
        {
          "internalType": "bool",
          "name": "isListed",
          "type": "bool"
        },
        {
          "internalType": "string",
          "name": "category",
          "type": "string"
        },
        {
          "internalType": "uint256",
          "name": "addedAt",
          "type": "uint256"
        }
      ],
      "stateMutability": "view",
      "type": "function"
    },
    {
      "inputs": [
        {
          "internalType": "address",
          "name": "from",
          "type": "address"
        },
        {
          "internalType": "address",
          "name": "to",
          "type": "address"
        },
        {
          "internalType": "uint256",
          "name": "amount",
          "type": "uint256"
        }
      ],
      "name": "isSuspiciousTransaction",
      "outputs": [
        {
          "internalType": "bool",
          "name": "",
          "type": "bool"
        },
        {
          "internalType": "string",
          "name": "",
          "type": "string"
        }
      ],
      "stateMutability": "view",
      "type": "function"
    },
    {
      "inputs": [],
      "name": "largeTransactionThreshold",
      "outputs": [
        {
          "internalType": "uint256",
          "name": "",
          "type": "uint256"
        }
      ],
      "stateMutability": "view",
      "type": "function"
    },
    {
      "inputs": [],
      "name": "owner",
      "outputs": [
        {
          "internalType": "address",
          "name": "",
          "type": "address"
        }
      ],
      "stateMutability": "view",
      "type": "function"
    },
    {
      "inputs": [
        {
          "internalType": "address",
          "name": "addr",
          "type": "address"
        }
      ],
      "name": "removeFromWatchlist",
      "outputs": [],
      "stateMutability": "nonpayable",
      "type": "function"
    },
    {
      "inputs": [],
      "name": "renounceOwnership",
      "outputs": [],
      "stateMutability": "nonpayable",
      "type": "function"
    },
    {
      "inputs": [
        {
          "internalType": "address",
          "name": "from",
          "type": "address"
        },
        {
          "internalType": "address",
          "name": "to",
          "type": "address"
        },
        {
          "internalType": "uint256",
          "name": "amount",
          "type": "uint256"
        },
        {
          "internalType": "string",
          "name": "reason",
          "type": "string"
        }
      ],
      "name": "reportSuspiciousTransaction",
      "outputs": [],
      "stateMutability": "nonpayable",
      "type": "function"
    },
    {
      "inputs": [],
      "name": "suspiciousTransactionCount",
      "outputs": [
        {
          "internalType": "uint256",
          "name": "",
          "type": "uint256"
        }
      ],
      "stateMutability": "view",
      "type": "function"
    },
    {
      "inputs": [
        {
          "internalType": "address",
          "name": "newOwner",
          "type": "address"
        }
      ],
      "name": "transferOwnership",
      "outputs": [],
      "stateMutability": "nonpayable",
      "type": "function"
    },
    {
      "inputs": [
        {
          "internalType": "uint256",
          "name": "newThreshold",
          "type": "uint256"
        }
      ],
      "name": "updateLargeTransactionThreshold",
      "outputs": [],
      "stateMutability": "nonpayable",
      "type": "function"
    },
    {
      "inputs": [
        {
          "internalType": "address",
          "name": "",
          "type": "address"
        }
      ],
      "name": "watchlist",
      "outputs": [
        {
          "internalType": "bool",
          "name": "isListed",
          "type": "bool"
        },
        {
          "internalType": "string",
          "name": "category",
          "type": "string"
        },
        {
          "internalType": "uint256",
          "name": "addedAt",
          "type": "uint256"
        }
      ],
      "stateMutability": "view",
      "type": "function"
    },
    {
      "inputs": [
        {
          "internalType": "uint256",
          "name": "",
          "type": "uint256"
        }
      ],
      "name": "watchlistAddresses",
      "outputs": [
        {
          "internalType": "address",
          "name": "",
          "type": "address"
        }
      ],
      "stateMutability": "view",
      "type": "function"
    }
  ],
  "bytecode": "0x60806040523480156200001157600080fd5b5060405162001df638038062001df68339818101604052810190620000379190620001d9565b33600073ffffffffffffffffffffffffffffffffffffffff168173ffffffffffffffffffffffffffffffffffffffff1603620000ad5760006040517f1e4fbdf7000000000000000000000000000000000000000000000000000000008152600401620000a4919062000250565b60405180910390fd5b620000be81620000d560201b60201c565b50806003819055506000600481905550506200026d565b60008060009054906101000a900473ffffffffffffffffffffffffffffffffffffffff169050816000806101000a81548173ffffffffffffffffffffffffffffffffffffffff021916908373ffffffffffffffffffffffffffffffffffffffff1602179055508173ffffffffffffffffffffffffffffffffffffffff168173ffffffffffffffffffffffffffffffffffffffff167f8be0079c531659141344cd1fd0a4f28419497f9722a3daafe3b4186f6b6457e060405160405180910390a35050565b600080fd5b6000819050919050565b620001b3816200019e565b8114620001bf57600080fd5b50565b600081519050620001d381620001a8565b92915050565b600060208284031215620001f257620001f162000199565b5b60006200020284828501620001c2565b91505092915050565b600073ffffffffffffffffffffffffffffffffffffffff82169050919050565b600062000238826200020b565b9050919050565b6200024a816200022b565b82525050565b60006020820190506200026760008301846200023f565b92915050565b611b79806200027d6000396000f3fe608060405234801561001057600080fd5b50600436106100ea5760003560e01c8063715018a61161008c578063a083018011610066578063a08301801461024e578063b1f6b18b1461026c578063f2fde38b14610288578063fbdcc4de146102a4576100ea565b8063715018a61461020a5780638c5a67da146102145780638da5cb5b14610230576100ea565b80633c5c6c5b116100c85780633c5c6c5b1461016c578063420ec08a1461019e5780634902ea69146101ba5780634bd03a1f146101d8576100ea565b80630120856e146100ef578063207ee8c31461012057806330f0cc911461013c575b600080fd5b61010960048036038101906101049190610ff0565b6102c2565b6040516101179291906110ee565b60405180910390f35b61013a6004803603810190610135919061111e565b6104b0565b005b6101566004803603810190610151919061114b565b610788565b6040516101639190611187565b60405180910390f35b6101866004803603810190610181919061111e565b6107c7565b604051610195939291906111b1565b60405180910390f35b6101b860048036038101906101b39190611324565b610886565b005b6101c2610915565b6040516101cf91906113a7565b60405180910390f35b6101f260048036038101906101ed919061111e565b61091b565b604051610201939291906111b1565b60405180910390f35b610212610a42565b005b61022e6004803603810190610229919061114b565b610a56565b005b610238610a68565b6040516102459190611187565b60405180910390f35b610256610a91565b60405161026391906113a7565b60405180910390f35b610286600480360381019061028191906113c2565b610a97565b005b6102a2600480360381019061029d919061111e565b610c84565b005b6102ac610d0a565b6040516102b991906114dc565b60405180910390f35b60006060600160008673ffffffffffffffffffffffffffffffffffffffff1673ffffffffffffffffffffffffffffffffffffffff16815260200190815260200160002060000160009054906101000a900460ff16156103865760018060008773ffffffffffffffffffffffffffffffffffffffff1673ffffffffffffffffffffffffffffffffffffffff16815260200190815260200160002060010160405160200161036e9190611627565b604051602081830303815290604052915091506104a8565b600160008573ffffffffffffffffffffffffffffffffffffffff1673ffffffffffffffffffffffffffffffffffffffff16815260200190815260200160002060000160009054906101000a900460ff16156104465760018060008673ffffffffffffffffffffffffffffffffffffffff1673ffffffffffffffffffffffffffffffffffffffff16815260200190815260200160002060010160405160200161042e9190611673565b604051602081830303815290604052915091506104a8565b6003548311156104915760016040518060400160405280601881526020017f4c61726765207472616e73616374696f6e20616d6f756e740000000000000000815250915091506104a8565b600060405180602001604052806000815250915091505b935093915050565b6104b8610d98565b600160008273ffffffffffffffffffffffffffffffffffffffff1673ffffffffffffffffffffffffffffffffffffffff16815260200190815260200160002060000160009054906101000a900460ff16610547576040517f08c379a000000000000000000000000000000000000000000000000000000000815260040161053e906116e5565b60405180910390fd5b60005b6002805490508110156106d3578173ffffffffffffffffffffffffffffffffffffffff166002828154811061058257610581611705565b5b9060005260206000200160009054906101000a900473ffffffffffffffffffffffffffffffffffffffff1673ffffffffffffffffffffffffffffffffffffffff16036106c057600260016002805490506105dc9190611763565b815481106105ed576105ec611705565b5b9060005260206000200160009054906101000a900473ffffffffffffffffffffffffffffffffffffffff166002828154811061062c5761062b611705565b5b9060005260206000200160006101000a81548173ffffffffffffffffffffffffffffffffffffffff021916908373ffffffffffffffffffffffffffffffffffffffff160217905550600280548061068657610685611797565b5b6001900381819060005260206000200160006101000a81549073ffffffffffffffffffffffffffffffffffffffff021916905590556106d3565b80806106cb906117c6565b91505061054a565b50600160008273ffffffffffffffffffffffffffffffffffffffff1673ffffffffffffffffffffffffffffffffffffffff168152602001908152602001600020600080820160006101000a81549060ff02191690556001820160006107389190610eeb565b600282016000905550508073ffffffffffffffffffffffffffffffffffffffff167f22f5e3d45ead3acd258033e2170254977014f31a142a15c26c051afc1b702e1660405160405180910390a250565b6002818154811061079857600080fd5b906000526020600020016000915054906101000a900473ffffffffffffffffffffffffffffffffffffffff1681565b60016020528060005260406000206000915090508060000160009054906101000a900460ff16908060010180546107fd90611553565b80601f016020809104026020016040519081016040528092919081815260200182805461082990611553565b80156108765780601f1061084b57610100808354040283529160200191610876565b820191906000526020600020905b81548152906001019060200180831161085957829003601f168201915b5050505050908060020154905083565b61088e610d98565b600460008154809291906108a1906117c6565b91905055508273ffffffffffffffffffffffffffffffffffffffff168473ffffffffffffffffffffffffffffffffffffffff167fc4ce915eb8c20f8b5ee87a5683b7fdf7b1c48b1b5e276245566676359cecd5c18442856040516109079392919061180e565b60405180910390a350505050565b60045481565b60006060600080600160008673ffffffffffffffffffffffffffffffffffffffff1673ffffffffffffffffffffffffffffffffffffffff1681526020019081526020016000206040518060600160405290816000820160009054906101000a900460ff1615151515815260200160018201805461099790611553565b80601f01602080910402602001604051908101604052809291908181526020018280546109c390611553565b8015610a105780601f106109e557610100808354040283529160200191610a10565b820191906000526020600020905b8154815290600101906020018083116109f357829003601f168201915b505050505081526020016002820154815250509050806000015181602001518260400151935093509350509193909250565b610a4a610d98565b610a546000610e1f565b565b610a5e610d98565b8060038190555050565b60008060009054906101000a900473ffffffffffffffffffffffffffffffffffffffff16905090565b60035481565b610a9f610d98565b600160008373ffffffffffffffffffffffffffffffffffffffff1673ffffffffffffffffffffffffffffffffffffffff16815260200190815260200160002060000160009054906101000a900460ff1615610b2f576040517f08c379a0000000000000000000000000000000000000000000000000000000008152600401610b2690611898565b60405180910390fd5b604051806060016040528060011515815260200182815260200142815250600160008473ffffffffffffffffffffffffffffffffffffffff1673ffffffffffffffffffffffffffffffffffffffff16815260200190815260200160002060008201518160000160006101000a81548160ff0219169083151502179055506020820151816001019081610bc19190611a4f565b50604082015181600201559050506002829080600181540180825580915050600190039060005260206000200160009091909190916101000a81548173ffffffffffffffffffffffffffffffffffffffff021916908373ffffffffffffffffffffffffffffffffffffffff1602179055508173ffffffffffffffffffffffffffffffffffffffff167fdba81f4e718012a95af33bcf4fce5596a50072fe1a754196a7aa0b37ac1ee11082604051610c789190611b21565b60405180910390a25050565b610c8c610d98565b600073ffffffffffffffffffffffffffffffffffffffff168173ffffffffffffffffffffffffffffffffffffffff1603610cfe5760006040517f1e4fbdf7000000000000000000000000000000000000000000000000000000008152600401610cf59190611187565b60405180910390fd5b610d0781610e1f565b50565b60606002805480602002602001604051908101604052809291908181526020018280548015610d8e57602002820191906000526020600020905b8160009054906101000a900473ffffffffffffffffffffffffffffffffffffffff1673ffffffffffffffffffffffffffffffffffffffff1681526020019060010190808311610d44575b5050505050905090565b610da0610ee3565b73ffffffffffffffffffffffffffffffffffffffff16610dbe610a68565b73ffffffffffffffffffffffffffffffffffffffff1614610e1d57610de1610ee3565b6040517f118cdaa7000000000000000000000000000000000000000000000000000000008152600401610e149190611187565b60405180910390fd5b565b60008060009054906101000a900473ffffffffffffffffffffffffffffffffffffffff169050816000806101000a81548173ffffffffffffffffffffffffffffffffffffffff021916908373ffffffffffffffffffffffffffffffffffffffff1602179055508173ffffffffffffffffffffffffffffffffffffffff168173ffffffffffffffffffffffffffffffffffffffff167f8be0079c531659141344cd1fd0a4f28419497f9722a3daafe3b4186f6b6457e060405160405180910390a35050565b600033905090565b508054610ef790611553565b6000825580601f10610f095750610f28565b601f016020900490600052602060002090810190610f279190610f2b565b5b50565b5b80821115610f44576000816000905550600101610f2c565b5090565b6000604051905090565b600080fd5b600080fd5b600073ffffffffffffffffffffffffffffffffffffffff82169050919050565b6000610f8782610f5c565b9050919050565b610f9781610f7c565b8114610fa257600080fd5b50565b600081359050610fb481610f8e565b92915050565b6000819050919050565b610fcd81610fba565b8114610fd857600080fd5b50565b600081359050610fea81610fc4565b92915050565b60008060006060848603121561100957611008610f52565b5b600061101786828701610fa5565b935050602061102886828701610fa5565b925050604061103986828701610fdb565b9150509250925092565b60008115159050919050565b61105881611043565b82525050565b600081519050919050565b600082825260208201905092915050565b60005b8381101561109857808201518184015260208101905061107d565b60008484015250505050565b6000601f19601f8301169050919050565b60006110c08261105e565b6110ca8185611069565b93506110da81856020860161107a565b6110e3816110a4565b840191505092915050565b6000604082019050611103600083018561104f565b818103602083015261111581846110b5565b90509392505050565b60006020828403121561113457611133610f52565b5b600061114284828501610fa5565b91505092915050565b60006020828403121561116157611160610f52565b5b600061116f84828501610fdb565b91505092915050565b61118181610f7c565b82525050565b600060208201905061119c6000830184611178565b92915050565b6111ab81610fba565b82525050565b60006060820190506111c6600083018661104f565b81810360208301526111d881856110b5565b90506111e760408301846111a2565b949350505050565b600080fd5b600080fd5b7f4e487b7100000000000000000000000000000000000000000000000000000000600052604160045260246000fd5b611231826110a4565b810181811067ffffffffffffffff821117156112505761124f6111f9565b5b80604052505050565b6000611263610f48565b905061126f8282611228565b919050565b600067ffffffffffffffff82111561128f5761128e6111f9565b5b611298826110a4565b9050602081019050919050565b82818337600083830152505050565b60006112c76112c284611274565b611259565b9050828152602081018484840111156112e3576112e26111f4565b5b6112ee8482856112a5565b509392505050565b600082601f83011261130b5761130a6111ef565b5b813561131b8482602086016112b4565b91505092915050565b6000806000806080858703121561133e5761133d610f52565b5b600061134c87828801610fa5565b945050602061135d87828801610fa5565b935050604061136e87828801610fdb565b925050606085013567ffffffffffffffff81111561138f5761138e610f57565b5b61139b878288016112f6565b91505092959194509250565b60006020820190506113bc60008301846111a2565b92915050565b600080604083850312156113d9576113d8610f52565b5b60006113e785828601610fa5565b925050602083013567ffffffffffffffff81111561140857611407610f57565b5b611414858286016112f6565b9150509250929050565b600081519050919050565b600082825260208201905092915050565b6000819050602082019050919050565b61145381610f7c565b82525050565b6000611465838361144a565b60208301905092915050565b6000602082019050919050565b60006114898261141e565b6114938185611429565b935061149e8361143a565b8060005b838110156114cf5781516114b68882611459565b97506114c183611471565b9250506001810190506114a2565b5085935050505092915050565b600060208201905081810360008301526114f6818461147e565b905092915050565b7f53656e646572206973206f6e2077617463686c69737420617320000000000000815250565b7f4e487b7100000000000000000000000000000000000000000000000000000000600052602260045260246000fd5b6000600282049050600182168061156b57607f821691505b60208210810361157e5761157d611524565b5b50919050565b600081905092915050565b60008190508160005260206000209050919050565b600081546115b181611553565b6115bb8186611584565b945060018216600081146115d657600181146115eb5761161e565b60ff198316865281151582028601935061161e565b6115f48561158f565b60005b83811015611616578154818901526001820191506020810190506115f7565b838801955050505b50505092915050565b6000611632826114fe565b601a8201915061164282846115a4565b915081905092915050565b7f526563697069656e74206973206f6e2077617463686c69737420617320000000815250565b600061167e8261164d565b601d8201915061168e82846115a4565b915081905092915050565b7f41646472657373206e6f74206f6e2077617463686c6973740000000000000000600082015250565b60006116cf601883611069565b91506116da82611699565b602082019050919050565b600060208201905081810360008301526116fe816116c2565b9050919050565b7f4e487b7100000000000000000000000000000000000000000000000000000000600052603260045260246000fd5b7f4e487b7100000000000000000000000000000000000000000000000000000000600052601160045260246000fd5b600061176e82610fba565b915061177983610fba565b925082820390508181111561179157611790611734565b5b92915050565b7f4e487b7100000000000000000000000000000000000000000000000000000000600052603160045260246000fd5b60006117d182610fba565b91507fffffffffffffffffffffffffffffffffffffffffffffffffffffffffffffffff820361180357611802611734565b5b600182019050919050565b600060608201905061182360008301866111a2565b61183060208301856111a2565b818103604083015261184281846110b5565b9050949350505050565b7f4164647265737320616c7265616479206f6e2077617463686c69737400000000600082015250565b6000611882601c83611069565b915061188d8261184c565b602082019050919050565b600060208201905081810360008301526118b181611875565b9050919050565b60006020601f8301049050919050565b600082821b905092915050565b6000600883026119057fffffffffffffffffffffffffffffffffffffffffffffffffffffffffffffffff826118c8565b61190f86836118c8565b95508019841693508086168417925050509392505050565b6000819050919050565b600061194c61194761194284610fba565b611927565b610fba565b9050919050565b6000819050919050565b61196683611931565b61197a61197282611953565b8484546118d5565b825550505050565b600090565b61198f611982565b61199a81848461195d565b505050565b5b818110156119be576119b3600082611987565b6001810190506119a0565b5050565b601f821115611a03576119d48161158f565b6119dd846118b8565b810160208510156119ec578190505b611a006119f8856118b8565b83018261199f565b50505b505050565b600082821c905092915050565b6000611a2660001984600802611a08565b1980831691505092915050565b6000611a3f8383611a15565b9150826002028217905092915050565b611a588261105e565b67ffffffffffffffff811115611a7157611a706111f9565b5b611a7b8254611553565b611a868282856119c2565b600060209050601f831160018114611ab95760008415611aa7578287015190505b611ab18582611a33565b865550611b19565b601f198416611ac78661158f565b60005b82811015611aef57848901518255600182019150602085019450602081019050611aca565b86831015611b0c5784890151611b08601f891682611a15565b8355505b6001600288020188555050505b505050505050565b60006020820190508181036000830152611b3b81846110b5565b90509291505056fea26469706673582212205e5a19722ab9039f6478c93e585524ba50ab948c2dae1e7ad45796cc417112cc64736f6c63430008140033",
  "linkReferences": {},
  "deployedLinkReferences": {}
}